{
  "contractName": "FuzzyHat",
  "abi": [
    {
      "inputs": [],
      "stateMutability": "nonpayable",
      "type": "constructor"
    },
    {
      "anonymous": false,
      "inputs": [
        {
          "indexed": true,
          "internalType": "address",
          "name": "owner",
          "type": "address"
        },
        {
          "indexed": true,
          "internalType": "address",
          "name": "approved",
          "type": "address"
        },
        {
          "indexed": true,
          "internalType": "uint256",
          "name": "tokenId",
          "type": "uint256"
        }
      ],
      "name": "Approval",
      "type": "event"
    },
    {
      "anonymous": false,
      "inputs": [
        {
          "indexed": true,
          "internalType": "address",
          "name": "owner",
          "type": "address"
        },
        {
          "indexed": true,
          "internalType": "address",
          "name": "operator",
          "type": "address"
        },
        {
          "indexed": false,
          "internalType": "bool",
          "name": "approved",
          "type": "bool"
        }
      ],
      "name": "ApprovalForAll",
      "type": "event"
    },
    {
      "anonymous": false,
      "inputs": [
        {
          "indexed": false,
          "internalType": "string",
          "name": "_value",
          "type": "string"
        },
        {
          "indexed": true,
          "internalType": "uint256",
          "name": "_id",
          "type": "uint256"
        }
      ],
      "name": "PermanentURI",
      "type": "event"
    },
    {
      "anonymous": false,
      "inputs": [
        {
          "indexed": false,
          "internalType": "uint256",
          "name": "tokenId",
          "type": "uint256"
        },
        {
          "components": [
            {
              "internalType": "address payable",
              "name": "account",
              "type": "address"
            },
            {
              "internalType": "uint96",
              "name": "value",
              "type": "uint96"
            }
          ],
          "indexed": false,
          "internalType": "struct LibPart.Part[]",
          "name": "royalties",
          "type": "tuple[]"
        }
      ],
      "name": "RoyaltiesSet",
      "type": "event"
    },
    {
      "anonymous": false,
      "inputs": [
        {
          "indexed": true,
          "internalType": "address",
          "name": "from",
          "type": "address"
        },
        {
          "indexed": true,
          "internalType": "address",
          "name": "to",
          "type": "address"
        },
        {
          "indexed": true,
          "internalType": "uint256",
          "name": "tokenId",
          "type": "uint256"
        }
      ],
      "name": "Transfer",
      "type": "event"
    },
    {
      "inputs": [
        {
          "internalType": "address",
          "name": "to",
          "type": "address"
        },
        {
          "internalType": "uint256",
          "name": "tokenId",
          "type": "uint256"
        }
      ],
      "name": "approve",
      "outputs": [],
      "stateMutability": "nonpayable",
      "type": "function"
    },
    {
      "inputs": [
        {
          "internalType": "address",
          "name": "owner",
          "type": "address"
        }
      ],
      "name": "balanceOf",
      "outputs": [
        {
          "internalType": "uint256",
          "name": "",
          "type": "uint256"
        }
      ],
      "stateMutability": "view",
      "type": "function",
      "constant": true
    },
    {
      "inputs": [
        {
          "internalType": "uint256",
          "name": "tokenId",
          "type": "uint256"
        }
      ],
      "name": "getApproved",
      "outputs": [
        {
          "internalType": "address",
          "name": "",
          "type": "address"
        }
      ],
      "stateMutability": "view",
      "type": "function",
      "constant": true
    },
    {
      "inputs": [
        {
          "internalType": "address",
          "name": "owner",
          "type": "address"
        },
        {
          "internalType": "address",
          "name": "operator",
          "type": "address"
        }
      ],
      "name": "isApprovedForAll",
      "outputs": [
        {
          "internalType": "bool",
          "name": "",
          "type": "bool"
        }
      ],
      "stateMutability": "view",
      "type": "function",
      "constant": true
    },
    {
      "inputs": [],
      "name": "name",
      "outputs": [
        {
          "internalType": "string",
          "name": "",
          "type": "string"
        }
      ],
      "stateMutability": "view",
      "type": "function",
      "constant": true
    },
    {
      "inputs": [],
      "name": "nextTokenId",
      "outputs": [
        {
          "internalType": "uint256",
          "name": "",
          "type": "uint256"
        }
      ],
      "stateMutability": "view",
      "type": "function",
      "constant": true
    },
    {
      "inputs": [],
      "name": "ownerAddress",
      "outputs": [
        {
          "internalType": "address",
          "name": "",
          "type": "address"
        }
      ],
      "stateMutability": "view",
      "type": "function",
      "constant": true
    },
    {
      "inputs": [
        {
          "internalType": "uint256",
          "name": "tokenId",
          "type": "uint256"
        }
      ],
      "name": "ownerOf",
      "outputs": [
        {
          "internalType": "address",
          "name": "",
          "type": "address"
        }
      ],
      "stateMutability": "view",
      "type": "function",
      "constant": true
    },
    {
      "inputs": [],
      "name": "payoutAddress",
      "outputs": [
        {
          "internalType": "address",
          "name": "",
          "type": "address"
        }
      ],
      "stateMutability": "view",
      "type": "function",
      "constant": true
    },
    {
      "inputs": [],
      "name": "royaltyFeeBps",
      "outputs": [
        {
          "internalType": "uint256",
          "name": "",
          "type": "uint256"
        }
      ],
      "stateMutability": "view",
      "type": "function",
      "constant": true
    },
    {
      "inputs": [
        {
          "internalType": "address",
          "name": "from",
          "type": "address"
        },
        {
          "internalType": "address",
          "name": "to",
          "type": "address"
        },
        {
          "internalType": "uint256",
          "name": "tokenId",
          "type": "uint256"
        }
      ],
      "name": "safeTransferFrom",
      "outputs": [],
      "stateMutability": "nonpayable",
      "type": "function"
    },
    {
      "inputs": [
        {
          "internalType": "address",
          "name": "from",
          "type": "address"
        },
        {
          "internalType": "address",
          "name": "to",
          "type": "address"
        },
        {
          "internalType": "uint256",
          "name": "tokenId",
          "type": "uint256"
        },
        {
          "internalType": "bytes",
          "name": "_data",
          "type": "bytes"
        }
      ],
      "name": "safeTransferFrom",
      "outputs": [],
      "stateMutability": "nonpayable",
      "type": "function"
    },
    {
      "inputs": [
        {
          "internalType": "address",
          "name": "operator",
          "type": "address"
        },
        {
          "internalType": "bool",
          "name": "approved",
          "type": "bool"
        }
      ],
      "name": "setApprovalForAll",
      "outputs": [],
      "stateMutability": "nonpayable",
      "type": "function"
    },
    {
      "inputs": [],
      "name": "symbol",
      "outputs": [
        {
          "internalType": "string",
          "name": "",
          "type": "string"
        }
      ],
      "stateMutability": "view",
      "type": "function",
      "constant": true
    },
    {
      "inputs": [
        {
          "internalType": "uint256",
          "name": "index",
          "type": "uint256"
        }
      ],
      "name": "tokenByIndex",
      "outputs": [
        {
          "internalType": "uint256",
          "name": "",
          "type": "uint256"
        }
      ],
      "stateMutability": "view",
      "type": "function",
      "constant": true
    },
    {
      "inputs": [
        {
          "internalType": "address",
          "name": "owner",
          "type": "address"
        },
        {
          "internalType": "uint256",
          "name": "index",
          "type": "uint256"
        }
      ],
      "name": "tokenOfOwnerByIndex",
      "outputs": [
        {
          "internalType": "uint256",
          "name": "",
          "type": "uint256"
        }
      ],
      "stateMutability": "view",
      "type": "function",
      "constant": true
    },
    {
      "inputs": [],
      "name": "totalSupply",
      "outputs": [
        {
          "internalType": "uint256",
          "name": "",
          "type": "uint256"
        }
      ],
      "stateMutability": "view",
      "type": "function",
      "constant": true
    },
    {
      "inputs": [
        {
          "internalType": "address",
          "name": "from",
          "type": "address"
        },
        {
          "internalType": "address",
          "name": "to",
          "type": "address"
        },
        {
          "internalType": "uint256",
          "name": "tokenId",
          "type": "uint256"
        }
      ],
      "name": "transferFrom",
      "outputs": [],
      "stateMutability": "nonpayable",
      "type": "function"
    },
    {
      "inputs": [
        {
          "internalType": "bytes4",
          "name": "interfaceId",
          "type": "bytes4"
        }
      ],
      "name": "supportsInterface",
      "outputs": [
        {
          "internalType": "bool",
          "name": "",
          "type": "bool"
        }
      ],
      "stateMutability": "view",
      "type": "function",
      "constant": true
    },
    {
      "inputs": [
        {
          "internalType": "string",
          "name": "metadataUri",
          "type": "string"
        }
      ],
      "name": "mintToken",
      "outputs": [
        {
          "internalType": "uint256",
          "name": "tokenId",
          "type": "uint256"
        }
      ],
      "stateMutability": "nonpayable",
      "type": "function"
    },
    {
      "inputs": [
        {
          "internalType": "uint256",
          "name": "tokenId",
          "type": "uint256"
        }
      ],
      "name": "burn",
      "outputs": [],
      "stateMutability": "nonpayable",
      "type": "function"
    },
    {
      "inputs": [
        {
          "internalType": "address",
          "name": "addAddress",
          "type": "address"
        }
      ],
      "name": "addAdmin",
      "outputs": [],
      "stateMutability": "nonpayable",
      "type": "function"
    },
    {
      "inputs": [
        {
          "internalType": "address",
          "name": "removeAddress",
          "type": "address"
        }
      ],
      "name": "removeAdmin",
      "outputs": [],
      "stateMutability": "nonpayable",
      "type": "function"
    },
    {
      "inputs": [
        {
          "internalType": "string",
          "name": "updatedContractUri",
          "type": "string"
        }
      ],
      "name": "updateContractUri",
      "outputs": [],
      "stateMutability": "nonpayable",
      "type": "function"
    },
    {
      "inputs": [
        {
          "internalType": "address",
          "name": "newPayoutAddress",
          "type": "address"
        }
      ],
      "name": "updatePayoutAddress",
      "outputs": [],
      "stateMutability": "nonpayable",
      "type": "function"
    },
    {
      "inputs": [
        {
          "internalType": "uint256",
          "name": "tokenId",
          "type": "uint256"
        },
        {
          "internalType": "string",
          "name": "metadataUri",
          "type": "string"
        },
        {
          "internalType": "bool",
          "name": "permanent",
          "type": "bool"
        }
      ],
      "name": "updateTokenMetadata",
      "outputs": [],
      "stateMutability": "nonpayable",
      "type": "function"
    },
    {
      "inputs": [
        {
          "internalType": "uint256",
          "name": "tokenId",
          "type": "uint256"
        }
      ],
      "name": "tokenURI",
      "outputs": [
        {
          "internalType": "string",
          "name": "",
          "type": "string"
        }
      ],
      "stateMutability": "view",
      "type": "function",
      "constant": true
    },
    {
      "inputs": [],
      "name": "contractURI",
      "outputs": [
        {
          "internalType": "string",
          "name": "",
          "type": "string"
        }
      ],
      "stateMutability": "view",
      "type": "function",
      "constant": true
    },
    {
      "inputs": [
        {
          "internalType": "address",
          "name": "walletAddress",
          "type": "address"
        }
      ],
      "name": "getTokensOfOwner",
      "outputs": [
        {
          "internalType": "uint256[]",
          "name": "tokenIds",
          "type": "uint256[]"
        }
      ],
      "stateMutability": "view",
      "type": "function",
      "constant": true
    },
    {
      "inputs": [],
      "name": "owner",
      "outputs": [
        {
          "internalType": "address",
          "name": "",
          "type": "address"
        }
      ],
      "stateMutability": "view",
      "type": "function",
      "constant": true
    },
    {
      "inputs": [
        {
          "internalType": "uint256",
          "name": "id",
          "type": "uint256"
        }
      ],
      "name": "getRoyalties",
      "outputs": [
        {
          "components": [
            {
              "internalType": "address payable",
              "name": "account",
              "type": "address"
            },
            {
              "internalType": "uint96",
              "name": "value",
              "type": "uint96"
            }
          ],
          "internalType": "struct LibPart.Part[]",
          "name": "",
          "type": "tuple[]"
        }
      ],
      "stateMutability": "view",
      "type": "function",
      "constant": true
    },
    {
      "inputs": [
        {
          "internalType": "uint256",
          "name": "_tokenId",
          "type": "uint256"
        },
        {
          "internalType": "uint256",
          "name": "_salePrice",
          "type": "uint256"
        }
      ],
      "name": "royaltyInfo",
      "outputs": [
        {
          "internalType": "address",
          "name": "receiver",
          "type": "address"
        },
        {
          "internalType": "uint256",
          "name": "amount",
          "type": "uint256"
        }
      ],
      "stateMutability": "view",
      "type": "function",
      "constant": true
    }
  ],
  "bytecode": "0x60806040526001600b553480156200001657600080fd5b50604080518082018252600c81527f46757a7a79486174204e4654000000000000000000000000000000000000000060208083019182528351808501909452600b84527f46555a5a594841544e46540000000000000000000000000000000000000000009084015281519192916200009191600091620000eb565b508051620000a7906001906020840190620000eb565b5050600a805433600160a060020a031991821681179092556000828152600e60205260409020805460ff19166001179055600d8054909116909117905550620001e7565b828054620000f99062000191565b90600052602060002090601f0160209004810192826200011d576000855562000168565b82601f106200013857805160ff191683800117855562000168565b8280016001018555821562000168579182015b82811115620001685782518255916020019190600101906200014b565b50620001769291506200017a565b5090565b5b808211156200017657600081556001016200017b565b600281046001821680620001a657607f821691505b60208210811415620001e1577f4e487b7100000000000000000000000000000000000000000000000000000000600052602260045260246000fd5b50919050565b61256280620001f76000396000f3fe608060405234801561001057600080fd5b506004361061020d576000357c0100000000000000000000000000000000000000000000000000000000900480635de6dc551161012c57806391192765116100bf578063bb3bafd61161008e578063bb3bafd614610428578063c87b56dd14610448578063e8a3d4851461045b578063e985e9c5146104635761020d565b806391192765146103f257806395d89b41146103fa578063a22cb46514610402578063b88d4fde146104155761020d565b806370a08231116100fb57806370a08231146103c757806375794a3c146103da5780638da5cb5b146103e25780638f84aa09146103ea5761020d565b80635de6dc551461036e5780636352211e1461038e5780636b7ad5c0146103a157806370480275146103b45761020d565b80632f745c59116101a457806347c8ff5e1161017357806347c8ff5e1461032d5780634f6ccce71461034057806356200819146103535780635b8d02d7146103665761020d565b80632f745c59146102e157806333eba49a146102f457806342842e0e1461030757806342966c681461031a5761020d565b80631785f53c116101e05780631785f53c1461028557806318160ddd1461029857806323b872dd146102ad5780632a55205a146102c05761020d565b806301ffc9a71461021257806306fdde031461023b578063081812fc14610250578063095ea7b314610270575b600080fd5b610225610220366004611c1d565b610476565b6040516102329190611e74565b60405180910390f35b6102436105f4565b6040516102329190611e7f565b61026361025e366004611c88565b610686565b6040516102329190611d61565b61028361027e366004611bf4565b6106d5565b005b610283610293366004611acb565b610773565b6102a06107c6565b6040516102329190612436565b6102836102bb366004611b17565b6107cc565b6102d36102ce366004611cf5565b610807565b604051610232929190611db1565b6102a06102ef366004611bf4565b610862565b6102a0610302366004611c55565b6108b7565b610283610315366004611b17565b61092a565b610283610328366004611c88565b610945565b61028361033b366004611c55565b6109ad565b6102a061034e366004611c88565b6109f6565b610283610361366004611acb565b610a57565b610263610ab8565b61038161037c366004611acb565b610ac7565b6040516102329190611e30565b61026361039c366004611c88565b610ba3565b6102836103af366004611ca0565b610bdb565b6102836103c2366004611acb565b610c9b565b6102a06103d5366004611acb565b610cf1565b6102a0610d38565b610263610d3e565b610263610d4d565b6102a0610d5c565b610243610d62565b610283610410366004611bcb565b610d71565b610283610423366004611b52565b610e42565b61043b610436366004611c88565b610e7e565b6040516102329190611dca565b610243610456366004611c88565b610f34565b610243610ffe565b610225610471366004611ae5565b61100d565b6000600160e060020a031982167f01ffc9a70000000000000000000000000000000000000000000000000000000014806104d95750600160e060020a031982167f44c74bcc00000000000000000000000000000000000000000000000000000000145b8061050d5750600160e060020a031982167f01ffc9a700000000000000000000000000000000000000000000000000000000145b806105415750600160e060020a031982167f80ac58cd00000000000000000000000000000000000000000000000000000000145b806105755750600160e060020a031982167f5b5e139f00000000000000000000000000000000000000000000000000000000145b806105a95750600160e060020a031982167f780e9d6300000000000000000000000000000000000000000000000000000000145b806105dd5750600160e060020a031982167f2a55205a00000000000000000000000000000000000000000000000000000000145b806105ec57506105ec8261103b565b90505b919050565b60606000805461060390612491565b80601f016020809104026020016040519081016040528092919081815260200182805461062f90612491565b801561067c5780601f106106515761010080835404028352916020019161067c565b820191906000526020600020905b81548152906001019060200180831161065f57829003601f168201915b5050505050905090565b600061069182611079565b6106b95760405160e560020a62461bcd0281526004016106b0906121f7565b60405180910390fd5b50600090815260046020526040902054600160a060020a031690565b60006106e082610ba3565b905080600160a060020a031683600160a060020a031614156107175760405160e560020a62461bcd0281526004016106b0906122e8565b80600160a060020a0316610729611096565b600160a060020a03161480610745575061074581610471611096565b6107645760405160e560020a62461bcd0281526004016106b0906120ab565b61076e838361109a565b505050565b336000908152600e602052604090205460ff166107a55760405160e560020a62461bcd0281526004016106b0906122b1565b600160a060020a03166000908152600e60205260409020805460ff19169055565b60085490565b6107dd6107d7611096565b82611115565b6107fc5760405160e560020a62461bcd0281526004016106b090612345565b61076e83838361119d565b6000808361081481611079565b6108335760405160e560020a62461bcd0281526004016106b0906123ff565b600d54600160a060020a031661085661084f6103e860646112dd565b86906112dd565b92509250509250929050565b600061086d83610cf1565b821061088e5760405160e560020a62461bcd0281526004016106b090611e92565b50600160a060020a03919091166000908152600660209081526040808320938352929052205490565b336000908152600e602052604081205460ff166108e95760405160e560020a62461bcd0281526004016106b0906122b1565b50600b546108f88160016112f0565b600b5561090533826112fc565b6000818152600f60209081526040909120835161092492850190611965565b50919050565b61076e83838360405180602001604052806000815250610e42565b336000908152600e602052604090205460ff166109775760405160e560020a62461bcd0281526004016106b0906122b1565b6109826107d7611096565b6109a15760405160e560020a62461bcd0281526004016106b090612017565b6109aa816113ee565b50565b336000908152600e602052604090205460ff166109df5760405160e560020a62461bcd0281526004016106b0906122b1565b80516109f290600c906020840190611965565b5050565b6000610a006107c6565b8210610a215760405160e560020a62461bcd0281526004016106b0906123a2565b60088281548110610a455760e060020a634e487b7102600052603260045260246000fd5b90600052602060002001549050919050565b336000908152600e602052604090205460ff16610a895760405160e560020a62461bcd0281526004016106b0906122b1565b600d805473ffffffffffffffffffffffffffffffffffffffff1916600160a060020a0392909216919091179055565b600d54600160a060020a031681565b60606000610ad483610cf1565b905080610af1576040805160008152602081019091529150610924565b8067ffffffffffffffff811115610b1b5760e060020a634e487b7102600052604160045260246000fd5b604051908082528060200260200182016040528015610b44578160200160208202803683370190505b50915060005b81811015610b9c57610b5c8482610862565b838281518110610b7f5760e060020a634e487b7102600052603260045260246000fd5b602090810291909101015280610b94816124c9565b915050610b4a565b5050919050565b600081815260026020526040812054600160a060020a0316806105ec5760405160e560020a62461bcd0281526004016106b090612165565b336000908152600e602052604090205460ff16610c0d5760405160e560020a62461bcd0281526004016106b0906122b1565b82610c1781611079565b610c365760405160e560020a62461bcd0281526004016106b0906123ff565b6000848152600f602090815260409091208451610c5592860190611965565b508115610c9557837fa109ba539900bf1b633f956d63c96fc89b814c7287f7aa50a9216d0b5565720784604051610c8c9190611e7f565b60405180910390a25b50505050565b336000908152600e602052604090205460ff16610ccd5760405160e560020a62461bcd0281526004016106b0906122b1565b600160a060020a03166000908152600e60205260409020805460ff19166001179055565b6000600160a060020a038216610d1c5760405160e560020a62461bcd0281526004016106b090612108565b50600160a060020a031660009081526003602052604090205490565b600b5481565b600a54600160a060020a031690565b600a54600160a060020a031681565b6103e881565b60606001805461060390612491565b610d79611096565b600160a060020a031682600160a060020a03161415610dad5760405160e560020a62461bcd0281526004016106b090611fe0565b8060056000610dba611096565b600160a060020a03908116825260208083019390935260409182016000908120918716808252919093529120805460ff191692151592909217909155610dfe611096565b600160a060020a03167f17307eab39ab6107e8899845ad3d59bd9653f200f220920489ca2b5937696c3183604051610e369190611e74565b60405180910390a35050565b610e53610e4d611096565b83611115565b610e725760405160e560020a62461bcd0281526004016106b090612345565b610c95848484846114a2565b606081610e8a81611079565b610ea95760405160e560020a62461bcd0281526004016106b0906123ff565b604080516001808252818301909252600091816020015b610ec86119e9565b815260200190600190039081610ec057505060408051808201909152600d54600160a060020a031681526103e860208201528151919250908290600090610f225760e060020a634e487b7102600052603260045260246000fd5b60209081029190910101529392505050565b606081610f4081611079565b610f5f5760405160e560020a62461bcd0281526004016106b0906123ff565b6000838152600f602052604090208054610f7890612491565b80601f0160208091040260200160405190810160405280929190818152602001828054610fa490612491565b8015610ff15780601f10610fc657610100808354040283529160200191610ff1565b820191906000526020600020905b815481529060010190602001808311610fd457829003601f168201915b5050505050915050919050565b6060600c805461060390612491565b600160a060020a03918216600090815260056020908152604080832093909416825291909152205460ff1690565b6000600160e060020a031982167f780e9d630000000000000000000000000000000000000000000000000000000014806105ec57506105ec826114d8565b600090815260026020526040902054600160a060020a0316151590565b3390565b6000818152600460205260409020805473ffffffffffffffffffffffffffffffffffffffff1916600160a060020a03841690811790915581906110dc82610ba3565b600160a060020a03167f8c5be1e5ebec7d5bd14f71427d1e84f3dd0314c0f7b2291e5b200ac8c7c3b92560405160405180910390a45050565b600061112082611079565b61113f5760405160e560020a62461bcd0281526004016106b09061204e565b600061114a83610ba3565b905080600160a060020a031684600160a060020a03161480611185575083600160a060020a031661117a84610686565b600160a060020a0316145b806111955750611195818561100d565b949350505050565b82600160a060020a03166111b082610ba3565b600160a060020a0316146111d95760405160e560020a62461bcd0281526004016106b090612254565b600160a060020a0382166112025760405160e560020a62461bcd0281526004016106b090611f83565b61120d83838361154a565b61121860008261109a565b600160a060020a038316600090815260036020526040812080546001929061124190849061247a565b9091555050600160a060020a038216600090815260036020526040812080546001929061126f90849061243f565b9091555050600081815260026020526040808220805473ffffffffffffffffffffffffffffffffffffffff1916600160a060020a0386811691821790925591518493918716917fddf252ad1be2c89b69c2b068fc378daa952ba7f163c4a11628f55a4df523b3ef91a4505050565b60006112e98284612457565b9392505050565b60006112e9828461243f565b600160a060020a0382166113255760405160e560020a62461bcd0281526004016106b0906121c2565b61132e81611079565b1561134e5760405160e560020a62461bcd0281526004016106b090611f4c565b61135a6000838361154a565b600160a060020a038216600090815260036020526040812080546001929061138390849061243f565b9091555050600081815260026020526040808220805473ffffffffffffffffffffffffffffffffffffffff1916600160a060020a03861690811790915590518392907fddf252ad1be2c89b69c2b068fc378daa952ba7f163c4a11628f55a4df523b3ef908290a45050565b60006113f982610ba3565b90506114078160008461154a565b61141260008361109a565b600160a060020a038116600090815260036020526040812080546001929061143b90849061247a565b9091555050600082815260026020526040808220805473ffffffffffffffffffffffffffffffffffffffff1916905551839190600160a060020a038416907fddf252ad1be2c89b69c2b068fc378daa952ba7f163c4a11628f55a4df523b3ef908390a45050565b6114ad84848461119d565b6114b9848484846115d3565b610c955760405160e560020a62461bcd0281526004016106b090611eef565b6000600160e060020a031982167f80ac58cd00000000000000000000000000000000000000000000000000000000148061153b5750600160e060020a031982167f5b5e139f00000000000000000000000000000000000000000000000000000000145b806105ec57506105ec82611726565b61155583838361076e565b600160a060020a0383166115715761156c81611758565b611594565b81600160a060020a031683600160a060020a03161461159457611594838261179c565b600160a060020a0382166115b0576115ab81611839565b61076e565b82600160a060020a031682600160a060020a03161461076e5761076e828261191b565b60006115e784600160a060020a031661195f565b1561171b5783600160a060020a031663150b7a02611603611096565b8786866040518563ffffffff167c01000000000000000000000000000000000000000000000000000000000281526004016116419493929190611d75565b602060405180830381600087803b15801561165b57600080fd5b505af192505050801561168b575060408051601f3d908101601f1916820190925261168891810190611c39565b60015b6116e8573d8080156116b9576040519150601f19603f3d011682016040523d82523d6000602084013e6116be565b606091505b5080516116e05760405160e560020a62461bcd0281526004016106b090611eef565b805181602001fd5b600160e060020a0319167f150b7a0200000000000000000000000000000000000000000000000000000000149050611195565b506001949350505050565b600160e060020a031981167f01ffc9a70000000000000000000000000000000000000000000000000000000014919050565b600880546000838152600960205260408120829055600182018355919091527ff3f7a9fe364faab93b216da50a3214154f22a0a2b415b23a84c8169e8b636ee30155565b600060016117a984610cf1565b6117b3919061247a565b60008381526007602052604090205490915080821461180657600160a060020a03841660009081526006602090815260408083208584528252808320548484528184208190558352600790915290208190555b506000918252600760209081526040808420849055600160a060020a039094168352600681528383209183525290812055565b60085460009061184b9060019061247a565b600083815260096020526040812054600880549394509092849081106118845760e060020a634e487b7102600052603260045260246000fd5b9060005260206000200154905080600883815481106118b65760e060020a634e487b7102600052603260045260246000fd5b60009182526020808320909101929092558281526009909152604080822084905585825281205560088054806118ff5760e060020a634e487b7102600052603160045260246000fd5b6001900381819060005260206000200160009055905550505050565b600061192683610cf1565b600160a060020a039093166000908152600660209081526040808320868452825280832085905593825260079052919091209190915550565b3b151590565b82805461197190612491565b90600052602060002090601f01602090048101928261199357600085556119d9565b82601f106119ac57805160ff19168380011785556119d9565b828001600101855582156119d9579182015b828111156119d95782518255916020019190600101906119be565b506119e5929150611a00565b5090565b604080518082019091526000808252602082015290565b5b808211156119e55760008155600101611a01565b600067ffffffffffffffff80841115611a3057611a306124fd565b604051601f8501601f191681016020018281118282101715611a5457611a546124fd565b604052848152915081838501861015611a6c57600080fd5b8484602083013760006020868301015250509392505050565b8035600160a060020a03811681146105ef57600080fd5b803580151581146105ef57600080fd5b600082601f830112611abc578081fd5b6112e983833560208501611a15565b600060208284031215611adc578081fd5b6112e982611a85565b60008060408385031215611af7578081fd5b611b0083611a85565b9150611b0e60208401611a85565b90509250929050565b600080600060608486031215611b2b578081fd5b611b3484611a85565b9250611b4260208501611a85565b9150604084013590509250925092565b60008060008060808587031215611b67578081fd5b611b7085611a85565b9350611b7e60208601611a85565b925060408501359150606085013567ffffffffffffffff811115611ba0578182fd5b8501601f81018713611bb0578182fd5b611bbf87823560208401611a15565b91505092959194509250565b60008060408385031215611bdd578182fd5b611be683611a85565b9150611b0e60208401611a9c565b60008060408385031215611c06578182fd5b611c0f83611a85565b946020939093013593505050565b600060208284031215611c2e578081fd5b81356112e981612516565b600060208284031215611c4a578081fd5b81516112e981612516565b600060208284031215611c66578081fd5b813567ffffffffffffffff811115611c7c578182fd5b61119584828501611aac565b600060208284031215611c99578081fd5b5035919050565b600080600060608486031215611cb4578283fd5b83359250602084013567ffffffffffffffff811115611cd1578283fd5b611cdd86828701611aac565b925050611cec60408501611a9c565b90509250925092565b60008060408385031215611d07578182fd5b50508035926020909101359150565b60008151808452815b81811015611d3b57602081850181015186830182015201611d1f565b81811115611d4c5782602083870101525b50601f01601f19169290920160200192915050565b600160a060020a0391909116815260200190565b6000600160a060020a03808716835280861660208401525083604083015260806060830152611da76080830184611d16565b9695505050505050565b600160a060020a03929092168252602082015260400190565b602080825282518282018190526000919060409081850190868401855b82811015611e235781518051600160a060020a031685528601516bffffffffffffffffffffffff16868501529284019290850190600101611de7565b5091979650505050505050565b6020808252825182820181905260009190848201906040850190845b81811015611e6857835183529284019291840191600101611e4c565b50909695505050505050565b901515815260200190565b6000602082526112e96020830184611d16565b6020808252602b908201527f455243373231456e756d657261626c653a206f776e657220696e646578206f7560408201527f74206f6620626f756e6473000000000000000000000000000000000000000000606082015260800190565b60208082526032908201527f4552433732313a207472616e7366657220746f206e6f6e20455243373231526560408201527f63656976657220696d706c656d656e7465720000000000000000000000000000606082015260800190565b6020808252601c908201527f4552433732313a20746f6b656e20616c7265616479206d696e74656400000000604082015260600190565b60208082526024908201527f4552433732313a207472616e7366657220746f20746865207a65726f2061646460408201527f7265737300000000000000000000000000000000000000000000000000000000606082015260800190565b60208082526019908201527f4552433732313a20617070726f766520746f2063616c6c657200000000000000604082015260600190565b6020808252600c908201527f4f6e6c79206f776e6572732e0000000000000000000000000000000000000000604082015260600190565b6020808252602c908201527f4552433732313a206f70657261746f7220717565727920666f72206e6f6e657860408201527f697374656e7420746f6b656e0000000000000000000000000000000000000000606082015260800190565b60208082526038908201527f4552433732313a20617070726f76652063616c6c6572206973206e6f74206f7760408201527f6e6572206e6f7220617070726f76656420666f7220616c6c0000000000000000606082015260800190565b6020808252602a908201527f4552433732313a2062616c616e636520717565727920666f7220746865207a6560408201527f726f206164647265737300000000000000000000000000000000000000000000606082015260800190565b60208082526029908201527f4552433732313a206f776e657220717565727920666f72206e6f6e657869737460408201527f656e7420746f6b656e0000000000000000000000000000000000000000000000606082015260800190565b6020808252818101527f4552433732313a206d696e7420746f20746865207a65726f2061646472657373604082015260600190565b6020808252602c908201527f4552433732313a20617070726f76656420717565727920666f72206e6f6e657860408201527f697374656e7420746f6b656e0000000000000000000000000000000000000000606082015260800190565b60208082526029908201527f4552433732313a207472616e73666572206f6620746f6b656e2074686174206960408201527f73206e6f74206f776e0000000000000000000000000000000000000000000000606082015260800190565b6020808252600c908201527f4f6e6c792061646d696e732e0000000000000000000000000000000000000000604082015260600190565b60208082526021908201527f4552433732313a20617070726f76616c20746f2063757272656e74206f776e6560408201527f7200000000000000000000000000000000000000000000000000000000000000606082015260800190565b60208082526031908201527f4552433732313a207472616e736665722063616c6c6572206973206e6f74206f60408201527f776e6572206e6f7220617070726f766564000000000000000000000000000000606082015260800190565b6020808252602c908201527f455243373231456e756d657261626c653a20676c6f62616c20696e646578206f60408201527f7574206f6620626f756e64730000000000000000000000000000000000000000606082015260800190565b60208082526018908201527f546f6b656e20494420646f6573206e6f742065786973742e0000000000000000604082015260600190565b90815260200190565b60008219821115612452576124526124e4565b500190565b6000826124755760e060020a634e487b710281526012600452602481fd5b500490565b60008282101561248c5761248c6124e4565b500390565b6002810460018216806124a557607f821691505b602082108114156109245760e060020a634e487b7102600052602260045260246000fd5b60006000198214156124dd576124dd6124e4565b5060010190565b60e060020a634e487b7102600052601160045260246000fd5b60e060020a634e487b7102600052604160045260246000fd5b600160e060020a0319811681146109aa57600080fdfea26469706673582212207fd70d2cc731edf9ae344561241b1a7576a0102f877cefe6622d01cd459ccf3c64736f6c63430008000033",
  "immutableReferences": {},
  "source": "// SPDX-License-Identifier: MIT\n\npragma solidity ^0.8.0;\npragma abicoder v2;\n\nimport \"@openzeppelin/contracts/token/ERC721/extensions/ERC721Enumerable.sol\";\nimport \"@openzeppelin/contracts/utils/math/SafeMath.sol\";\nimport \"./rarible/library/LibPart.sol\";\nimport \"./rarible/library/LibRoyaltiesV2.sol\";\nimport \"./rarible/RoyaltiesV2.sol\";\n\ncontract FuzzyHat is ERC721Enumerable, RoyaltiesV2 {\n    using SafeMath for uint256;\n\n    // ---\n    // Constants\n    // ---\n    uint256 constant public royaltyFeeBps = 1000; // 10%\n    bytes4 private constant _INTERFACE_ID_ERC165 = 0x01ffc9a7;\n    bytes4 private constant _INTERFACE_ID_ERC721 = 0x80ac58cd;\n    bytes4 private constant _INTERFACE_ID_ERC721_METADATA = 0x5b5e139f;\n    bytes4 private constant _INTERFACE_ID_ERC721_ENUMERABLE = 0x780e9d63;\n    bytes4 private constant _INTERFACE_ID_ERC2981 = 0x2a55205a;\n\n    // ---\n    // Properties\n    // ---\n    address public ownerAddress;\n    uint256 public nextTokenId = 1;\n    string private contractUri;\n    address public payoutAddress;\n\n    // ---\n    // Events\n    // ---\n    event PermanentURI(string _value, uint256 indexed _id); // OpenSea Freezing Metadata\n\n    // ---\n    // Mappings\n    // ---\n    mapping(address => bool) private isAdmin;\n    mapping(uint256 => string) private metadataByTokenId;\n\n    // ---\n    // Security\n    // ---\n    modifier onlyAdmin() {\n        require(isAdmin[msg.sender], \"Only admins.\");\n        _;\n    }\n\n    modifier onlyValidTokenId(uint256 tokenId) {\n        require(_exists(tokenId), \"Token ID does not exist.\");\n        _;\n    }\n\n    // ---\n    // Constructor\n    // ---\n    constructor() ERC721(\"FuzzyHat NFT\", \"FUZZYHATNFT\") {\n        ownerAddress = msg.sender;\n        isAdmin[msg.sender] = true;\n        payoutAddress = msg.sender;\n        // @TODO(iolson): Setup default contract URI data.\n    }\n\n    // ---\n    // Supported Interfaces\n    // ---\n    function supportsInterface(bytes4 interfaceId) public view virtual override returns (bool) {\n        return interfaceId == _INTERFACE_ID_ERC165\n        || interfaceId == LibRoyaltiesV2._INTERFACE_ID_ROYALTIES\n        || interfaceId == _INTERFACE_ID_ERC165\n        || interfaceId == _INTERFACE_ID_ERC721\n        || interfaceId == _INTERFACE_ID_ERC721_METADATA\n        || interfaceId == _INTERFACE_ID_ERC721_ENUMERABLE\n        || interfaceId == _INTERFACE_ID_ERC2981\n        || super.supportsInterface(interfaceId);\n    }\n\n    // ---\n    // Minting\n    // ---\n    function mintToken(string memory metadataUri) public onlyAdmin returns (uint256 tokenId) {\n        tokenId = nextTokenId;\n        nextTokenId = nextTokenId.add(1);\n        _mint(msg.sender, tokenId);\n        metadataByTokenId[tokenId] = metadataUri;\n    }\n\n    // ---\n    // Burning\n    // ---\n    function burn(uint256 tokenId) public virtual onlyAdmin {\n        //solhint-disable-next-line max-line-length\n        require(_isApprovedOrOwner(_msgSender(), tokenId), \"Only owners.\");\n        _burn(tokenId);\n    }\n\n    // ---\n    // Update Functions\n    // ---\n    \n    function addAdmin(address addAddress) public onlyAdmin {\n        isAdmin[addAddress] = true;\n    }\n\n    function removeAdmin(address removeAddress) public onlyAdmin {\n        isAdmin[removeAddress] = false;\n    }\n\n    function updateContractUri(string memory updatedContractUri) public onlyAdmin {\n        contractUri = updatedContractUri;\n    }\n\n    function updatePayoutAddress(address newPayoutAddress) public onlyAdmin {\n        payoutAddress = newPayoutAddress;\n    }\n\n    function updateTokenMetadata(uint256 tokenId, string memory metadataUri, bool permanent) public onlyAdmin onlyValidTokenId(tokenId) {\n        metadataByTokenId[tokenId] = metadataUri;\n\n        if (permanent) {\n            emit PermanentURI(metadataUri, tokenId);\n        }\n    }\n\n    // ---\n    // Contract Retrieve Functions\n    // ---\n    \n    function tokenURI(uint256 tokenId) public view override virtual onlyValidTokenId(tokenId) returns (string memory) {\n        return metadataByTokenId[tokenId];\n    }\n\n    function contractURI() public view virtual returns (string memory) {\n        return contractUri;\n    }\n\n    function getTokensOfOwner(address walletAddress) public view returns (uint256[] memory tokenIds) {\n        uint256 tokenCount = balanceOf(walletAddress);\n\n        if (tokenCount == 0) {\n            tokenIds = new uint256[](0);\n        } else {\n            tokenIds = new uint256[](tokenCount);\n            uint256 index;\n            for (index = 0; index < tokenCount; index++) {\n                tokenIds[index] = tokenOfOwnerByIndex(walletAddress, index);\n            }\n        }\n\n        return tokenIds;\n    }\n\n    // ---\n    // Secondary Marketplace Functions\n    // ---\n\n    function owner() external view returns (address) {\n        return ownerAddress;\n    }\n\n    /* Rarible Royalties V2 */\n    function getRoyalties(uint256 id) external view override onlyValidTokenId(id) returns (LibPart.Part[] memory) {\n        LibPart.Part[] memory royalties = new LibPart.Part[](1);\n        royalties[0] = LibPart.Part({\n            account: payable(payoutAddress),\n            value: uint96(royaltyFeeBps)\n        });\n\n        return royalties;\n    }\n\n    /* EIP-2981 */\n    function royaltyInfo(uint256 _tokenId, uint256 _salePrice) external view onlyValidTokenId(_tokenId) returns (address receiver, uint256 amount) {\n        return (payoutAddress, _salePrice.div(royaltyFeeBps.div(100)));\n    }\n}",
  "sourcePath": "/Users/ianolson/code/fuzzyhat-contracts/contracts/FuzzyHat.sol",
  "compiler": {
    "name": "solc",
    "version": "0.8.0+commit.c7dfd78e.Emscripten.clang"
  },
  "schemaVersion": "3.3.4",
  "updatedAt": "2021-08-05T18:11:39.777Z",
  "networkType": "ethereum",
  "devdoc": {
    "kind": "dev",
    "methods": {
      "approve(address,uint256)": {
        "details": "See {IERC721-approve}."
      },
      "balanceOf(address)": {
        "details": "See {IERC721-balanceOf}."
      },
      "getApproved(uint256)": {
        "details": "See {IERC721-getApproved}."
      },
      "isApprovedForAll(address,address)": {
        "details": "See {IERC721-isApprovedForAll}."
      },
      "name()": {
        "details": "See {IERC721Metadata-name}."
      },
      "ownerOf(uint256)": {
        "details": "See {IERC721-ownerOf}."
      },
      "safeTransferFrom(address,address,uint256)": {
        "details": "See {IERC721-safeTransferFrom}."
      },
      "safeTransferFrom(address,address,uint256,bytes)": {
        "details": "See {IERC721-safeTransferFrom}."
      },
      "setApprovalForAll(address,bool)": {
        "details": "See {IERC721-setApprovalForAll}."
      },
      "supportsInterface(bytes4)": {
        "details": "See {IERC165-supportsInterface}."
      },
      "symbol()": {
        "details": "See {IERC721Metadata-symbol}."
      },
      "tokenByIndex(uint256)": {
        "details": "See {IERC721Enumerable-tokenByIndex}."
      },
      "tokenOfOwnerByIndex(address,uint256)": {
        "details": "See {IERC721Enumerable-tokenOfOwnerByIndex}."
      },
      "tokenURI(uint256)": {
        "details": "See {IERC721Metadata-tokenURI}."
      },
      "totalSupply()": {
        "details": "See {IERC721Enumerable-totalSupply}."
      },
      "transferFrom(address,address,uint256)": {
        "details": "See {IERC721-transferFrom}."
      }
    },
    "version": 1
  },
  "userdoc": {
    "kind": "user",
    "methods": {},
    "version": 1
  }
}