{
  "contractName": "FuzzyHat",
  "abi": [
    {
      "inputs": [],
      "stateMutability": "nonpayable",
      "type": "constructor"
    },
    {
      "anonymous": false,
      "inputs": [
        {
          "indexed": true,
          "internalType": "address",
          "name": "owner",
          "type": "address"
        },
        {
          "indexed": true,
          "internalType": "address",
          "name": "approved",
          "type": "address"
        },
        {
          "indexed": true,
          "internalType": "uint256",
          "name": "tokenId",
          "type": "uint256"
        }
      ],
      "name": "Approval",
      "type": "event"
    },
    {
      "anonymous": false,
      "inputs": [
        {
          "indexed": true,
          "internalType": "address",
          "name": "owner",
          "type": "address"
        },
        {
          "indexed": true,
          "internalType": "address",
          "name": "operator",
          "type": "address"
        },
        {
          "indexed": false,
          "internalType": "bool",
          "name": "approved",
          "type": "bool"
        }
      ],
      "name": "ApprovalForAll",
      "type": "event"
    },
    {
      "anonymous": false,
      "inputs": [
        {
          "indexed": false,
          "internalType": "string",
          "name": "_value",
          "type": "string"
        },
        {
          "indexed": true,
          "internalType": "uint256",
          "name": "_id",
          "type": "uint256"
        }
      ],
      "name": "PermanentURI",
      "type": "event"
    },
    {
      "anonymous": false,
      "inputs": [
        {
          "indexed": true,
          "internalType": "address",
          "name": "from",
          "type": "address"
        },
        {
          "indexed": true,
          "internalType": "address",
          "name": "to",
          "type": "address"
        },
        {
          "indexed": true,
          "internalType": "uint256",
          "name": "tokenId",
          "type": "uint256"
        }
      ],
      "name": "Transfer",
      "type": "event"
    },
    {
      "inputs": [
        {
          "internalType": "address",
          "name": "to",
          "type": "address"
        },
        {
          "internalType": "uint256",
          "name": "tokenId",
          "type": "uint256"
        }
      ],
      "name": "approve",
      "outputs": [],
      "stateMutability": "nonpayable",
      "type": "function"
    },
    {
      "inputs": [
        {
          "internalType": "address",
          "name": "owner",
          "type": "address"
        }
      ],
      "name": "balanceOf",
      "outputs": [
        {
          "internalType": "uint256",
          "name": "",
          "type": "uint256"
        }
      ],
      "stateMutability": "view",
      "type": "function"
    },
    {
      "inputs": [
        {
          "internalType": "uint256",
          "name": "tokenId",
          "type": "uint256"
        }
      ],
      "name": "getApproved",
      "outputs": [
        {
          "internalType": "address",
          "name": "",
          "type": "address"
        }
      ],
      "stateMutability": "view",
      "type": "function"
    },
    {
      "inputs": [
        {
          "internalType": "address",
          "name": "owner",
          "type": "address"
        },
        {
          "internalType": "address",
          "name": "operator",
          "type": "address"
        }
      ],
      "name": "isApprovedForAll",
      "outputs": [
        {
          "internalType": "bool",
          "name": "",
          "type": "bool"
        }
      ],
      "stateMutability": "view",
      "type": "function"
    },
    {
      "inputs": [],
      "name": "name",
      "outputs": [
        {
          "internalType": "string",
          "name": "",
          "type": "string"
        }
      ],
      "stateMutability": "view",
      "type": "function"
    },
    {
      "inputs": [
        {
          "internalType": "uint256",
          "name": "tokenId",
          "type": "uint256"
        }
      ],
      "name": "ownerOf",
      "outputs": [
        {
          "internalType": "address",
          "name": "",
          "type": "address"
        }
      ],
      "stateMutability": "view",
      "type": "function"
    },
    {
      "inputs": [],
      "name": "payoutAddress",
      "outputs": [
        {
          "internalType": "address",
          "name": "",
          "type": "address"
        }
      ],
      "stateMutability": "view",
      "type": "function"
    },
    {
      "inputs": [],
      "name": "royaltyFeeBps",
      "outputs": [
        {
          "internalType": "uint16",
          "name": "",
          "type": "uint16"
        }
      ],
      "stateMutability": "view",
      "type": "function"
    },
    {
      "inputs": [
        {
          "internalType": "address",
          "name": "from",
          "type": "address"
        },
        {
          "internalType": "address",
          "name": "to",
          "type": "address"
        },
        {
          "internalType": "uint256",
          "name": "tokenId",
          "type": "uint256"
        }
      ],
      "name": "safeTransferFrom",
      "outputs": [],
      "stateMutability": "nonpayable",
      "type": "function"
    },
    {
      "inputs": [
        {
          "internalType": "address",
          "name": "from",
          "type": "address"
        },
        {
          "internalType": "address",
          "name": "to",
          "type": "address"
        },
        {
          "internalType": "uint256",
          "name": "tokenId",
          "type": "uint256"
        },
        {
          "internalType": "bytes",
          "name": "_data",
          "type": "bytes"
        }
      ],
      "name": "safeTransferFrom",
      "outputs": [],
      "stateMutability": "nonpayable",
      "type": "function"
    },
    {
      "inputs": [
        {
          "internalType": "address",
          "name": "operator",
          "type": "address"
        },
        {
          "internalType": "bool",
          "name": "approved",
          "type": "bool"
        }
      ],
      "name": "setApprovalForAll",
      "outputs": [],
      "stateMutability": "nonpayable",
      "type": "function"
    },
    {
      "inputs": [],
      "name": "symbol",
      "outputs": [
        {
          "internalType": "string",
          "name": "",
          "type": "string"
        }
      ],
      "stateMutability": "view",
      "type": "function"
    },
    {
      "inputs": [
        {
          "internalType": "uint256",
          "name": "index",
          "type": "uint256"
        }
      ],
      "name": "tokenByIndex",
      "outputs": [
        {
          "internalType": "uint256",
          "name": "",
          "type": "uint256"
        }
      ],
      "stateMutability": "view",
      "type": "function"
    },
    {
      "inputs": [
        {
          "internalType": "address",
          "name": "owner",
          "type": "address"
        },
        {
          "internalType": "uint256",
          "name": "index",
          "type": "uint256"
        }
      ],
      "name": "tokenOfOwnerByIndex",
      "outputs": [
        {
          "internalType": "uint256",
          "name": "",
          "type": "uint256"
        }
      ],
      "stateMutability": "view",
      "type": "function"
    },
    {
      "inputs": [],
      "name": "totalSupply",
      "outputs": [
        {
          "internalType": "uint256",
          "name": "",
          "type": "uint256"
        }
      ],
      "stateMutability": "view",
      "type": "function"
    },
    {
      "inputs": [
        {
          "internalType": "address",
          "name": "from",
          "type": "address"
        },
        {
          "internalType": "address",
          "name": "to",
          "type": "address"
        },
        {
          "internalType": "uint256",
          "name": "tokenId",
          "type": "uint256"
        }
      ],
      "name": "transferFrom",
      "outputs": [],
      "stateMutability": "nonpayable",
      "type": "function"
    },
    {
      "inputs": [
        {
          "internalType": "bytes4",
          "name": "interfaceId",
          "type": "bytes4"
        }
      ],
      "name": "supportsInterface",
      "outputs": [
        {
          "internalType": "bool",
          "name": "",
          "type": "bool"
        }
      ],
      "stateMutability": "view",
      "type": "function"
    },
    {
      "inputs": [
        {
          "internalType": "string",
          "name": "metadataUri",
          "type": "string"
        }
      ],
      "name": "mintToken",
      "outputs": [
        {
          "internalType": "uint256",
          "name": "tokenId",
          "type": "uint256"
        }
      ],
      "stateMutability": "nonpayable",
      "type": "function"
    },
    {
      "inputs": [
        {
          "internalType": "uint256",
          "name": "tokenId",
          "type": "uint256"
        }
      ],
      "name": "burn",
      "outputs": [],
      "stateMutability": "nonpayable",
      "type": "function"
    },
    {
      "inputs": [
        {
          "internalType": "uint256",
          "name": "_tokenId",
          "type": "uint256"
        }
      ],
      "name": "tokenURI",
      "outputs": [
        {
          "internalType": "string",
          "name": "",
          "type": "string"
        }
      ],
      "stateMutability": "view",
      "type": "function"
    },
    {
      "inputs": [],
      "name": "contractURI",
      "outputs": [
        {
          "internalType": "string",
          "name": "",
          "type": "string"
        }
      ],
      "stateMutability": "view",
      "type": "function"
    },
    {
      "inputs": [
        {
          "internalType": "address",
          "name": "addAddress",
          "type": "address"
        }
      ],
      "name": "addAdmin",
      "outputs": [],
      "stateMutability": "nonpayable",
      "type": "function"
    },
    {
      "inputs": [
        {
          "internalType": "address",
          "name": "removeAddress",
          "type": "address"
        }
      ],
      "name": "removeAdmin",
      "outputs": [],
      "stateMutability": "nonpayable",
      "type": "function"
    },
    {
      "inputs": [
        {
          "internalType": "string",
          "name": "updatedContractUri",
          "type": "string"
        }
      ],
      "name": "updateContractUri",
      "outputs": [],
      "stateMutability": "nonpayable",
      "type": "function"
    },
    {
      "inputs": [
        {
          "internalType": "address",
          "name": "newPayoutAddress",
          "type": "address"
        }
      ],
      "name": "updatePayoutAddress",
      "outputs": [],
      "stateMutability": "nonpayable",
      "type": "function"
    },
    {
      "inputs": [
        {
          "internalType": "uint256",
          "name": "tokenId",
          "type": "uint256"
        }
      ],
      "name": "getFeeRecipients",
      "outputs": [
        {
          "internalType": "address payable[]",
          "name": "",
          "type": "address[]"
        }
      ],
      "stateMutability": "view",
      "type": "function"
    },
    {
      "inputs": [
        {
          "internalType": "uint256",
          "name": "tokenId",
          "type": "uint256"
        }
      ],
      "name": "getFeeBps",
      "outputs": [
        {
          "internalType": "uint256[]",
          "name": "",
          "type": "uint256[]"
        }
      ],
      "stateMutability": "view",
      "type": "function"
    },
    {
      "inputs": [
        {
          "internalType": "uint256",
          "name": "_tokenId",
          "type": "uint256"
        },
        {
          "internalType": "uint256",
          "name": "_salePrice",
          "type": "uint256"
        }
      ],
      "name": "royaltyInfo",
      "outputs": [
        {
          "internalType": "address",
          "name": "receiver",
          "type": "address"
        },
        {
          "internalType": "uint256",
          "name": "amount",
          "type": "uint256"
        }
      ],
      "stateMutability": "view",
      "type": "function"
    }
  ],
  "bytecode": "0x60806040526001600a553480156200001657600080fd5b50604080518082018252600c81527f46757a7a79486174204e4654000000000000000000000000000000000000000060208083019182528351808501909452600b84527f46555a5a594841544e46540000000000000000000000000000000000000000009084015281519192916200009191600091620000dd565b508051620000a7906001906020840190620000dd565b5050336000818152600d60205260409020805460ff19166001179055600c8054600160a060020a031916909117905550620001d9565b828054620000eb9062000183565b90600052602060002090601f0160209004810192826200010f57600085556200015a565b82601f106200012a57805160ff19168380011785556200015a565b828001600101855582156200015a579182015b828111156200015a5782518255916020019190600101906200013d565b50620001689291506200016c565b5090565b5b808211156200016857600081556001016200016d565b6002810460018216806200019857607f821691505b60208210811415620001d3577f4e487b7100000000000000000000000000000000000000000000000000000000600052602260045260246000fd5b50919050565b6121b280620001e96000396000f3fe608060405234801561001057600080fd5b50600436106101e1576000357c0100000000000000000000000000000000000000000000000000000000900480634f6ccce71161011657806395d89b41116100b4578063b9c4d9fb1161008e578063b9c4d9fb146103de578063c87b56dd146103fe578063e8a3d48514610411578063e985e9c514610419576101e1565b806395d89b41146103b0578063a22cb465146103b8578063b88d4fde146103cb576101e1565b80636352211e116100f05780636352211e14610362578063704802751461037557806370a0823114610388578063911927651461039b576101e1565b80634f6ccce71461033457806356200819146103475780635b8d02d71461035a576101e1565b806323b872dd1161018357806333eba49a1161015d57806333eba49a146102e857806342842e0e146102fb57806342966c681461030e57806347c8ff5e14610321576101e1565b806323b872dd146102a15780632a55205a146102b45780632f745c59146102d5576101e1565b8063095ea7b3116101bf578063095ea7b3146102445780630ebd4c7f146102595780631785f53c1461027957806318160ddd1461028c576101e1565b806301ffc9a7146101e657806306fdde031461020f578063081812fc14610224575b600080fd5b6101f96101f43660046118c1565b61042c565b6040516102069190611ab1565b60405180910390f35b6102176104ab565b6040516102069190611abc565b61023761023236600461193f565b61053d565b60405161020691906119c3565b610257610252366004611898565b61058c565b005b61026c61026736600461193f565b61062a565b6040516102069190611a79565b61025761028736600461175e565b6106b6565b610294610709565b6040516102069190612082565b6102576102af3660046117aa565b61070f565b6102c76102c2366004611957565b61074a565b604051610206929190611a13565b6102946102e3366004611898565b6107a5565b6102946102f63660046118f9565b6107fa565b6102576103093660046117aa565b6108a5565b61025761031c36600461193f565b6108c0565b61025761032f3660046118f9565b610928565b61029461034236600461193f565b610971565b61025761035536600461175e565b6109d2565b610237610a33565b61023761037036600461193f565b610a42565b61025761038336600461175e565b610a80565b61029461039636600461175e565b610ad6565b6103a3610b1d565b6040516102069190612073565b610217610b23565b6102576103c636600461185e565b610b32565b6102576103d93660046117e5565b610c03565b6103f16103ec36600461193f565b610c45565b6040516102069190611a2c565b61021761040c36600461193f565b610ce3565b610217610dad565b6101f9610427366004611778565b610dbc565b6000600160e060020a031982167f01ffc9a7000000000000000000000000000000000000000000000000000000001415610468575060016104a6565b600160e060020a031982167f2a55205a0000000000000000000000000000000000000000000000000000000014156104a2575060016104a6565b5060005b919050565b6060600080546104ba906120fc565b80601f01602080910402602001604051908101604052809291908181526020018280546104e6906120fc565b80156105335780601f1061050857610100808354040283529160200191610533565b820191906000526020600020905b81548152906001019060200180831161051657829003601f168201915b5050505050905090565b600061054882610dea565b6105705760405160e560020a62461bcd02815260040161056790611dfd565b60405180910390fd5b50600090815260046020526040902054600160a060020a031690565b600061059782610a42565b905080600160a060020a031683600160a060020a031614156105ce5760405160e560020a62461bcd02815260040161056790611eee565b80600160a060020a03166105e0610e07565b600160a060020a031614806105fc57506105fc81610427610e07565b61061b5760405160e560020a62461bcd02815260040161056790611cb1565b6106258383610e0b565b505050565b60608161063681610dea565b6106555760405160e560020a62461bcd02815260040161056790612005565b604080516001808252818301909252600091602080830190803683370190505090506103e861ffff16816000815181106106a25760e060020a634e487b7102600052603260045260246000fd5b602090810291909101015291505b50919050565b336000908152600d602052604090205460ff166106e85760405160e560020a62461bcd02815260040161056790611eb7565b600160a060020a03166000908152600d60205260409020805460ff19169055565b60085490565b61072061071a610e07565b82610e86565b61073f5760405160e560020a62461bcd02815260040161056790611f4b565b610625838383610f0e565b6000808361075781610dea565b6107765760405160e560020a62461bcd02815260040161056790612005565b600c54600160a060020a03166107996103e861079387606461104e565b90611061565b92509250509250929050565b60006107b083610ad6565b82106107d15760405160e560020a62461bcd02815260040161056790611acf565b50600160a060020a03919091166000908152600660209081526040808320938352929052205490565b336000908152600d602052604081205460ff1661082c5760405160e560020a62461bcd02815260040161056790611eb7565b50600a5461083b81600161106d565b600a556108483382611079565b6000818152600e6020908152604090912083516108679285019061163e565b50807fa109ba539900bf1b633f956d63c96fc89b814c7287f7aa50a9216d0b55657207836040516108989190611abc565b60405180910390a2919050565b61062583838360405180602001604052806000815250610c03565b336000908152600d602052604090205460ff166108f25760405160e560020a62461bcd02815260040161056790611eb7565b6108fd61071a610e07565b61091c5760405160e560020a62461bcd0281526004016105679061203c565b6109258161116b565b50565b336000908152600d602052604090205460ff1661095a5760405160e560020a62461bcd02815260040161056790611eb7565b805161096d90600b90602084019061163e565b5050565b600061097b610709565b821061099c5760405160e560020a62461bcd02815260040161056790611fa8565b600882815481106109c05760e060020a634e487b7102600052603260045260246000fd5b90600052602060002001549050919050565b336000908152600d602052604090205460ff16610a045760405160e560020a62461bcd02815260040161056790611eb7565b600c805473ffffffffffffffffffffffffffffffffffffffff1916600160a060020a0392909216919091179055565b600c54600160a060020a031681565b600081815260026020526040812054600160a060020a031680610a7a5760405160e560020a62461bcd02815260040161056790611d6b565b92915050565b336000908152600d602052604090205460ff16610ab25760405160e560020a62461bcd02815260040161056790611eb7565b600160a060020a03166000908152600d60205260409020805460ff19166001179055565b6000600160a060020a038216610b015760405160e560020a62461bcd02815260040161056790611d0e565b50600160a060020a031660009081526003602052604090205490565b6103e881565b6060600180546104ba906120fc565b610b3a610e07565b600160a060020a031682600160a060020a03161415610b6e5760405160e560020a62461bcd02815260040161056790611c1d565b8060056000610b7b610e07565b600160a060020a03908116825260208083019390935260409182016000908120918716808252919093529120805460ff191692151592909217909155610bbf610e07565b600160a060020a03167f17307eab39ab6107e8899845ad3d59bd9653f200f220920489ca2b5937696c3183604051610bf79190611ab1565b60405180910390a35050565b610c14610c0e610e07565b83610e86565b610c335760405160e560020a62461bcd02815260040161056790611f4b565b610c3f8484848461121f565b50505050565b606081610c5181610dea565b610c705760405160e560020a62461bcd02815260040161056790612005565b604080516001808252818301909252600091602080830190803683375050600c548251929350600160a060020a031691839150600090610cc35760e060020a634e487b7102600052603260045260246000fd5b600160a060020a0390921660209283029190910190910152915050919050565b606081610cef81610dea565b610d0e5760405160e560020a62461bcd02815260040161056790612005565b6000838152600e602052604090208054610d27906120fc565b80601f0160208091040260200160405190810160405280929190818152602001828054610d53906120fc565b8015610da05780601f10610d7557610100808354040283529160200191610da0565b820191906000526020600020905b815481529060010190602001808311610d8357829003601f168201915b5050505050915050919050565b6060600b80546104ba906120fc565b600160a060020a03918216600090815260056020908152604080832093909416825291909152205460ff1690565b600090815260026020526040902054600160a060020a0316151590565b3390565b6000818152600460205260409020805473ffffffffffffffffffffffffffffffffffffffff1916600160a060020a0384169081179091558190610e4d82610a42565b600160a060020a03167f8c5be1e5ebec7d5bd14f71427d1e84f3dd0314c0f7b2291e5b200ac8c7c3b92560405160405180910390a45050565b6000610e9182610dea565b610eb05760405160e560020a62461bcd02815260040161056790611c54565b6000610ebb83610a42565b905080600160a060020a031684600160a060020a03161480610ef6575083600160a060020a0316610eeb8461053d565b600160a060020a0316145b80610f065750610f068185610dbc565b949350505050565b82600160a060020a0316610f2182610a42565b600160a060020a031614610f4a5760405160e560020a62461bcd02815260040161056790611e5a565b600160a060020a038216610f735760405160e560020a62461bcd02815260040161056790611bc0565b610f7e838383611255565b610f89600082610e0b565b600160a060020a0383166000908152600360205260408120805460019290610fb29084906120e5565b9091555050600160a060020a0382166000908152600360205260408120805460019290610fe090849061208b565b9091555050600081815260026020526040808220805473ffffffffffffffffffffffffffffffffffffffff1916600160a060020a0386811691821790925591518493918716917fddf252ad1be2c89b69c2b068fc378daa952ba7f163c4a11628f55a4df523b3ef91a4505050565b600061105a82846120a3565b9392505050565b600061105a82846120c6565b600061105a828461208b565b600160a060020a0382166110a25760405160e560020a62461bcd02815260040161056790611dc8565b6110ab81610dea565b156110cb5760405160e560020a62461bcd02815260040161056790611b89565b6110d760008383611255565b600160a060020a038216600090815260036020526040812080546001929061110090849061208b565b9091555050600081815260026020526040808220805473ffffffffffffffffffffffffffffffffffffffff1916600160a060020a03861690811790915590518392907fddf252ad1be2c89b69c2b068fc378daa952ba7f163c4a11628f55a4df523b3ef908290a45050565b600061117682610a42565b905061118481600084611255565b61118f600083610e0b565b600160a060020a03811660009081526003602052604081208054600192906111b89084906120e5565b9091555050600082815260026020526040808220805473ffffffffffffffffffffffffffffffffffffffff1916905551839190600160a060020a038416907fddf252ad1be2c89b69c2b068fc378daa952ba7f163c4a11628f55a4df523b3ef908390a45050565b61122a848484610f0e565b611236848484846112de565b610c3f5760405160e560020a62461bcd02815260040161056790611b2c565b611260838383610625565b600160a060020a03831661127c5761127781611431565b61129f565b81600160a060020a031683600160a060020a03161461129f5761129f8382611475565b600160a060020a0382166112bb576112b681611512565b610625565b82600160a060020a031682600160a060020a0316146106255761062582826115f4565b60006112f284600160a060020a0316611638565b156114265783600160a060020a031663150b7a0261130e610e07565b8786866040518563ffffffff167c010000000000000000000000000000000000000000000000000000000002815260040161134c94939291906119d7565b602060405180830381600087803b15801561136657600080fd5b505af1925050508015611396575060408051601f3d908101601f19168201909252611393918101906118dd565b60015b6113f3573d8080156113c4576040519150601f19603f3d011682016040523d82523d6000602084013e6113c9565b606091505b5080516113eb5760405160e560020a62461bcd02815260040161056790611b2c565b805181602001fd5b600160e060020a0319167f150b7a0200000000000000000000000000000000000000000000000000000000149050610f06565b506001949350505050565b600880546000838152600960205260408120829055600182018355919091527ff3f7a9fe364faab93b216da50a3214154f22a0a2b415b23a84c8169e8b636ee30155565b6000600161148284610ad6565b61148c91906120e5565b6000838152600760205260409020549091508082146114df57600160a060020a03841660009081526006602090815260408083208584528252808320548484528184208190558352600790915290208190555b506000918252600760209081526040808420849055600160a060020a039094168352600681528383209183525290812055565b600854600090611524906001906120e5565b6000838152600960205260408120546008805493945090928490811061155d5760e060020a634e487b7102600052603260045260246000fd5b90600052602060002001549050806008838154811061158f5760e060020a634e487b7102600052603260045260246000fd5b60009182526020808320909101929092558281526009909152604080822084905585825281205560088054806115d85760e060020a634e487b7102600052603160045260246000fd5b6001900381819060005260206000200160009055905550505050565b60006115ff83610ad6565b600160a060020a039093166000908152600660209081526040808320868452825280832085905593825260079052919091209190915550565b3b151590565b82805461164a906120fc565b90600052602060002090601f01602090048101928261166c57600085556116b2565b82601f1061168557805160ff19168380011785556116b2565b828001600101855582156116b2579182015b828111156116b2578251825591602001919060010190611697565b506116be9291506116c2565b5090565b5b808211156116be57600081556001016116c3565b600067ffffffffffffffff808411156116f2576116f261214d565b604051601f8501601f1916810160200182811182821017156117165761171661214d565b60405284815291508183850186101561172e57600080fd5b8484602083013760006020868301015250509392505050565b8035600160a060020a03811681146104a657600080fd5b60006020828403121561176f578081fd5b61105a82611747565b6000806040838503121561178a578081fd5b61179383611747565b91506117a160208401611747565b90509250929050565b6000806000606084860312156117be578081fd5b6117c784611747565b92506117d560208501611747565b9150604084013590509250925092565b600080600080608085870312156117fa578081fd5b61180385611747565b935061181160208601611747565b925060408501359150606085013567ffffffffffffffff811115611833578182fd5b8501601f81018713611843578182fd5b611852878235602084016116d7565b91505092959194509250565b60008060408385031215611870578182fd5b61187983611747565b91506020830135801515811461188d578182fd5b809150509250929050565b600080604083850312156118aa578182fd5b6118b383611747565b946020939093013593505050565b6000602082840312156118d2578081fd5b813561105a81612166565b6000602082840312156118ee578081fd5b815161105a81612166565b60006020828403121561190a578081fd5b813567ffffffffffffffff811115611920578182fd5b8201601f81018413611930578182fd5b610f06848235602084016116d7565b600060208284031215611950578081fd5b5035919050565b60008060408385031215611969578182fd5b50508035926020909101359150565b60008151808452815b8181101561199d57602081850181015186830182015201611981565b818111156119ae5782602083870101525b50601f01601f19169290920160200192915050565b600160a060020a0391909116815260200190565b6000600160a060020a03808716835280861660208401525083604083015260806060830152611a096080830184611978565b9695505050505050565b600160a060020a03929092168252602082015260400190565b6020808252825182820181905260009190848201906040850190845b81811015611a6d578351600160a060020a031683529284019291840191600101611a48565b50909695505050505050565b6020808252825182820181905260009190848201906040850190845b81811015611a6d57835183529284019291840191600101611a95565b901515815260200190565b60006020825261105a6020830184611978565b6020808252602b908201527f455243373231456e756d657261626c653a206f776e657220696e646578206f7560408201527f74206f6620626f756e6473000000000000000000000000000000000000000000606082015260800190565b60208082526032908201527f4552433732313a207472616e7366657220746f206e6f6e20455243373231526560408201527f63656976657220696d706c656d656e7465720000000000000000000000000000606082015260800190565b6020808252601c908201527f4552433732313a20746f6b656e20616c7265616479206d696e74656400000000604082015260600190565b60208082526024908201527f4552433732313a207472616e7366657220746f20746865207a65726f2061646460408201527f7265737300000000000000000000000000000000000000000000000000000000606082015260800190565b60208082526019908201527f4552433732313a20617070726f766520746f2063616c6c657200000000000000604082015260600190565b6020808252602c908201527f4552433732313a206f70657261746f7220717565727920666f72206e6f6e657860408201527f697374656e7420746f6b656e0000000000000000000000000000000000000000606082015260800190565b60208082526038908201527f4552433732313a20617070726f76652063616c6c6572206973206e6f74206f7760408201527f6e6572206e6f7220617070726f76656420666f7220616c6c0000000000000000606082015260800190565b6020808252602a908201527f4552433732313a2062616c616e636520717565727920666f7220746865207a6560408201527f726f206164647265737300000000000000000000000000000000000000000000606082015260800190565b60208082526029908201527f4552433732313a206f776e657220717565727920666f72206e6f6e657869737460408201527f656e7420746f6b656e0000000000000000000000000000000000000000000000606082015260800190565b6020808252818101527f4552433732313a206d696e7420746f20746865207a65726f2061646472657373604082015260600190565b6020808252602c908201527f4552433732313a20617070726f76656420717565727920666f72206e6f6e657860408201527f697374656e7420746f6b656e0000000000000000000000000000000000000000606082015260800190565b60208082526029908201527f4552433732313a207472616e73666572206f6620746f6b656e2074686174206960408201527f73206e6f74206f776e0000000000000000000000000000000000000000000000606082015260800190565b6020808252600c908201527f4f6e6c792061646d696e732e0000000000000000000000000000000000000000604082015260600190565b60208082526021908201527f4552433732313a20617070726f76616c20746f2063757272656e74206f776e6560408201527f7200000000000000000000000000000000000000000000000000000000000000606082015260800190565b60208082526031908201527f4552433732313a207472616e736665722063616c6c6572206973206e6f74206f60408201527f776e6572206e6f7220617070726f766564000000000000000000000000000000606082015260800190565b6020808252602c908201527f455243373231456e756d657261626c653a20676c6f62616c20696e646578206f60408201527f7574206f6620626f756e64730000000000000000000000000000000000000000606082015260800190565b60208082526018908201527f546f6b656e20494420646f6573206e6f742065786973742e0000000000000000604082015260600190565b6020808252601c908201527f4f6e6c7920617070726f76656420617274697374206f776e6572732e00000000604082015260600190565b61ffff91909116815260200190565b90815260200190565b6000821982111561209e5761209e612134565b500190565b6000826120c15760e060020a634e487b710281526012600452602481fd5b500490565b60008160001904831182151516156120e0576120e0612134565b500290565b6000828210156120f7576120f7612134565b500390565b60028104600182168061211057607f821691505b602082108114156106b05760e060020a634e487b7102600052602260045260246000fd5b60e060020a634e487b7102600052601160045260246000fd5b60e060020a634e487b7102600052604160045260246000fd5b600160e060020a03198116811461092557600080fdfea264697066735822122030a681be566f9bec93ec06b56009fe647892c82bf25134e0ad5f24a78d5a512f64736f6c63430008000033",
  "immutableReferences": {},
  "source": "// SPDX-License-Identifier: MIT\npragma solidity ^0.8.0;\n\nimport \"@openzeppelin/contracts/token/ERC721/extensions/ERC721Enumerable.sol\";\nimport \"@openzeppelin/contracts/utils/math/SafeMath.sol\";\n\ncontract FuzzyHat is ERC721Enumerable {\n    using SafeMath for uint256;\n\n    // ---\n    // Constants\n    // ---\n    uint16 constant public royaltyFeeBps = 1000; // 10%\n    bytes4 private constant _INTERFACE_ID_ERC2981 = 0x2a55205a;\n\n    // ---\n    // Properties\n    // ---\n    uint256 private invocations = 1;\n    string private contractUri;\n    address public payoutAddress;\n\n    // ---\n    // Events\n    // ---\n    event PermanentURI(string _value, uint256 indexed _id); // OpenSea Freezing Metadata\n\n    // ---\n    // Mappings\n    // ---\n    mapping(address => bool) private isAdmin;\n    mapping(uint256 => string) private metadataByTokenId;\n\n    // ---\n    // Security\n    // ---\n    modifier onlyAdmin() {\n        require(isAdmin[msg.sender], \"Only admins.\");\n        _;\n    }\n\n    modifier onlyValidTokenId(uint256 tokenId) {\n        require(_exists(tokenId), \"Token ID does not exist.\");\n        _;\n    }\n\n    // ---\n    // Constructor\n    // ---\n    constructor() ERC721(\"FuzzyHat NFT\", \"FUZZYHATNFT\") {\n        isAdmin[msg.sender] = true;\n        payoutAddress = msg.sender;\n        // @TODO(iolson): Setup default contract URI data.\n    }\n\n    // ---\n    // Supported Interfaces\n    // ---\n    function supportsInterface(bytes4 interfaceId) public view virtual override returns (bool) {\n        if (interfaceId == type(IERC165).interfaceId) {\n            return true;\n        }\n\n        if (interfaceId == _INTERFACE_ID_ERC2981) {\n            return true;\n        }\n        \n        return false;\n    }\n\n    // ---\n    // Minting\n    // ---\n    function mintToken(string memory metadataUri) public onlyAdmin returns (uint256 tokenId) {\n        tokenId = invocations;\n        invocations = invocations.add(1);\n        _mint(msg.sender, tokenId);\n        metadataByTokenId[tokenId] = metadataUri;\n        emit PermanentURI(metadataUri, tokenId);\n    }\n\n    // ---\n    // Burning\n    // ---\n    function burn(uint256 tokenId) public virtual onlyAdmin {\n        //solhint-disable-next-line max-line-length\n        require(_isApprovedOrOwner(_msgSender(), tokenId), \"Only approved artist owners.\");\n        _burn(tokenId);\n    }\n\n    // ---\n    // Metadata\n    // ---\n    function tokenURI(uint256 _tokenId) public view override virtual onlyValidTokenId(_tokenId) returns (string memory) {\n        return metadataByTokenId[_tokenId];\n    }\n\n    function contractURI() public view virtual returns (string memory) {\n        return contractUri;\n    }\n\n    // ---\n    // Update Functions\n    // ---\n    function addAdmin(address addAddress) public onlyAdmin {\n        isAdmin[addAddress] = true;\n    }\n\n    function removeAdmin(address removeAddress) public onlyAdmin {\n        isAdmin[removeAddress] = false;\n    }\n\n    function updateContractUri(string memory updatedContractUri) public onlyAdmin {\n        contractUri = updatedContractUri;\n    }\n\n    function updatePayoutAddress(address newPayoutAddress) public onlyAdmin {\n        payoutAddress = newPayoutAddress;\n    }\n\n    // ---\n    // Secondary Marketplace Functions\n    // ---\n\n    /* Rarible Royalties V1 */\n    function getFeeRecipients(uint256 tokenId) public view onlyValidTokenId(tokenId) returns (address payable[] memory) {\n        address payable[] memory recipients = new address payable[](1);\n        recipients[0] = payable(payoutAddress);\n        return recipients;\n    }\n\n    function getFeeBps(uint256 tokenId) public view onlyValidTokenId(tokenId) returns (uint[] memory) {\n        uint256[] memory feeBps = new uint[](1);\n        feeBps[0] = uint(royaltyFeeBps);\n        return feeBps;\n    }\n\n    /* EIP-2981 */\n    function royaltyInfo(uint256 _tokenId, uint256 _salePrice) external view onlyValidTokenId(_tokenId) returns (address receiver, uint256 amount) {\n        return (payoutAddress, _salePrice.div(100).mul(royaltyFeeBps));\n    }\n}",
  "sourcePath": "/Users/ianolson/code/fuzzyhat-contracts/contracts/FuzzyHat.sol",
  "compiler": {
    "name": "solc",
    "version": "0.8.0+commit.c7dfd78e.Emscripten.clang"
  },
  "schemaVersion": "3.3.4",
  "updatedAt": "2021-08-03T03:55:09.910Z",
  "devdoc": {
    "kind": "dev",
    "methods": {
      "approve(address,uint256)": {
        "details": "See {IERC721-approve}."
      },
      "balanceOf(address)": {
        "details": "See {IERC721-balanceOf}."
      },
      "getApproved(uint256)": {
        "details": "See {IERC721-getApproved}."
      },
      "isApprovedForAll(address,address)": {
        "details": "See {IERC721-isApprovedForAll}."
      },
      "name()": {
        "details": "See {IERC721Metadata-name}."
      },
      "ownerOf(uint256)": {
        "details": "See {IERC721-ownerOf}."
      },
      "safeTransferFrom(address,address,uint256)": {
        "details": "See {IERC721-safeTransferFrom}."
      },
      "safeTransferFrom(address,address,uint256,bytes)": {
        "details": "See {IERC721-safeTransferFrom}."
      },
      "setApprovalForAll(address,bool)": {
        "details": "See {IERC721-setApprovalForAll}."
      },
      "supportsInterface(bytes4)": {
        "details": "See {IERC165-supportsInterface}."
      },
      "symbol()": {
        "details": "See {IERC721Metadata-symbol}."
      },
      "tokenByIndex(uint256)": {
        "details": "See {IERC721Enumerable-tokenByIndex}."
      },
      "tokenOfOwnerByIndex(address,uint256)": {
        "details": "See {IERC721Enumerable-tokenOfOwnerByIndex}."
      },
      "totalSupply()": {
        "details": "See {IERC721Enumerable-totalSupply}."
      },
      "transferFrom(address,address,uint256)": {
        "details": "See {IERC721-transferFrom}."
      }
    },
    "version": 1
  },
  "userdoc": {
    "kind": "user",
    "methods": {},
    "version": 1
  }
}