{
  "contractName": "FuzzyHat",
  "abi": [
    {
      "inputs": [],
      "stateMutability": "nonpayable",
      "type": "constructor"
    },
    {
      "anonymous": false,
      "inputs": [
        {
          "indexed": true,
          "internalType": "address",
          "name": "owner",
          "type": "address"
        },
        {
          "indexed": true,
          "internalType": "address",
          "name": "approved",
          "type": "address"
        },
        {
          "indexed": true,
          "internalType": "uint256",
          "name": "tokenId",
          "type": "uint256"
        }
      ],
      "name": "Approval",
      "type": "event"
    },
    {
      "anonymous": false,
      "inputs": [
        {
          "indexed": true,
          "internalType": "address",
          "name": "owner",
          "type": "address"
        },
        {
          "indexed": true,
          "internalType": "address",
          "name": "operator",
          "type": "address"
        },
        {
          "indexed": false,
          "internalType": "bool",
          "name": "approved",
          "type": "bool"
        }
      ],
      "name": "ApprovalForAll",
      "type": "event"
    },
    {
      "anonymous": false,
      "inputs": [
        {
          "indexed": true,
          "internalType": "bytes4",
          "name": "actualInterfaceId",
          "type": "bytes4"
        },
        {
          "indexed": false,
          "internalType": "bytes4",
          "name": "expectedInterfaceId",
          "type": "bytes4"
        },
        {
          "indexed": false,
          "internalType": "string",
          "name": "interfaceName",
          "type": "string"
        }
      ],
      "name": "Interface",
      "type": "event"
    },
    {
      "anonymous": false,
      "inputs": [
        {
          "indexed": false,
          "internalType": "string",
          "name": "_value",
          "type": "string"
        },
        {
          "indexed": true,
          "internalType": "uint256",
          "name": "_id",
          "type": "uint256"
        }
      ],
      "name": "PermanentURI",
      "type": "event"
    },
    {
      "anonymous": false,
      "inputs": [
        {
          "indexed": false,
          "internalType": "uint256",
          "name": "tokenId",
          "type": "uint256"
        },
        {
          "components": [
            {
              "internalType": "address payable",
              "name": "account",
              "type": "address"
            },
            {
              "internalType": "uint96",
              "name": "value",
              "type": "uint96"
            }
          ],
          "indexed": false,
          "internalType": "struct LibPart.Part[]",
          "name": "royalties",
          "type": "tuple[]"
        }
      ],
      "name": "RoyaltiesSet",
      "type": "event"
    },
    {
      "anonymous": false,
      "inputs": [
        {
          "indexed": true,
          "internalType": "address",
          "name": "from",
          "type": "address"
        },
        {
          "indexed": true,
          "internalType": "address",
          "name": "to",
          "type": "address"
        },
        {
          "indexed": true,
          "internalType": "uint256",
          "name": "tokenId",
          "type": "uint256"
        }
      ],
      "name": "Transfer",
      "type": "event"
    },
    {
      "inputs": [
        {
          "internalType": "address",
          "name": "to",
          "type": "address"
        },
        {
          "internalType": "uint256",
          "name": "tokenId",
          "type": "uint256"
        }
      ],
      "name": "approve",
      "outputs": [],
      "stateMutability": "nonpayable",
      "type": "function"
    },
    {
      "inputs": [
        {
          "internalType": "address",
          "name": "owner",
          "type": "address"
        }
      ],
      "name": "balanceOf",
      "outputs": [
        {
          "internalType": "uint256",
          "name": "",
          "type": "uint256"
        }
      ],
      "stateMutability": "view",
      "type": "function"
    },
    {
      "inputs": [
        {
          "internalType": "uint256",
          "name": "tokenId",
          "type": "uint256"
        }
      ],
      "name": "getApproved",
      "outputs": [
        {
          "internalType": "address",
          "name": "",
          "type": "address"
        }
      ],
      "stateMutability": "view",
      "type": "function"
    },
    {
      "inputs": [
        {
          "internalType": "address",
          "name": "owner",
          "type": "address"
        },
        {
          "internalType": "address",
          "name": "operator",
          "type": "address"
        }
      ],
      "name": "isApprovedForAll",
      "outputs": [
        {
          "internalType": "bool",
          "name": "",
          "type": "bool"
        }
      ],
      "stateMutability": "view",
      "type": "function"
    },
    {
      "inputs": [],
      "name": "name",
      "outputs": [
        {
          "internalType": "string",
          "name": "",
          "type": "string"
        }
      ],
      "stateMutability": "view",
      "type": "function"
    },
    {
      "inputs": [],
      "name": "nextTokenId",
      "outputs": [
        {
          "internalType": "uint256",
          "name": "",
          "type": "uint256"
        }
      ],
      "stateMutability": "view",
      "type": "function"
    },
    {
      "inputs": [],
      "name": "ownerAddress",
      "outputs": [
        {
          "internalType": "address",
          "name": "",
          "type": "address"
        }
      ],
      "stateMutability": "view",
      "type": "function"
    },
    {
      "inputs": [
        {
          "internalType": "uint256",
          "name": "tokenId",
          "type": "uint256"
        }
      ],
      "name": "ownerOf",
      "outputs": [
        {
          "internalType": "address",
          "name": "",
          "type": "address"
        }
      ],
      "stateMutability": "view",
      "type": "function"
    },
    {
      "inputs": [],
      "name": "payoutAddress",
      "outputs": [
        {
          "internalType": "address",
          "name": "",
          "type": "address"
        }
      ],
      "stateMutability": "view",
      "type": "function"
    },
    {
      "inputs": [],
      "name": "royaltyFeeBps",
      "outputs": [
        {
          "internalType": "uint256",
          "name": "",
          "type": "uint256"
        }
      ],
      "stateMutability": "view",
      "type": "function"
    },
    {
      "inputs": [
        {
          "internalType": "address",
          "name": "from",
          "type": "address"
        },
        {
          "internalType": "address",
          "name": "to",
          "type": "address"
        },
        {
          "internalType": "uint256",
          "name": "tokenId",
          "type": "uint256"
        }
      ],
      "name": "safeTransferFrom",
      "outputs": [],
      "stateMutability": "nonpayable",
      "type": "function"
    },
    {
      "inputs": [
        {
          "internalType": "address",
          "name": "from",
          "type": "address"
        },
        {
          "internalType": "address",
          "name": "to",
          "type": "address"
        },
        {
          "internalType": "uint256",
          "name": "tokenId",
          "type": "uint256"
        },
        {
          "internalType": "bytes",
          "name": "_data",
          "type": "bytes"
        }
      ],
      "name": "safeTransferFrom",
      "outputs": [],
      "stateMutability": "nonpayable",
      "type": "function"
    },
    {
      "inputs": [
        {
          "internalType": "address",
          "name": "operator",
          "type": "address"
        },
        {
          "internalType": "bool",
          "name": "approved",
          "type": "bool"
        }
      ],
      "name": "setApprovalForAll",
      "outputs": [],
      "stateMutability": "nonpayable",
      "type": "function"
    },
    {
      "inputs": [],
      "name": "symbol",
      "outputs": [
        {
          "internalType": "string",
          "name": "",
          "type": "string"
        }
      ],
      "stateMutability": "view",
      "type": "function"
    },
    {
      "inputs": [
        {
          "internalType": "uint256",
          "name": "index",
          "type": "uint256"
        }
      ],
      "name": "tokenByIndex",
      "outputs": [
        {
          "internalType": "uint256",
          "name": "",
          "type": "uint256"
        }
      ],
      "stateMutability": "view",
      "type": "function"
    },
    {
      "inputs": [
        {
          "internalType": "address",
          "name": "owner",
          "type": "address"
        },
        {
          "internalType": "uint256",
          "name": "index",
          "type": "uint256"
        }
      ],
      "name": "tokenOfOwnerByIndex",
      "outputs": [
        {
          "internalType": "uint256",
          "name": "",
          "type": "uint256"
        }
      ],
      "stateMutability": "view",
      "type": "function"
    },
    {
      "inputs": [],
      "name": "totalSupply",
      "outputs": [
        {
          "internalType": "uint256",
          "name": "",
          "type": "uint256"
        }
      ],
      "stateMutability": "view",
      "type": "function"
    },
    {
      "inputs": [
        {
          "internalType": "address",
          "name": "from",
          "type": "address"
        },
        {
          "internalType": "address",
          "name": "to",
          "type": "address"
        },
        {
          "internalType": "uint256",
          "name": "tokenId",
          "type": "uint256"
        }
      ],
      "name": "transferFrom",
      "outputs": [],
      "stateMutability": "nonpayable",
      "type": "function"
    },
    {
      "inputs": [
        {
          "internalType": "bytes4",
          "name": "interfaceId",
          "type": "bytes4"
        }
      ],
      "name": "supportsInterface",
      "outputs": [
        {
          "internalType": "bool",
          "name": "",
          "type": "bool"
        }
      ],
      "stateMutability": "view",
      "type": "function"
    },
    {
      "inputs": [
        {
          "internalType": "string",
          "name": "metadataUri",
          "type": "string"
        }
      ],
      "name": "mintToken",
      "outputs": [
        {
          "internalType": "uint256",
          "name": "tokenId",
          "type": "uint256"
        }
      ],
      "stateMutability": "nonpayable",
      "type": "function"
    },
    {
      "inputs": [
        {
          "internalType": "uint256",
          "name": "tokenId",
          "type": "uint256"
        }
      ],
      "name": "burn",
      "outputs": [],
      "stateMutability": "nonpayable",
      "type": "function"
    },
    {
      "inputs": [
        {
          "internalType": "address",
          "name": "addAddress",
          "type": "address"
        }
      ],
      "name": "addAdmin",
      "outputs": [],
      "stateMutability": "nonpayable",
      "type": "function"
    },
    {
      "inputs": [
        {
          "internalType": "address",
          "name": "removeAddress",
          "type": "address"
        }
      ],
      "name": "removeAdmin",
      "outputs": [],
      "stateMutability": "nonpayable",
      "type": "function"
    },
    {
      "inputs": [
        {
          "internalType": "string",
          "name": "updatedContractUri",
          "type": "string"
        }
      ],
      "name": "updateContractUri",
      "outputs": [],
      "stateMutability": "nonpayable",
      "type": "function"
    },
    {
      "inputs": [
        {
          "internalType": "address",
          "name": "newPayoutAddress",
          "type": "address"
        }
      ],
      "name": "updatePayoutAddress",
      "outputs": [],
      "stateMutability": "nonpayable",
      "type": "function"
    },
    {
      "inputs": [
        {
          "internalType": "uint256",
          "name": "tokenId",
          "type": "uint256"
        },
        {
          "internalType": "string",
          "name": "metadataUri",
          "type": "string"
        },
        {
          "internalType": "bool",
          "name": "permanent",
          "type": "bool"
        }
      ],
      "name": "updateTokenMetadata",
      "outputs": [],
      "stateMutability": "nonpayable",
      "type": "function"
    },
    {
      "inputs": [
        {
          "internalType": "uint256",
          "name": "tokenId",
          "type": "uint256"
        }
      ],
      "name": "tokenURI",
      "outputs": [
        {
          "internalType": "string",
          "name": "",
          "type": "string"
        }
      ],
      "stateMutability": "view",
      "type": "function"
    },
    {
      "inputs": [],
      "name": "contractURI",
      "outputs": [
        {
          "internalType": "string",
          "name": "",
          "type": "string"
        }
      ],
      "stateMutability": "view",
      "type": "function"
    },
    {
      "inputs": [
        {
          "internalType": "address",
          "name": "walletAddress",
          "type": "address"
        }
      ],
      "name": "getTokensOfOwner",
      "outputs": [
        {
          "internalType": "uint256[]",
          "name": "tokenIds",
          "type": "uint256[]"
        }
      ],
      "stateMutability": "view",
      "type": "function"
    },
    {
      "inputs": [],
      "name": "owner",
      "outputs": [
        {
          "internalType": "address",
          "name": "",
          "type": "address"
        }
      ],
      "stateMutability": "view",
      "type": "function"
    },
    {
      "inputs": [
        {
          "internalType": "uint256",
          "name": "id",
          "type": "uint256"
        }
      ],
      "name": "getRaribleV2Royalties",
      "outputs": [
        {
          "components": [
            {
              "internalType": "address payable",
              "name": "account",
              "type": "address"
            },
            {
              "internalType": "uint96",
              "name": "value",
              "type": "uint96"
            }
          ],
          "internalType": "struct LibPart.Part[]",
          "name": "",
          "type": "tuple[]"
        }
      ],
      "stateMutability": "view",
      "type": "function"
    },
    {
      "inputs": [
        {
          "internalType": "uint256",
          "name": "tokenId",
          "type": "uint256"
        },
        {
          "internalType": "uint256",
          "name": "salePrice",
          "type": "uint256"
        }
      ],
      "name": "royaltyInfo",
      "outputs": [
        {
          "internalType": "address",
          "name": "receiver",
          "type": "address"
        },
        {
          "internalType": "uint256",
          "name": "amount",
          "type": "uint256"
        }
      ],
      "stateMutability": "view",
      "type": "function"
    }
  ],
  "bytecode": "0x60806040526001600b553480156200001657600080fd5b50604080518082018252600c81527f46757a7a79486174204e4654000000000000000000000000000000000000000060208083019182528351808501909452600b84527f46555a5a594841544e46540000000000000000000000000000000000000000009084015281519192916200009191600091620000eb565b508051620000a7906001906020840190620000eb565b5050600a805433600160a060020a031991821681179092556000828152600e60205260409020805460ff19166001179055600d8054909116909117905550620001e7565b828054620000f99062000191565b90600052602060002090601f0160209004810192826200011d576000855562000168565b82601f106200013857805160ff191683800117855562000168565b8280016001018555821562000168579182015b82811115620001685782518255916020019190600101906200014b565b50620001769291506200017a565b5090565b5b808211156200017657600081556001016200017b565b600281046001821680620001a657607f821691505b60208210811415620001e1577f4e487b7100000000000000000000000000000000000000000000000000000000600052602260045260246000fd5b50919050565b61252e80620001f76000396000f3fe608060405234801561001057600080fd5b506004361061020d576000357c0100000000000000000000000000000000000000000000000000000000900480635de6dc551161012c57806391192765116100bf578063c87b56dd1161008e578063c87b56dd14610428578063cad96cca1461043b578063e8a3d4851461045b578063e985e9c5146104635761020d565b806391192765146103f257806395d89b41146103fa578063a22cb46514610402578063b88d4fde146104155761020d565b806370a08231116100fb57806370a08231146103c757806375794a3c146103da5780638da5cb5b146103e25780638f84aa09146103ea5761020d565b80635de6dc551461036e5780636352211e1461038e5780636b7ad5c0146103a157806370480275146103b45761020d565b80632f745c59116101a457806347c8ff5e1161017357806347c8ff5e1461032d5780634f6ccce71461034057806356200819146103535780635b8d02d7146103665761020d565b80632f745c59146102e157806333eba49a146102f457806342842e0e1461030757806342966c681461031a5761020d565b80631785f53c116101e05780631785f53c1461028557806318160ddd1461029857806323b872dd146102ad5780632a55205a146102c05761020d565b806301ffc9a71461021257806306fdde031461023b578063081812fc14610250578063095ea7b314610270575b600080fd5b610225610220366004611be9565b610476565b6040516102329190611e40565b60405180910390f35b6102436105c0565b6040516102329190611e4b565b61026361025e366004611c54565b610652565b6040516102329190611d2d565b61028361027e366004611bc0565b6106a1565b005b610283610293366004611a97565b61073f565b6102a0610792565b6040516102329190612402565b6102836102bb366004611ae3565b610798565b6102d36102ce366004611cc1565b6107d3565b604051610232929190611d7d565b6102a06102ef366004611bc0565b61082e565b6102a0610302366004611c21565b610883565b610283610315366004611ae3565b6108f6565b610283610328366004611c54565b610911565b61028361033b366004611c21565b610979565b6102a061034e366004611c54565b6109c2565b610283610361366004611a97565b610a23565b610263610a84565b61038161037c366004611a97565b610a93565b6040516102329190611dfc565b61026361039c366004611c54565b610b6f565b6102836103af366004611c6c565b610ba7565b6102836103c2366004611a97565b610c67565b6102a06103d5366004611a97565b610cbd565b6102a0610d04565b610263610d0a565b610263610d19565b6102a0610d28565b610243610d2e565b610283610410366004611b97565b610d3d565b610283610423366004611b1e565b610e0e565b610243610436366004611c54565b610e4a565b61044e610449366004611c54565b610f14565b6040516102329190611d96565b610243610fca565b610225610471366004611ab1565b610fd9565b6000600160e060020a031982167f01ffc9a70000000000000000000000000000000000000000000000000000000014806104d95750600160e060020a031982167fcad96cca00000000000000000000000000000000000000000000000000000000145b8061050d5750600160e060020a031982167f80ac58cd00000000000000000000000000000000000000000000000000000000145b806105415750600160e060020a031982167f5b5e139f00000000000000000000000000000000000000000000000000000000145b806105755750600160e060020a031982167f780e9d6300000000000000000000000000000000000000000000000000000000145b806105a95750600160e060020a031982167f2a55205a00000000000000000000000000000000000000000000000000000000145b806105b857506105b882611007565b90505b919050565b6060600080546105cf9061245d565b80601f01602080910402602001604051908101604052809291908181526020018280546105fb9061245d565b80156106485780601f1061061d57610100808354040283529160200191610648565b820191906000526020600020905b81548152906001019060200180831161062b57829003601f168201915b5050505050905090565b600061065d82611045565b6106855760405160e560020a62461bcd02815260040161067c906121c3565b60405180910390fd5b50600090815260046020526040902054600160a060020a031690565b60006106ac82610b6f565b905080600160a060020a031683600160a060020a031614156106e35760405160e560020a62461bcd02815260040161067c906122b4565b80600160a060020a03166106f5611062565b600160a060020a03161480610711575061071181610471611062565b6107305760405160e560020a62461bcd02815260040161067c90612077565b61073a8383611066565b505050565b336000908152600e602052604090205460ff166107715760405160e560020a62461bcd02815260040161067c9061227d565b600160a060020a03166000908152600e60205260409020805460ff19169055565b60085490565b6107a96107a3611062565b826110e1565b6107c85760405160e560020a62461bcd02815260040161067c90612311565b61073a838383611169565b600080836107e081611045565b6107ff5760405160e560020a62461bcd02815260040161067c906123cb565b600d54600160a060020a031661082261081b6103e860646112a9565b86906112a9565b92509250509250929050565b600061083983610cbd565b821061085a5760405160e560020a62461bcd02815260040161067c90611e5e565b50600160a060020a03919091166000908152600660209081526040808320938352929052205490565b336000908152600e602052604081205460ff166108b55760405160e560020a62461bcd02815260040161067c9061227d565b50600b546108c48160016112bc565b600b556108d133826112c8565b6000818152600f6020908152604090912083516108f092850190611931565b50919050565b61073a83838360405180602001604052806000815250610e0e565b336000908152600e602052604090205460ff166109435760405160e560020a62461bcd02815260040161067c9061227d565b61094e6107a3611062565b61096d5760405160e560020a62461bcd02815260040161067c90611fe3565b610976816113ba565b50565b336000908152600e602052604090205460ff166109ab5760405160e560020a62461bcd02815260040161067c9061227d565b80516109be90600c906020840190611931565b5050565b60006109cc610792565b82106109ed5760405160e560020a62461bcd02815260040161067c9061236e565b60088281548110610a115760e060020a634e487b7102600052603260045260246000fd5b90600052602060002001549050919050565b336000908152600e602052604090205460ff16610a555760405160e560020a62461bcd02815260040161067c9061227d565b600d805473ffffffffffffffffffffffffffffffffffffffff1916600160a060020a0392909216919091179055565b600d54600160a060020a031681565b60606000610aa083610cbd565b905080610abd5760408051600081526020810190915291506108f0565b8067ffffffffffffffff811115610ae75760e060020a634e487b7102600052604160045260246000fd5b604051908082528060200260200182016040528015610b10578160200160208202803683370190505b50915060005b81811015610b6857610b28848261082e565b838281518110610b4b5760e060020a634e487b7102600052603260045260246000fd5b602090810291909101015280610b6081612495565b915050610b16565b5050919050565b600081815260026020526040812054600160a060020a0316806105b85760405160e560020a62461bcd02815260040161067c90612131565b336000908152600e602052604090205460ff16610bd95760405160e560020a62461bcd02815260040161067c9061227d565b82610be381611045565b610c025760405160e560020a62461bcd02815260040161067c906123cb565b6000848152600f602090815260409091208451610c2192860190611931565b508115610c6157837fa109ba539900bf1b633f956d63c96fc89b814c7287f7aa50a9216d0b5565720784604051610c589190611e4b565b60405180910390a25b50505050565b336000908152600e602052604090205460ff16610c995760405160e560020a62461bcd02815260040161067c9061227d565b600160a060020a03166000908152600e60205260409020805460ff19166001179055565b6000600160a060020a038216610ce85760405160e560020a62461bcd02815260040161067c906120d4565b50600160a060020a031660009081526003602052604090205490565b600b5481565b600a54600160a060020a031690565b600a54600160a060020a031681565b6103e881565b6060600180546105cf9061245d565b610d45611062565b600160a060020a031682600160a060020a03161415610d795760405160e560020a62461bcd02815260040161067c90611fac565b8060056000610d86611062565b600160a060020a03908116825260208083019390935260409182016000908120918716808252919093529120805460ff191692151592909217909155610dca611062565b600160a060020a03167f17307eab39ab6107e8899845ad3d59bd9653f200f220920489ca2b5937696c3183604051610e029190611e40565b60405180910390a35050565b610e1f610e19611062565b836110e1565b610e3e5760405160e560020a62461bcd02815260040161067c90612311565b610c618484848461146e565b606081610e5681611045565b610e755760405160e560020a62461bcd02815260040161067c906123cb565b6000838152600f602052604090208054610e8e9061245d565b80601f0160208091040260200160405190810160405280929190818152602001828054610eba9061245d565b8015610f075780601f10610edc57610100808354040283529160200191610f07565b820191906000526020600020905b815481529060010190602001808311610eea57829003601f168201915b5050505050915050919050565b606081610f2081611045565b610f3f5760405160e560020a62461bcd02815260040161067c906123cb565b604080516001808252818301909252600091816020015b610f5e6119b5565b815260200190600190039081610f5657505060408051808201909152600d54600160a060020a031681526103e860208201528151919250908290600090610fb85760e060020a634e487b7102600052603260045260246000fd5b60209081029190910101529392505050565b6060600c80546105cf9061245d565b600160a060020a03918216600090815260056020908152604080832093909416825291909152205460ff1690565b6000600160e060020a031982167f780e9d630000000000000000000000000000000000000000000000000000000014806105b857506105b8826114a4565b600090815260026020526040902054600160a060020a0316151590565b3390565b6000818152600460205260409020805473ffffffffffffffffffffffffffffffffffffffff1916600160a060020a03841690811790915581906110a882610b6f565b600160a060020a03167f8c5be1e5ebec7d5bd14f71427d1e84f3dd0314c0f7b2291e5b200ac8c7c3b92560405160405180910390a45050565b60006110ec82611045565b61110b5760405160e560020a62461bcd02815260040161067c9061201a565b600061111683610b6f565b905080600160a060020a031684600160a060020a03161480611151575083600160a060020a031661114684610652565b600160a060020a0316145b8061116157506111618185610fd9565b949350505050565b82600160a060020a031661117c82610b6f565b600160a060020a0316146111a55760405160e560020a62461bcd02815260040161067c90612220565b600160a060020a0382166111ce5760405160e560020a62461bcd02815260040161067c90611f4f565b6111d9838383611516565b6111e4600082611066565b600160a060020a038316600090815260036020526040812080546001929061120d908490612446565b9091555050600160a060020a038216600090815260036020526040812080546001929061123b90849061240b565b9091555050600081815260026020526040808220805473ffffffffffffffffffffffffffffffffffffffff1916600160a060020a0386811691821790925591518493918716917fddf252ad1be2c89b69c2b068fc378daa952ba7f163c4a11628f55a4df523b3ef91a4505050565b60006112b58284612423565b9392505050565b60006112b5828461240b565b600160a060020a0382166112f15760405160e560020a62461bcd02815260040161067c9061218e565b6112fa81611045565b1561131a5760405160e560020a62461bcd02815260040161067c90611f18565b61132660008383611516565b600160a060020a038216600090815260036020526040812080546001929061134f90849061240b565b9091555050600081815260026020526040808220805473ffffffffffffffffffffffffffffffffffffffff1916600160a060020a03861690811790915590518392907fddf252ad1be2c89b69c2b068fc378daa952ba7f163c4a11628f55a4df523b3ef908290a45050565b60006113c582610b6f565b90506113d381600084611516565b6113de600083611066565b600160a060020a0381166000908152600360205260408120805460019290611407908490612446565b9091555050600082815260026020526040808220805473ffffffffffffffffffffffffffffffffffffffff1916905551839190600160a060020a038416907fddf252ad1be2c89b69c2b068fc378daa952ba7f163c4a11628f55a4df523b3ef908390a45050565b611479848484611169565b6114858484848461159f565b610c615760405160e560020a62461bcd02815260040161067c90611ebb565b6000600160e060020a031982167f80ac58cd0000000000000000000000000000000000000000000000000000000014806115075750600160e060020a031982167f5b5e139f00000000000000000000000000000000000000000000000000000000145b806105b857506105b8826116f2565b61152183838361073a565b600160a060020a03831661153d5761153881611724565b611560565b81600160a060020a031683600160a060020a031614611560576115608382611768565b600160a060020a03821661157c5761157781611805565b61073a565b82600160a060020a031682600160a060020a03161461073a5761073a82826118e7565b60006115b384600160a060020a031661192b565b156116e75783600160a060020a031663150b7a026115cf611062565b8786866040518563ffffffff167c010000000000000000000000000000000000000000000000000000000002815260040161160d9493929190611d41565b602060405180830381600087803b15801561162757600080fd5b505af1925050508015611657575060408051601f3d908101601f1916820190925261165491810190611c05565b60015b6116b4573d808015611685576040519150601f19603f3d011682016040523d82523d6000602084013e61168a565b606091505b5080516116ac5760405160e560020a62461bcd02815260040161067c90611ebb565b805181602001fd5b600160e060020a0319167f150b7a0200000000000000000000000000000000000000000000000000000000149050611161565b506001949350505050565b600160e060020a031981167f01ffc9a70000000000000000000000000000000000000000000000000000000014919050565b600880546000838152600960205260408120829055600182018355919091527ff3f7a9fe364faab93b216da50a3214154f22a0a2b415b23a84c8169e8b636ee30155565b6000600161177584610cbd565b61177f9190612446565b6000838152600760205260409020549091508082146117d257600160a060020a03841660009081526006602090815260408083208584528252808320548484528184208190558352600790915290208190555b506000918252600760209081526040808420849055600160a060020a039094168352600681528383209183525290812055565b60085460009061181790600190612446565b600083815260096020526040812054600880549394509092849081106118505760e060020a634e487b7102600052603260045260246000fd5b9060005260206000200154905080600883815481106118825760e060020a634e487b7102600052603260045260246000fd5b60009182526020808320909101929092558281526009909152604080822084905585825281205560088054806118cb5760e060020a634e487b7102600052603160045260246000fd5b6001900381819060005260206000200160009055905550505050565b60006118f283610cbd565b600160a060020a039093166000908152600660209081526040808320868452825280832085905593825260079052919091209190915550565b3b151590565b82805461193d9061245d565b90600052602060002090601f01602090048101928261195f57600085556119a5565b82601f1061197857805160ff19168380011785556119a5565b828001600101855582156119a5579182015b828111156119a557825182559160200191906001019061198a565b506119b19291506119cc565b5090565b604080518082019091526000808252602082015290565b5b808211156119b157600081556001016119cd565b600067ffffffffffffffff808411156119fc576119fc6124c9565b604051601f8501601f191681016020018281118282101715611a2057611a206124c9565b604052848152915081838501861015611a3857600080fd5b8484602083013760006020868301015250509392505050565b8035600160a060020a03811681146105bb57600080fd5b803580151581146105bb57600080fd5b600082601f830112611a88578081fd5b6112b5838335602085016119e1565b600060208284031215611aa8578081fd5b6112b582611a51565b60008060408385031215611ac3578081fd5b611acc83611a51565b9150611ada60208401611a51565b90509250929050565b600080600060608486031215611af7578081fd5b611b0084611a51565b9250611b0e60208501611a51565b9150604084013590509250925092565b60008060008060808587031215611b33578081fd5b611b3c85611a51565b9350611b4a60208601611a51565b925060408501359150606085013567ffffffffffffffff811115611b6c578182fd5b8501601f81018713611b7c578182fd5b611b8b878235602084016119e1565b91505092959194509250565b60008060408385031215611ba9578182fd5b611bb283611a51565b9150611ada60208401611a68565b60008060408385031215611bd2578182fd5b611bdb83611a51565b946020939093013593505050565b600060208284031215611bfa578081fd5b81356112b5816124e2565b600060208284031215611c16578081fd5b81516112b5816124e2565b600060208284031215611c32578081fd5b813567ffffffffffffffff811115611c48578182fd5b61116184828501611a78565b600060208284031215611c65578081fd5b5035919050565b600080600060608486031215611c80578283fd5b83359250602084013567ffffffffffffffff811115611c9d578283fd5b611ca986828701611a78565b925050611cb860408501611a68565b90509250925092565b60008060408385031215611cd3578182fd5b50508035926020909101359150565b60008151808452815b81811015611d0757602081850181015186830182015201611ceb565b81811115611d185782602083870101525b50601f01601f19169290920160200192915050565b600160a060020a0391909116815260200190565b6000600160a060020a03808716835280861660208401525083604083015260806060830152611d736080830184611ce2565b9695505050505050565b600160a060020a03929092168252602082015260400190565b602080825282518282018190526000919060409081850190868401855b82811015611def5781518051600160a060020a031685528601516bffffffffffffffffffffffff16868501529284019290850190600101611db3565b5091979650505050505050565b6020808252825182820181905260009190848201906040850190845b81811015611e3457835183529284019291840191600101611e18565b50909695505050505050565b901515815260200190565b6000602082526112b56020830184611ce2565b6020808252602b908201527f455243373231456e756d657261626c653a206f776e657220696e646578206f7560408201527f74206f6620626f756e6473000000000000000000000000000000000000000000606082015260800190565b60208082526032908201527f4552433732313a207472616e7366657220746f206e6f6e20455243373231526560408201527f63656976657220696d706c656d656e7465720000000000000000000000000000606082015260800190565b6020808252601c908201527f4552433732313a20746f6b656e20616c7265616479206d696e74656400000000604082015260600190565b60208082526024908201527f4552433732313a207472616e7366657220746f20746865207a65726f2061646460408201527f7265737300000000000000000000000000000000000000000000000000000000606082015260800190565b60208082526019908201527f4552433732313a20617070726f766520746f2063616c6c657200000000000000604082015260600190565b6020808252600c908201527f4f6e6c79206f776e6572732e0000000000000000000000000000000000000000604082015260600190565b6020808252602c908201527f4552433732313a206f70657261746f7220717565727920666f72206e6f6e657860408201527f697374656e7420746f6b656e0000000000000000000000000000000000000000606082015260800190565b60208082526038908201527f4552433732313a20617070726f76652063616c6c6572206973206e6f74206f7760408201527f6e6572206e6f7220617070726f76656420666f7220616c6c0000000000000000606082015260800190565b6020808252602a908201527f4552433732313a2062616c616e636520717565727920666f7220746865207a6560408201527f726f206164647265737300000000000000000000000000000000000000000000606082015260800190565b60208082526029908201527f4552433732313a206f776e657220717565727920666f72206e6f6e657869737460408201527f656e7420746f6b656e0000000000000000000000000000000000000000000000606082015260800190565b6020808252818101527f4552433732313a206d696e7420746f20746865207a65726f2061646472657373604082015260600190565b6020808252602c908201527f4552433732313a20617070726f76656420717565727920666f72206e6f6e657860408201527f697374656e7420746f6b656e0000000000000000000000000000000000000000606082015260800190565b60208082526029908201527f4552433732313a207472616e73666572206f6620746f6b656e2074686174206960408201527f73206e6f74206f776e0000000000000000000000000000000000000000000000606082015260800190565b6020808252600c908201527f4f6e6c792061646d696e732e0000000000000000000000000000000000000000604082015260600190565b60208082526021908201527f4552433732313a20617070726f76616c20746f2063757272656e74206f776e6560408201527f7200000000000000000000000000000000000000000000000000000000000000606082015260800190565b60208082526031908201527f4552433732313a207472616e736665722063616c6c6572206973206e6f74206f60408201527f776e6572206e6f7220617070726f766564000000000000000000000000000000606082015260800190565b6020808252602c908201527f455243373231456e756d657261626c653a20676c6f62616c20696e646578206f60408201527f7574206f6620626f756e64730000000000000000000000000000000000000000606082015260800190565b60208082526018908201527f546f6b656e20494420646f6573206e6f742065786973742e0000000000000000604082015260600190565b90815260200190565b6000821982111561241e5761241e6124b0565b500190565b6000826124415760e060020a634e487b710281526012600452602481fd5b500490565b600082821015612458576124586124b0565b500390565b60028104600182168061247157607f821691505b602082108114156108f05760e060020a634e487b7102600052602260045260246000fd5b60006000198214156124a9576124a96124b0565b5060010190565b60e060020a634e487b7102600052601160045260246000fd5b60e060020a634e487b7102600052604160045260246000fd5b600160e060020a03198116811461097657600080fdfea26469706673582212200e521d44f967b5248532049e7e0125ad58d16d344471999226539938d49669b064736f6c63430008000033",
  "immutableReferences": {},
  "source": "// SPDX-License-Identifier: MIT\n\npragma solidity ^0.8.0;\npragma abicoder v2;\n\nimport \"@openzeppelin/contracts/token/ERC721/extensions/ERC721Enumerable.sol\";\nimport \"@openzeppelin/contracts/utils/math/SafeMath.sol\";\nimport \"./rarible/library/LibPart.sol\";\nimport \"./rarible/library/LibRoyaltiesV2.sol\";\nimport \"./rarible/RoyaltiesV2.sol\";\n\ncontract FuzzyHat is ERC721Enumerable, RoyaltiesV2 {\n    using SafeMath for uint256;\n\n    // ---\n    // Constants\n    // ---\n    uint256 constant public royaltyFeeBps = 1000; // 10%\n    bytes4 private constant _INTERFACE_ID_ERC165 = 0x01ffc9a7;\n    bytes4 private constant _INTERFACE_ID_ERC721 = 0x80ac58cd;\n    bytes4 private constant _INTERFACE_ID_ERC721_METADATA = 0x5b5e139f;\n    bytes4 private constant _INTERFACE_ID_ERC721_ENUMERABLE = 0x780e9d63;\n    bytes4 private constant _INTERFACE_ID_EIP2981 = 0x2a55205a;\n\n    // ---\n    // Properties\n    // ---\n    address public ownerAddress;\n    uint256 public nextTokenId = 1;\n    string private contractUri;\n    address public payoutAddress;\n\n    // ---\n    // Events\n    // ---\n    event PermanentURI(string _value, uint256 indexed _id); // OpenSea Freezing Metadata\n    event Interface(bytes4 indexed actualInterfaceId, bytes4 expectedInterfaceId, string interfaceName);\n\n    // ---\n    // Mappings\n    // ---\n    mapping(address => bool) private isAdmin;\n    mapping(uint256 => string) private metadataByTokenId;\n\n    // ---\n    // Security\n    // ---\n    modifier onlyAdmin() {\n        require(isAdmin[msg.sender], \"Only admins.\");\n        _;\n    }\n\n    modifier onlyValidTokenId(uint256 tokenId) {\n        require(_exists(tokenId), \"Token ID does not exist.\");\n        _;\n    }\n\n    // ---\n    // Constructor\n    // ---\n    constructor() ERC721(\"FuzzyHat NFT\", \"FUZZYHATNFT\") {\n        ownerAddress = msg.sender;\n        isAdmin[msg.sender] = true;\n        payoutAddress = msg.sender;\n        // @TODO(iolson): Setup default contract URI data.\n    }\n\n    // ---\n    // Supported Interfaces\n    // ---\n    function supportsInterface(bytes4 interfaceId) public view virtual override returns (bool) {\n        return interfaceId == _INTERFACE_ID_ERC165\n        || interfaceId == LibRoyaltiesV2._INTERFACE_ID_ROYALTIES\n        || interfaceId == _INTERFACE_ID_ERC721\n        || interfaceId == _INTERFACE_ID_ERC721_METADATA\n        || interfaceId == _INTERFACE_ID_ERC721_ENUMERABLE\n        || interfaceId == _INTERFACE_ID_EIP2981\n        || super.supportsInterface(interfaceId);\n    }\n\n    // ---\n    // Minting\n    // ---\n    function mintToken(string memory metadataUri) public onlyAdmin returns (uint256 tokenId) {\n        tokenId = nextTokenId;\n        nextTokenId = nextTokenId.add(1);\n        _mint(msg.sender, tokenId);\n        metadataByTokenId[tokenId] = metadataUri;\n    }\n\n    // ---\n    // Burning\n    // ---\n    function burn(uint256 tokenId) public virtual onlyAdmin {\n        //solhint-disable-next-line max-line-length\n        require(_isApprovedOrOwner(_msgSender(), tokenId), \"Only owners.\");\n        _burn(tokenId);\n    }\n\n    // ---\n    // Update Functions\n    // ---\n    \n    function addAdmin(address addAddress) public onlyAdmin {\n        isAdmin[addAddress] = true;\n    }\n\n    function removeAdmin(address removeAddress) public onlyAdmin {\n        isAdmin[removeAddress] = false;\n    }\n\n    function updateContractUri(string memory updatedContractUri) public onlyAdmin {\n        contractUri = updatedContractUri;\n    }\n\n    function updatePayoutAddress(address newPayoutAddress) public onlyAdmin {\n        payoutAddress = newPayoutAddress;\n    }\n\n    function updateTokenMetadata(uint256 tokenId, string memory metadataUri, bool permanent) public onlyAdmin onlyValidTokenId(tokenId) {\n        metadataByTokenId[tokenId] = metadataUri;\n\n        if (permanent) {\n            emit PermanentURI(metadataUri, tokenId);\n        }\n    }\n\n    // ---\n    // Contract Retrieve Functions\n    // ---\n    \n    function tokenURI(uint256 tokenId) public view override virtual onlyValidTokenId(tokenId) returns (string memory) {\n        return metadataByTokenId[tokenId];\n    }\n\n    function contractURI() public view virtual returns (string memory) {\n        return contractUri;\n    }\n\n    function getTokensOfOwner(address walletAddress) public view returns (uint256[] memory tokenIds) {\n        uint256 tokenCount = balanceOf(walletAddress);\n\n        if (tokenCount == 0) {\n            tokenIds = new uint256[](0);\n        } else {\n            tokenIds = new uint256[](tokenCount);\n            uint256 index;\n            for (index = 0; index < tokenCount; index++) {\n                tokenIds[index] = tokenOfOwnerByIndex(walletAddress, index);\n            }\n        }\n\n        return tokenIds;\n    }\n\n    // ---\n    // Secondary Marketplace Functions\n    // ---\n\n    function owner() external view returns (address) {\n        return ownerAddress;\n    }\n\n    /* Rarible Royalties V2 */\n    function getRaribleV2Royalties(uint256 id) external view override onlyValidTokenId(id) returns (LibPart.Part[] memory) {\n        LibPart.Part[] memory royalties = new LibPart.Part[](1);\n        royalties[0] = LibPart.Part({\n            account: payable(payoutAddress),\n            value: uint96(royaltyFeeBps)\n        });\n\n        return royalties;\n    }\n\n    /* EIP-2981 */\n    function royaltyInfo(uint256 tokenId, uint256 salePrice) external view onlyValidTokenId(tokenId) returns (address receiver, uint256 amount) {\n        return (payoutAddress, salePrice.div(royaltyFeeBps.div(100)));\n    }\n}",
  "sourcePath": "/Users/ianolson/code/fuzzyhat-contracts/contracts/FuzzyHat.sol",
  "compiler": {
    "name": "solc",
    "version": "0.8.0+commit.c7dfd78e.Emscripten.clang"
  },
  "schemaVersion": "3.3.4",
  "updatedAt": "2021-08-05T19:11:55.411Z",
  "devdoc": {
    "kind": "dev",
    "methods": {
      "approve(address,uint256)": {
        "details": "See {IERC721-approve}."
      },
      "balanceOf(address)": {
        "details": "See {IERC721-balanceOf}."
      },
      "getApproved(uint256)": {
        "details": "See {IERC721-getApproved}."
      },
      "isApprovedForAll(address,address)": {
        "details": "See {IERC721-isApprovedForAll}."
      },
      "name()": {
        "details": "See {IERC721Metadata-name}."
      },
      "ownerOf(uint256)": {
        "details": "See {IERC721-ownerOf}."
      },
      "safeTransferFrom(address,address,uint256)": {
        "details": "See {IERC721-safeTransferFrom}."
      },
      "safeTransferFrom(address,address,uint256,bytes)": {
        "details": "See {IERC721-safeTransferFrom}."
      },
      "setApprovalForAll(address,bool)": {
        "details": "See {IERC721-setApprovalForAll}."
      },
      "supportsInterface(bytes4)": {
        "details": "See {IERC165-supportsInterface}."
      },
      "symbol()": {
        "details": "See {IERC721Metadata-symbol}."
      },
      "tokenByIndex(uint256)": {
        "details": "See {IERC721Enumerable-tokenByIndex}."
      },
      "tokenOfOwnerByIndex(address,uint256)": {
        "details": "See {IERC721Enumerable-tokenOfOwnerByIndex}."
      },
      "tokenURI(uint256)": {
        "details": "See {IERC721Metadata-tokenURI}."
      },
      "totalSupply()": {
        "details": "See {IERC721Enumerable-totalSupply}."
      },
      "transferFrom(address,address,uint256)": {
        "details": "See {IERC721-transferFrom}."
      }
    },
    "version": 1
  },
  "userdoc": {
    "kind": "user",
    "methods": {},
    "version": 1
  }
}