{
  "contractName": "FuzzyHat",
  "abi": [
    {
      "inputs": [],
      "stateMutability": "nonpayable",
      "type": "constructor"
    },
    {
      "anonymous": false,
      "inputs": [
        {
          "indexed": true,
          "internalType": "address",
          "name": "owner",
          "type": "address"
        },
        {
          "indexed": true,
          "internalType": "address",
          "name": "approved",
          "type": "address"
        },
        {
          "indexed": true,
          "internalType": "uint256",
          "name": "tokenId",
          "type": "uint256"
        }
      ],
      "name": "Approval",
      "type": "event"
    },
    {
      "anonymous": false,
      "inputs": [
        {
          "indexed": true,
          "internalType": "address",
          "name": "owner",
          "type": "address"
        },
        {
          "indexed": true,
          "internalType": "address",
          "name": "operator",
          "type": "address"
        },
        {
          "indexed": false,
          "internalType": "bool",
          "name": "approved",
          "type": "bool"
        }
      ],
      "name": "ApprovalForAll",
      "type": "event"
    },
    {
      "anonymous": false,
      "inputs": [
        {
          "indexed": true,
          "internalType": "address",
          "name": "previousOwner",
          "type": "address"
        },
        {
          "indexed": true,
          "internalType": "address",
          "name": "newOwner",
          "type": "address"
        }
      ],
      "name": "OwnershipTransferred",
      "type": "event"
    },
    {
      "anonymous": false,
      "inputs": [
        {
          "indexed": false,
          "internalType": "string",
          "name": "_value",
          "type": "string"
        },
        {
          "indexed": true,
          "internalType": "uint256",
          "name": "_id",
          "type": "uint256"
        }
      ],
      "name": "PermanentURI",
      "type": "event"
    },
    {
      "anonymous": false,
      "inputs": [
        {
          "indexed": false,
          "internalType": "uint256",
          "name": "tokenId",
          "type": "uint256"
        },
        {
          "components": [
            {
              "internalType": "address payable",
              "name": "account",
              "type": "address"
            },
            {
              "internalType": "uint96",
              "name": "value",
              "type": "uint96"
            }
          ],
          "indexed": false,
          "internalType": "struct LibPart.Part[]",
          "name": "royalties",
          "type": "tuple[]"
        }
      ],
      "name": "RoyaltiesSet",
      "type": "event"
    },
    {
      "anonymous": false,
      "inputs": [
        {
          "indexed": true,
          "internalType": "address",
          "name": "from",
          "type": "address"
        },
        {
          "indexed": true,
          "internalType": "address",
          "name": "to",
          "type": "address"
        },
        {
          "indexed": true,
          "internalType": "uint256",
          "name": "tokenId",
          "type": "uint256"
        }
      ],
      "name": "Transfer",
      "type": "event"
    },
    {
      "inputs": [
        {
          "internalType": "address",
          "name": "to",
          "type": "address"
        },
        {
          "internalType": "uint256",
          "name": "tokenId",
          "type": "uint256"
        }
      ],
      "name": "approve",
      "outputs": [],
      "stateMutability": "nonpayable",
      "type": "function"
    },
    {
      "inputs": [
        {
          "internalType": "address",
          "name": "owner",
          "type": "address"
        }
      ],
      "name": "balanceOf",
      "outputs": [
        {
          "internalType": "uint256",
          "name": "",
          "type": "uint256"
        }
      ],
      "stateMutability": "view",
      "type": "function",
      "constant": true
    },
    {
      "inputs": [
        {
          "internalType": "uint256",
          "name": "tokenId",
          "type": "uint256"
        }
      ],
      "name": "getApproved",
      "outputs": [
        {
          "internalType": "address",
          "name": "",
          "type": "address"
        }
      ],
      "stateMutability": "view",
      "type": "function",
      "constant": true
    },
    {
      "inputs": [
        {
          "internalType": "address",
          "name": "owner",
          "type": "address"
        },
        {
          "internalType": "address",
          "name": "operator",
          "type": "address"
        }
      ],
      "name": "isApprovedForAll",
      "outputs": [
        {
          "internalType": "bool",
          "name": "",
          "type": "bool"
        }
      ],
      "stateMutability": "view",
      "type": "function",
      "constant": true
    },
    {
      "inputs": [],
      "name": "name",
      "outputs": [
        {
          "internalType": "string",
          "name": "",
          "type": "string"
        }
      ],
      "stateMutability": "view",
      "type": "function",
      "constant": true
    },
    {
      "inputs": [],
      "name": "nextTokenId",
      "outputs": [
        {
          "internalType": "uint256",
          "name": "",
          "type": "uint256"
        }
      ],
      "stateMutability": "view",
      "type": "function",
      "constant": true
    },
    {
      "inputs": [],
      "name": "owner",
      "outputs": [
        {
          "internalType": "address",
          "name": "",
          "type": "address"
        }
      ],
      "stateMutability": "view",
      "type": "function",
      "constant": true
    },
    {
      "inputs": [],
      "name": "ownerAddress",
      "outputs": [
        {
          "internalType": "address",
          "name": "",
          "type": "address"
        }
      ],
      "stateMutability": "view",
      "type": "function",
      "constant": true
    },
    {
      "inputs": [
        {
          "internalType": "uint256",
          "name": "tokenId",
          "type": "uint256"
        }
      ],
      "name": "ownerOf",
      "outputs": [
        {
          "internalType": "address",
          "name": "",
          "type": "address"
        }
      ],
      "stateMutability": "view",
      "type": "function",
      "constant": true
    },
    {
      "inputs": [],
      "name": "payoutAddress",
      "outputs": [
        {
          "internalType": "address",
          "name": "",
          "type": "address"
        }
      ],
      "stateMutability": "view",
      "type": "function",
      "constant": true
    },
    {
      "inputs": [],
      "name": "renounceOwnership",
      "outputs": [],
      "stateMutability": "nonpayable",
      "type": "function"
    },
    {
      "inputs": [],
      "name": "royaltyFeeBps",
      "outputs": [
        {
          "internalType": "uint256",
          "name": "",
          "type": "uint256"
        }
      ],
      "stateMutability": "view",
      "type": "function",
      "constant": true
    },
    {
      "inputs": [
        {
          "internalType": "address",
          "name": "from",
          "type": "address"
        },
        {
          "internalType": "address",
          "name": "to",
          "type": "address"
        },
        {
          "internalType": "uint256",
          "name": "tokenId",
          "type": "uint256"
        }
      ],
      "name": "safeTransferFrom",
      "outputs": [],
      "stateMutability": "nonpayable",
      "type": "function"
    },
    {
      "inputs": [
        {
          "internalType": "address",
          "name": "from",
          "type": "address"
        },
        {
          "internalType": "address",
          "name": "to",
          "type": "address"
        },
        {
          "internalType": "uint256",
          "name": "tokenId",
          "type": "uint256"
        },
        {
          "internalType": "bytes",
          "name": "_data",
          "type": "bytes"
        }
      ],
      "name": "safeTransferFrom",
      "outputs": [],
      "stateMutability": "nonpayable",
      "type": "function"
    },
    {
      "inputs": [
        {
          "internalType": "address",
          "name": "operator",
          "type": "address"
        },
        {
          "internalType": "bool",
          "name": "approved",
          "type": "bool"
        }
      ],
      "name": "setApprovalForAll",
      "outputs": [],
      "stateMutability": "nonpayable",
      "type": "function"
    },
    {
      "inputs": [],
      "name": "symbol",
      "outputs": [
        {
          "internalType": "string",
          "name": "",
          "type": "string"
        }
      ],
      "stateMutability": "view",
      "type": "function",
      "constant": true
    },
    {
      "inputs": [
        {
          "internalType": "uint256",
          "name": "index",
          "type": "uint256"
        }
      ],
      "name": "tokenByIndex",
      "outputs": [
        {
          "internalType": "uint256",
          "name": "",
          "type": "uint256"
        }
      ],
      "stateMutability": "view",
      "type": "function",
      "constant": true
    },
    {
      "inputs": [
        {
          "internalType": "address",
          "name": "owner",
          "type": "address"
        },
        {
          "internalType": "uint256",
          "name": "index",
          "type": "uint256"
        }
      ],
      "name": "tokenOfOwnerByIndex",
      "outputs": [
        {
          "internalType": "uint256",
          "name": "",
          "type": "uint256"
        }
      ],
      "stateMutability": "view",
      "type": "function",
      "constant": true
    },
    {
      "inputs": [],
      "name": "totalSupply",
      "outputs": [
        {
          "internalType": "uint256",
          "name": "",
          "type": "uint256"
        }
      ],
      "stateMutability": "view",
      "type": "function",
      "constant": true
    },
    {
      "inputs": [
        {
          "internalType": "address",
          "name": "from",
          "type": "address"
        },
        {
          "internalType": "address",
          "name": "to",
          "type": "address"
        },
        {
          "internalType": "uint256",
          "name": "tokenId",
          "type": "uint256"
        }
      ],
      "name": "transferFrom",
      "outputs": [],
      "stateMutability": "nonpayable",
      "type": "function"
    },
    {
      "inputs": [
        {
          "internalType": "address",
          "name": "newOwner",
          "type": "address"
        }
      ],
      "name": "transferOwnership",
      "outputs": [],
      "stateMutability": "nonpayable",
      "type": "function"
    },
    {
      "inputs": [
        {
          "internalType": "bytes4",
          "name": "interfaceId",
          "type": "bytes4"
        }
      ],
      "name": "supportsInterface",
      "outputs": [
        {
          "internalType": "bool",
          "name": "",
          "type": "bool"
        }
      ],
      "stateMutability": "view",
      "type": "function",
      "constant": true
    },
    {
      "inputs": [
        {
          "internalType": "string",
          "name": "metadataUri",
          "type": "string"
        }
      ],
      "name": "mintToken",
      "outputs": [
        {
          "internalType": "uint256",
          "name": "tokenId",
          "type": "uint256"
        }
      ],
      "stateMutability": "nonpayable",
      "type": "function"
    },
    {
      "inputs": [
        {
          "internalType": "uint256",
          "name": "tokenId",
          "type": "uint256"
        }
      ],
      "name": "burn",
      "outputs": [],
      "stateMutability": "nonpayable",
      "type": "function"
    },
    {
      "inputs": [
        {
          "internalType": "string",
          "name": "updatedContractUri",
          "type": "string"
        }
      ],
      "name": "updateContractUri",
      "outputs": [],
      "stateMutability": "nonpayable",
      "type": "function"
    },
    {
      "inputs": [
        {
          "internalType": "address",
          "name": "newPayoutAddress",
          "type": "address"
        }
      ],
      "name": "updatePayoutAddress",
      "outputs": [],
      "stateMutability": "nonpayable",
      "type": "function"
    },
    {
      "inputs": [
        {
          "internalType": "uint256",
          "name": "tokenId",
          "type": "uint256"
        },
        {
          "internalType": "string",
          "name": "metadataUri",
          "type": "string"
        },
        {
          "internalType": "bool",
          "name": "permanent",
          "type": "bool"
        }
      ],
      "name": "updateTokenMetadata",
      "outputs": [],
      "stateMutability": "nonpayable",
      "type": "function"
    },
    {
      "inputs": [
        {
          "internalType": "uint256",
          "name": "tokenId",
          "type": "uint256"
        }
      ],
      "name": "tokenURI",
      "outputs": [
        {
          "internalType": "string",
          "name": "",
          "type": "string"
        }
      ],
      "stateMutability": "view",
      "type": "function",
      "constant": true
    },
    {
      "inputs": [],
      "name": "contractURI",
      "outputs": [
        {
          "internalType": "string",
          "name": "",
          "type": "string"
        }
      ],
      "stateMutability": "view",
      "type": "function",
      "constant": true
    },
    {
      "inputs": [
        {
          "internalType": "address",
          "name": "walletAddress",
          "type": "address"
        }
      ],
      "name": "getTokensOfOwner",
      "outputs": [
        {
          "internalType": "uint256[]",
          "name": "tokenIds",
          "type": "uint256[]"
        }
      ],
      "stateMutability": "view",
      "type": "function",
      "constant": true
    },
    {
      "inputs": [
        {
          "internalType": "uint256",
          "name": "id",
          "type": "uint256"
        }
      ],
      "name": "getRaribleV2Royalties",
      "outputs": [
        {
          "components": [
            {
              "internalType": "address payable",
              "name": "account",
              "type": "address"
            },
            {
              "internalType": "uint96",
              "name": "value",
              "type": "uint96"
            }
          ],
          "internalType": "struct LibPart.Part[]",
          "name": "",
          "type": "tuple[]"
        }
      ],
      "stateMutability": "view",
      "type": "function",
      "constant": true
    },
    {
      "inputs": [
        {
          "internalType": "uint256",
          "name": "tokenId",
          "type": "uint256"
        },
        {
          "internalType": "uint256",
          "name": "salePrice",
          "type": "uint256"
        }
      ],
      "name": "royaltyInfo",
      "outputs": [
        {
          "internalType": "address",
          "name": "receiver",
          "type": "address"
        },
        {
          "internalType": "uint256",
          "name": "amount",
          "type": "uint256"
        }
      ],
      "stateMutability": "view",
      "type": "function",
      "constant": true
    }
  ],
  "bytecode": "0x60806040526001600c553480156200001657600080fd5b506040518060400160405280600c81526020017f46757a7a79486174204e465400000000000000000000000000000000000000008152506040518060400160405280600b81526020017f46555a5a594841544e4654000000000000000000000000000000000000000000815250620000af620000a062000110640100000000026401000000009004565b64010000000062000114810204565b8151620000c490600190602085019062000164565b508051620000da90600290602084019062000164565b5050336000818152600f60205260409020805460ff19166001179055600e8054600160a060020a03191690911790555062000260565b3390565b60008054600160a060020a03838116600160a060020a0319831681178455604051919092169283917f8be0079c531659141344cd1fd0a4f28419497f9722a3daafe3b4186f6b6457e09190a35050565b82805462000172906200020a565b90600052602060002090601f016020900481019282620001965760008555620001e1565b82601f10620001b157805160ff1916838001178555620001e1565b82800160010185558215620001e1579182015b82811115620001e1578251825591602001919060010190620001c4565b50620001ef929150620001f3565b5090565b5b80821115620001ef5760008155600101620001f4565b6002810460018216806200021f57607f821691505b602082108114156200025a577f4e487b7100000000000000000000000000000000000000000000000000000000600052602260045260246000fd5b50919050565b61267380620002706000396000f3fe608060405234801561001057600080fd5b506004361061020d576000357c0100000000000000000000000000000000000000000000000000000000900480636352211e1161012c57806395d89b41116100bf578063cad96cca1161008e578063cad96cca1461041d578063e8a3d4851461043d578063e985e9c514610445578063f2fde38b146104585761020d565b806395d89b41146103dc578063a22cb465146103e4578063b88d4fde146103f7578063c87b56dd1461040a5761020d565b806375794a3c116100fb57806375794a3c146103bc5780638da5cb5b146103c45780638f84aa09146103cc57806391192765146103d45761020d565b80636352211e1461037b5780636b7ad5c01461038e57806370a08231146103a1578063715018a6146103b45761020d565b806333eba49a116101a45780634f6ccce7116101735780634f6ccce71461032d57806356200819146103405780635b8d02d7146103535780635de6dc551461035b5761020d565b806333eba49a146102e157806342842e0e146102f457806342966c681461030757806347c8ff5e1461031a5761020d565b806318160ddd116101e057806318160ddd1461028557806323b872dd1461029a5780632a55205a146102ad5780632f745c59146102ce5761020d565b806301ffc9a71461021257806306fdde031461023b578063081812fc14610250578063095ea7b314610270575b600080fd5b610225610220366004611cb4565b61046b565b6040516102329190611f0b565b60405180910390f35b6102436105b5565b6040516102329190611f16565b61026361025e366004611d1f565b610647565b6040516102329190611df8565b61028361027e366004611c8b565b610696565b005b61028d610734565b6040516102329190612528565b6102836102a8366004611bae565b61073a565b6102c06102bb366004611d8c565b610775565b604051610232929190611e48565b61028d6102dc366004611c8b565b6107d2565b61028d6102ef366004611cec565b610827565b610283610302366004611bae565b6108ac565b610283610315366004611d1f565b6108c7565b610283610328366004611cec565b61093f565b61028d61033b366004611d1f565b610998565b61028361034e366004611b62565b6109f9565b610263610a6a565b61036e610369366004611b62565b610a79565b6040516102329190611ec7565b610263610389366004611d1f565b610b55565b61028361039c366004611d37565b610b8d565b61028d6103af366004611b62565b610c5d565b610283610ca4565b61028d610cf2565b610263610cf8565b610263610d07565b61028d610d16565b610243610d1c565b6102836103f2366004611c62565b610d2b565b610283610405366004611be9565b610dfc565b610243610418366004611d1f565b610e38565b61043061042b366004611d1f565b610f02565b6040516102329190611e61565b610243610fb8565b610225610453366004611b7c565b610fc7565b610283610466366004611b62565b610ff5565b6000600160e060020a031982167f01ffc9a70000000000000000000000000000000000000000000000000000000014806104ce5750600160e060020a031982167fcad96cca00000000000000000000000000000000000000000000000000000000145b806105025750600160e060020a031982167f80ac58cd00000000000000000000000000000000000000000000000000000000145b806105365750600160e060020a031982167f5b5e139f00000000000000000000000000000000000000000000000000000000145b8061056a5750600160e060020a031982167f780e9d6300000000000000000000000000000000000000000000000000000000145b8061059e5750600160e060020a031982167f2a55205a00000000000000000000000000000000000000000000000000000000145b806105ad57506105ad82611069565b90505b919050565b6060600180546105c4906125a2565b80601f01602080910402602001604051908101604052809291908181526020018280546105f0906125a2565b801561063d5780601f106106125761010080835404028352916020019161063d565b820191906000526020600020905b81548152906001019060200180831161062057829003601f168201915b5050505050905090565b6000610652826110a7565b61067a5760405160e560020a62461bcd028152600401610671906122eb565b60405180910390fd5b50600090815260056020526040902054600160a060020a031690565b60006106a182610b55565b905080600160a060020a031683600160a060020a031614156106d85760405160e560020a62461bcd028152600401610671906123da565b80600160a060020a03166106ea6110c4565b600160a060020a031614806107065750610706816104536110c4565b6107255760405160e560020a62461bcd0281526004016106719061219f565b61072f83836110c8565b505050565b60095490565b61074b6107456110c4565b82611143565b61076a5760405160e560020a62461bcd02815260040161067190612437565b61072f8383836111cb565b60008083610782816110a7565b6107a15760405160e560020a62461bcd028152600401610671906124f1565b60006107ba6107b2866101f461130b565b61271061131e565b600e54600160a060020a031697909650945050505050565b60006107dd83610c5d565b82106107fe5760405160e560020a62461bcd02815260040161067190611f29565b50600160a060020a03919091166000908152600760209081526040808320938352929052205490565b60006108316110c4565b600160a060020a0316610842610cf8565b600160a060020a03161461086b5760405160e560020a62461bcd02815260040161067190612348565b50600c5461087a81600161132a565b600c556108873382611336565b600081815260106020908152604090912083516108a6928501906119fc565b50919050565b61072f83838360405180602001604052806000815250610dfc565b6108cf6110c4565b600160a060020a03166108e0610cf8565b600160a060020a0316146109095760405160e560020a62461bcd02815260040161067190612348565b6109146107456110c4565b6109335760405160e560020a62461bcd0281526004016106719061210b565b61093c81611428565b50565b6109476110c4565b600160a060020a0316610958610cf8565b600160a060020a0316146109815760405160e560020a62461bcd02815260040161067190612348565b805161099490600d9060208401906119fc565b5050565b60006109a2610734565b82106109c35760405160e560020a62461bcd02815260040161067190612494565b600982815481106109e75760e060020a634e487b7102600052603260045260246000fd5b90600052602060002001549050919050565b610a016110c4565b600160a060020a0316610a12610cf8565b600160a060020a031614610a3b5760405160e560020a62461bcd02815260040161067190612348565b600e805473ffffffffffffffffffffffffffffffffffffffff1916600160a060020a0392909216919091179055565b600e54600160a060020a031681565b60606000610a8683610c5d565b905080610aa35760408051600081526020810190915291506108a6565b8067ffffffffffffffff811115610acd5760e060020a634e487b7102600052604160045260246000fd5b604051908082528060200260200182016040528015610af6578160200160208202803683370190505b50915060005b81811015610b4e57610b0e84826107d2565b838281518110610b315760e060020a634e487b7102600052603260045260246000fd5b602090810291909101015280610b46816125da565b915050610afc565b5050919050565b600081815260036020526040812054600160a060020a0316806105ad5760405160e560020a62461bcd02815260040161067190612259565b610b956110c4565b600160a060020a0316610ba6610cf8565b600160a060020a031614610bcf5760405160e560020a62461bcd02815260040161067190612348565b82610bd9816110a7565b610bf85760405160e560020a62461bcd028152600401610671906124f1565b60008481526010602090815260409091208451610c17928601906119fc565b508115610c5757837fa109ba539900bf1b633f956d63c96fc89b814c7287f7aa50a9216d0b5565720784604051610c4e9190611f16565b60405180910390a25b50505050565b6000600160a060020a038216610c885760405160e560020a62461bcd028152600401610671906121fc565b50600160a060020a031660009081526004602052604090205490565b610cac6110c4565b600160a060020a0316610cbd610cf8565b600160a060020a031614610ce65760405160e560020a62461bcd02815260040161067190612348565b610cf060006114dc565b565b600c5481565b600054600160a060020a031690565b600b54600160a060020a031681565b6101f481565b6060600280546105c4906125a2565b610d336110c4565b600160a060020a031682600160a060020a03161415610d675760405160e560020a62461bcd028152600401610671906120d4565b8060066000610d746110c4565b600160a060020a03908116825260208083019390935260409182016000908120918716808252919093529120805460ff191692151592909217909155610db86110c4565b600160a060020a03167f17307eab39ab6107e8899845ad3d59bd9653f200f220920489ca2b5937696c3183604051610df09190611f0b565b60405180910390a35050565b610e0d610e076110c4565b83611143565b610e2c5760405160e560020a62461bcd02815260040161067190612437565b610c5784848484611539565b606081610e44816110a7565b610e635760405160e560020a62461bcd028152600401610671906124f1565b60008381526010602052604090208054610e7c906125a2565b80601f0160208091040260200160405190810160405280929190818152602001828054610ea8906125a2565b8015610ef55780601f10610eca57610100808354040283529160200191610ef5565b820191906000526020600020905b815481529060010190602001808311610ed857829003601f168201915b5050505050915050919050565b606081610f0e816110a7565b610f2d5760405160e560020a62461bcd028152600401610671906124f1565b604080516001808252818301909252600091816020015b610f4c611a80565b815260200190600190039081610f4457505060408051808201909152600e54600160a060020a031681526101f460208201528151919250908290600090610fa65760e060020a634e487b7102600052603260045260246000fd5b60209081029190910101529392505050565b6060600d80546105c4906125a2565b600160a060020a03918216600090815260066020908152604080832093909416825291909152205460ff1690565b610ffd6110c4565b600160a060020a031661100e610cf8565b600160a060020a0316146110375760405160e560020a62461bcd02815260040161067190612348565b600160a060020a0381166110605760405160e560020a62461bcd02815260040161067190611fe3565b61093c816114dc565b6000600160e060020a031982167f780e9d630000000000000000000000000000000000000000000000000000000014806105ad57506105ad8261156f565b600090815260036020526040902054600160a060020a0316151590565b3390565b6000818152600560205260409020805473ffffffffffffffffffffffffffffffffffffffff1916600160a060020a038416908117909155819061110a82610b55565b600160a060020a03167f8c5be1e5ebec7d5bd14f71427d1e84f3dd0314c0f7b2291e5b200ac8c7c3b92560405160405180910390a45050565b600061114e826110a7565b61116d5760405160e560020a62461bcd02815260040161067190612142565b600061117883610b55565b905080600160a060020a031684600160a060020a031614806111b3575083600160a060020a03166111a884610647565b600160a060020a0316145b806111c357506111c38185610fc7565b949350505050565b82600160a060020a03166111de82610b55565b600160a060020a0316146112075760405160e560020a62461bcd0281526004016106719061237d565b600160a060020a0382166112305760405160e560020a62461bcd02815260040161067190612077565b61123b8383836115e1565b6112466000826110c8565b600160a060020a038316600090815260046020526040812080546001929061126f90849061258b565b9091555050600160a060020a038216600090815260046020526040812080546001929061129d908490612531565b9091555050600081815260036020526040808220805473ffffffffffffffffffffffffffffffffffffffff1916600160a060020a0386811691821790925591518493918716917fddf252ad1be2c89b69c2b068fc378daa952ba7f163c4a11628f55a4df523b3ef91a4505050565b6000611317828461256c565b9392505050565b60006113178284612549565b60006113178284612531565b600160a060020a03821661135f5760405160e560020a62461bcd028152600401610671906122b6565b611368816110a7565b156113885760405160e560020a62461bcd02815260040161067190612040565b611394600083836115e1565b600160a060020a03821660009081526004602052604081208054600192906113bd908490612531565b9091555050600081815260036020526040808220805473ffffffffffffffffffffffffffffffffffffffff1916600160a060020a03861690811790915590518392907fddf252ad1be2c89b69c2b068fc378daa952ba7f163c4a11628f55a4df523b3ef908290a45050565b600061143382610b55565b9050611441816000846115e1565b61144c6000836110c8565b600160a060020a038116600090815260046020526040812080546001929061147590849061258b565b9091555050600082815260036020526040808220805473ffffffffffffffffffffffffffffffffffffffff1916905551839190600160a060020a038416907fddf252ad1be2c89b69c2b068fc378daa952ba7f163c4a11628f55a4df523b3ef908390a45050565b60008054600160a060020a0383811673ffffffffffffffffffffffffffffffffffffffff19831681178455604051919092169283917f8be0079c531659141344cd1fd0a4f28419497f9722a3daafe3b4186f6b6457e09190a35050565b6115448484846111cb565b6115508484848461166a565b610c575760405160e560020a62461bcd02815260040161067190611f86565b6000600160e060020a031982167f80ac58cd0000000000000000000000000000000000000000000000000000000014806115d25750600160e060020a031982167f5b5e139f00000000000000000000000000000000000000000000000000000000145b806105ad57506105ad826117bd565b6115ec83838361072f565b600160a060020a03831661160857611603816117ef565b61162b565b81600160a060020a031683600160a060020a03161461162b5761162b8382611833565b600160a060020a03821661164757611642816118d0565b61072f565b82600160a060020a031682600160a060020a03161461072f5761072f82826119b2565b600061167e84600160a060020a03166119f6565b156117b25783600160a060020a031663150b7a0261169a6110c4565b8786866040518563ffffffff167c01000000000000000000000000000000000000000000000000000000000281526004016116d89493929190611e0c565b602060405180830381600087803b1580156116f257600080fd5b505af1925050508015611722575060408051601f3d908101601f1916820190925261171f91810190611cd0565b60015b61177f573d808015611750576040519150601f19603f3d011682016040523d82523d6000602084013e611755565b606091505b5080516117775760405160e560020a62461bcd02815260040161067190611f86565b805181602001fd5b600160e060020a0319167f150b7a02000000000000000000000000000000000000000000000000000000001490506111c3565b506001949350505050565b600160e060020a031981167f01ffc9a70000000000000000000000000000000000000000000000000000000014919050565b600980546000838152600a60205260408120829055600182018355919091527f6e1540171b6c0c960b71a7020d9f60077f6af931a8bbf590da0223dacf75c7af0155565b6000600161184084610c5d565b61184a919061258b565b60008381526008602052604090205490915080821461189d57600160a060020a03841660009081526007602090815260408083208584528252808320548484528184208190558352600890915290208190555b506000918252600860209081526040808420849055600160a060020a039094168352600781528383209183525290812055565b6009546000906118e29060019061258b565b6000838152600a60205260408120546009805493945090928490811061191b5760e060020a634e487b7102600052603260045260246000fd5b90600052602060002001549050806009838154811061194d5760e060020a634e487b7102600052603260045260246000fd5b6000918252602080832090910192909255828152600a909152604080822084905585825281205560098054806119965760e060020a634e487b7102600052603160045260246000fd5b6001900381819060005260206000200160009055905550505050565b60006119bd83610c5d565b600160a060020a039093166000908152600760209081526040808320868452825280832085905593825260089052919091209190915550565b3b151590565b828054611a08906125a2565b90600052602060002090601f016020900481019282611a2a5760008555611a70565b82601f10611a4357805160ff1916838001178555611a70565b82800160010185558215611a70579182015b82811115611a70578251825591602001919060010190611a55565b50611a7c929150611a97565b5090565b604080518082019091526000808252602082015290565b5b80821115611a7c5760008155600101611a98565b600067ffffffffffffffff80841115611ac757611ac761260e565b604051601f8501601f191681016020018281118282101715611aeb57611aeb61260e565b604052848152915081838501861015611b0357600080fd5b8484602083013760006020868301015250509392505050565b8035600160a060020a03811681146105b057600080fd5b803580151581146105b057600080fd5b600082601f830112611b53578081fd5b61131783833560208501611aac565b600060208284031215611b73578081fd5b61131782611b1c565b60008060408385031215611b8e578081fd5b611b9783611b1c565b9150611ba560208401611b1c565b90509250929050565b600080600060608486031215611bc2578081fd5b611bcb84611b1c565b9250611bd960208501611b1c565b9150604084013590509250925092565b60008060008060808587031215611bfe578081fd5b611c0785611b1c565b9350611c1560208601611b1c565b925060408501359150606085013567ffffffffffffffff811115611c37578182fd5b8501601f81018713611c47578182fd5b611c5687823560208401611aac565b91505092959194509250565b60008060408385031215611c74578182fd5b611c7d83611b1c565b9150611ba560208401611b33565b60008060408385031215611c9d578182fd5b611ca683611b1c565b946020939093013593505050565b600060208284031215611cc5578081fd5b813561131781612627565b600060208284031215611ce1578081fd5b815161131781612627565b600060208284031215611cfd578081fd5b813567ffffffffffffffff811115611d13578182fd5b6111c384828501611b43565b600060208284031215611d30578081fd5b5035919050565b600080600060608486031215611d4b578283fd5b83359250602084013567ffffffffffffffff811115611d68578283fd5b611d7486828701611b43565b925050611d8360408501611b33565b90509250925092565b60008060408385031215611d9e578182fd5b50508035926020909101359150565b60008151808452815b81811015611dd257602081850181015186830182015201611db6565b81811115611de35782602083870101525b50601f01601f19169290920160200192915050565b600160a060020a0391909116815260200190565b6000600160a060020a03808716835280861660208401525083604083015260806060830152611e3e6080830184611dad565b9695505050505050565b600160a060020a03929092168252602082015260400190565b602080825282518282018190526000919060409081850190868401855b82811015611eba5781518051600160a060020a031685528601516bffffffffffffffffffffffff16868501529284019290850190600101611e7e565b5091979650505050505050565b6020808252825182820181905260009190848201906040850190845b81811015611eff57835183529284019291840191600101611ee3565b50909695505050505050565b901515815260200190565b6000602082526113176020830184611dad565b6020808252602b908201527f455243373231456e756d657261626c653a206f776e657220696e646578206f7560408201527f74206f6620626f756e6473000000000000000000000000000000000000000000606082015260800190565b60208082526032908201527f4552433732313a207472616e7366657220746f206e6f6e20455243373231526560408201527f63656976657220696d706c656d656e7465720000000000000000000000000000606082015260800190565b60208082526026908201527f4f776e61626c653a206e6577206f776e657220697320746865207a65726f206160408201527f6464726573730000000000000000000000000000000000000000000000000000606082015260800190565b6020808252601c908201527f4552433732313a20746f6b656e20616c7265616479206d696e74656400000000604082015260600190565b60208082526024908201527f4552433732313a207472616e7366657220746f20746865207a65726f2061646460408201527f7265737300000000000000000000000000000000000000000000000000000000606082015260800190565b60208082526019908201527f4552433732313a20617070726f766520746f2063616c6c657200000000000000604082015260600190565b6020808252600c908201527f4f6e6c79206f776e6572732e0000000000000000000000000000000000000000604082015260600190565b6020808252602c908201527f4552433732313a206f70657261746f7220717565727920666f72206e6f6e657860408201527f697374656e7420746f6b656e0000000000000000000000000000000000000000606082015260800190565b60208082526038908201527f4552433732313a20617070726f76652063616c6c6572206973206e6f74206f7760408201527f6e6572206e6f7220617070726f76656420666f7220616c6c0000000000000000606082015260800190565b6020808252602a908201527f4552433732313a2062616c616e636520717565727920666f7220746865207a6560408201527f726f206164647265737300000000000000000000000000000000000000000000606082015260800190565b60208082526029908201527f4552433732313a206f776e657220717565727920666f72206e6f6e657869737460408201527f656e7420746f6b656e0000000000000000000000000000000000000000000000606082015260800190565b6020808252818101527f4552433732313a206d696e7420746f20746865207a65726f2061646472657373604082015260600190565b6020808252602c908201527f4552433732313a20617070726f76656420717565727920666f72206e6f6e657860408201527f697374656e7420746f6b656e0000000000000000000000000000000000000000606082015260800190565b6020808252818101527f4f776e61626c653a2063616c6c6572206973206e6f7420746865206f776e6572604082015260600190565b60208082526029908201527f4552433732313a207472616e73666572206f6620746f6b656e2074686174206960408201527f73206e6f74206f776e0000000000000000000000000000000000000000000000606082015260800190565b60208082526021908201527f4552433732313a20617070726f76616c20746f2063757272656e74206f776e6560408201527f7200000000000000000000000000000000000000000000000000000000000000606082015260800190565b60208082526031908201527f4552433732313a207472616e736665722063616c6c6572206973206e6f74206f60408201527f776e6572206e6f7220617070726f766564000000000000000000000000000000606082015260800190565b6020808252602c908201527f455243373231456e756d657261626c653a20676c6f62616c20696e646578206f60408201527f7574206f6620626f756e64730000000000000000000000000000000000000000606082015260800190565b60208082526018908201527f546f6b656e20494420646f6573206e6f742065786973742e0000000000000000604082015260600190565b90815260200190565b60008219821115612544576125446125f5565b500190565b6000826125675760e060020a634e487b710281526012600452602481fd5b500490565b6000816000190483118215151615612586576125866125f5565b500290565b60008282101561259d5761259d6125f5565b500390565b6002810460018216806125b657607f821691505b602082108114156108a65760e060020a634e487b7102600052602260045260246000fd5b60006000198214156125ee576125ee6125f5565b5060010190565b60e060020a634e487b7102600052601160045260246000fd5b60e060020a634e487b7102600052604160045260246000fd5b600160e060020a03198116811461093c57600080fdfea26469706673582212209eb6ef7d3f75dc630e45b439d0649e6e6051fe103c05f9a0d584e629d98c0c7864736f6c63430008000033",
  "immutableReferences": {},
  "source": "// SPDX-License-Identifier: MIT\n\n/*\n______                   _   _       _     _   _ ______ _____   \n|  ___|                 | | | |     | |   | \\ | ||  ___|_   _|  \n| |_ _   _ _________   _| |_| | __ _| |_  |  \\| || |_    | |___ \n|  _| | | |_  /_  / | | |  _  |/ _` | __| | . ` ||  _|   | / __|\n| | | |_| |/ / / /| |_| | | | | (_| | |_  | |\\  || |     | \\__ \\\n\\_|  \\__,_/___/___|\\__, \\_| |_/\\__,_|\\__| \\_| \\_/\\_|     \\_/___/\n                    __/ |                                       \n                   |___/                                        \n*/\n\npragma solidity ^0.8.0;\npragma abicoder v2;\n\nimport \"@openzeppelin/contracts/access/Ownable.sol\";\nimport \"@openzeppelin/contracts/token/ERC721/extensions/ERC721Enumerable.sol\";\nimport \"@openzeppelin/contracts/utils/math/SafeMath.sol\";\nimport \"./rarible/library/LibPart.sol\";\nimport \"./rarible/library/LibRoyaltiesV2.sol\";\nimport \"./rarible/RoyaltiesV2.sol\";\n\ncontract FuzzyHat is Ownable, ERC721Enumerable, RoyaltiesV2 {\n    using SafeMath for uint256;\n\n    // ---\n    // Constants\n    // ---\n    uint256 constant public royaltyFeeBps = 500; // 5%\n    bytes4 private constant _INTERFACE_ID_ERC165 = 0x01ffc9a7;\n    bytes4 private constant _INTERFACE_ID_ERC721 = 0x80ac58cd;\n    bytes4 private constant _INTERFACE_ID_ERC721_METADATA = 0x5b5e139f;\n    bytes4 private constant _INTERFACE_ID_ERC721_ENUMERABLE = 0x780e9d63;\n    bytes4 private constant _INTERFACE_ID_EIP2981 = 0x2a55205a;\n\n    // ---\n    // Properties\n    // ---\n    address public ownerAddress;\n    uint256 public nextTokenId = 1;\n    string private contractUri;\n    address public payoutAddress;\n\n    // ---\n    // Events\n    // ---\n    event PermanentURI(string _value, uint256 indexed _id); // OpenSea Freezing Metadata\n\n    // ---\n    // Mappings\n    // ---\n    mapping(address => bool) private isAdmin;\n    mapping(uint256 => string) private metadataByTokenId;\n\n    // ---\n    // Security\n    // ---\n\n    modifier onlyValidTokenId(uint256 tokenId) {\n        require(_exists(tokenId), \"Token ID does not exist.\");\n        _;\n    }\n\n    // ---\n    // Constructor\n    // ---\n    constructor() ERC721(\"FuzzyHat NFT\", \"FUZZYHATNFT\") {\n        isAdmin[msg.sender] = true;\n        payoutAddress = msg.sender;\n    }\n\n    // ---\n    // Supported Interfaces\n    // ---\n    function supportsInterface(bytes4 interfaceId) public view virtual override returns (bool) {\n        return interfaceId == _INTERFACE_ID_ERC165\n        || interfaceId == LibRoyaltiesV2._INTERFACE_ID_ROYALTIES\n        || interfaceId == _INTERFACE_ID_ERC721\n        || interfaceId == _INTERFACE_ID_ERC721_METADATA\n        || interfaceId == _INTERFACE_ID_ERC721_ENUMERABLE\n        || interfaceId == _INTERFACE_ID_EIP2981\n        || super.supportsInterface(interfaceId);\n    }\n\n    // ---\n    // Minting\n    // ---\n    function mintToken(string memory metadataUri) public onlyOwner returns (uint256 tokenId) {\n        tokenId = nextTokenId;\n        nextTokenId = nextTokenId.add(1);\n        _mint(msg.sender, tokenId);\n        metadataByTokenId[tokenId] = metadataUri;\n    }\n\n    // ---\n    // Burning\n    // ---\n    function burn(uint256 tokenId) public virtual onlyOwner {\n        //solhint-disable-next-line max-line-length\n        require(_isApprovedOrOwner(_msgSender(), tokenId), \"Only owners.\");\n        _burn(tokenId);\n    }\n\n    // ---\n    // Update Functions\n    // ---\n\n    function updateContractUri(string memory updatedContractUri) public onlyOwner {\n        contractUri = updatedContractUri;\n    }\n\n    function updatePayoutAddress(address newPayoutAddress) public onlyOwner {\n        payoutAddress = newPayoutAddress;\n    }\n\n    function updateTokenMetadata(uint256 tokenId, string memory metadataUri, bool permanent) public onlyOwner onlyValidTokenId(tokenId) {\n        metadataByTokenId[tokenId] = metadataUri;\n\n        if (permanent) {\n            emit PermanentURI(metadataUri, tokenId);\n        }\n    }\n\n    // ---\n    // Contract Retrieve Functions\n    // ---\n    \n    function tokenURI(uint256 tokenId) public view override virtual onlyValidTokenId(tokenId) returns (string memory) {\n        return metadataByTokenId[tokenId];\n    }\n\n    function contractURI() public view virtual returns (string memory) {\n        return contractUri;\n    }\n\n    function getTokensOfOwner(address walletAddress) public view returns (uint256[] memory tokenIds) {\n        uint256 tokenCount = balanceOf(walletAddress);\n\n        if (tokenCount == 0) {\n            tokenIds = new uint256[](0);\n        } else {\n            tokenIds = new uint256[](tokenCount);\n            uint256 index;\n            for (index = 0; index < tokenCount; index++) {\n                tokenIds[index] = tokenOfOwnerByIndex(walletAddress, index);\n            }\n        }\n\n        return tokenIds;\n    }\n\n    // ---\n    // Secondary Marketplace Functions\n    // ---\n\n    /* Rarible Royalties V2 */\n    function getRaribleV2Royalties(uint256 id) external view override onlyValidTokenId(id) returns (LibPart.Part[] memory) {\n        LibPart.Part[] memory royalties = new LibPart.Part[](1);\n        royalties[0] = LibPart.Part({\n            account: payable(payoutAddress),\n            value: uint96(royaltyFeeBps)\n        });\n\n        return royalties;\n    }\n\n    /* EIP-2981 */\n    function royaltyInfo(uint256 tokenId, uint256 salePrice) external view onlyValidTokenId(tokenId) returns (address receiver, uint256 amount) {\n        uint256 fivePercent = SafeMath.div(SafeMath.mul(salePrice, royaltyFeeBps), 10000);\n        return (payoutAddress, fivePercent);\n    }\n}",
  "sourcePath": "/Users/ianolson/code/fuzzyhat-contracts/contracts/FuzzyHat.sol",
  "compiler": {
    "name": "solc",
    "version": "0.8.0+commit.c7dfd78e.Emscripten.clang"
  },
  "schemaVersion": "3.3.4",
  "updatedAt": "2021-08-07T20:20:41.086Z",
  "networkType": "ethereum",
  "devdoc": {
    "kind": "dev",
    "methods": {
      "approve(address,uint256)": {
        "details": "See {IERC721-approve}."
      },
      "balanceOf(address)": {
        "details": "See {IERC721-balanceOf}."
      },
      "getApproved(uint256)": {
        "details": "See {IERC721-getApproved}."
      },
      "isApprovedForAll(address,address)": {
        "details": "See {IERC721-isApprovedForAll}."
      },
      "name()": {
        "details": "See {IERC721Metadata-name}."
      },
      "owner()": {
        "details": "Returns the address of the current owner."
      },
      "ownerOf(uint256)": {
        "details": "See {IERC721-ownerOf}."
      },
      "renounceOwnership()": {
        "details": "Leaves the contract without owner. It will not be possible to call `onlyOwner` functions anymore. Can only be called by the current owner. NOTE: Renouncing ownership will leave the contract without an owner, thereby removing any functionality that is only available to the owner."
      },
      "safeTransferFrom(address,address,uint256)": {
        "details": "See {IERC721-safeTransferFrom}."
      },
      "safeTransferFrom(address,address,uint256,bytes)": {
        "details": "See {IERC721-safeTransferFrom}."
      },
      "setApprovalForAll(address,bool)": {
        "details": "See {IERC721-setApprovalForAll}."
      },
      "supportsInterface(bytes4)": {
        "details": "See {IERC165-supportsInterface}."
      },
      "symbol()": {
        "details": "See {IERC721Metadata-symbol}."
      },
      "tokenByIndex(uint256)": {
        "details": "See {IERC721Enumerable-tokenByIndex}."
      },
      "tokenOfOwnerByIndex(address,uint256)": {
        "details": "See {IERC721Enumerable-tokenOfOwnerByIndex}."
      },
      "tokenURI(uint256)": {
        "details": "See {IERC721Metadata-tokenURI}."
      },
      "totalSupply()": {
        "details": "See {IERC721Enumerable-totalSupply}."
      },
      "transferFrom(address,address,uint256)": {
        "details": "See {IERC721-transferFrom}."
      },
      "transferOwnership(address)": {
        "details": "Transfers ownership of the contract to a new account (`newOwner`). Can only be called by the current owner."
      }
    },
    "version": 1
  },
  "userdoc": {
    "kind": "user",
    "methods": {},
    "version": 1
  }
}