{
  "contractName": "FuzzyHat",
  "abi": [
    {
      "inputs": [],
      "stateMutability": "nonpayable",
      "type": "constructor"
    },
    {
      "anonymous": false,
      "inputs": [
        {
          "indexed": true,
          "internalType": "address",
          "name": "owner",
          "type": "address"
        },
        {
          "indexed": true,
          "internalType": "address",
          "name": "approved",
          "type": "address"
        },
        {
          "indexed": true,
          "internalType": "uint256",
          "name": "tokenId",
          "type": "uint256"
        }
      ],
      "name": "Approval",
      "type": "event"
    },
    {
      "anonymous": false,
      "inputs": [
        {
          "indexed": true,
          "internalType": "address",
          "name": "owner",
          "type": "address"
        },
        {
          "indexed": true,
          "internalType": "address",
          "name": "operator",
          "type": "address"
        },
        {
          "indexed": false,
          "internalType": "bool",
          "name": "approved",
          "type": "bool"
        }
      ],
      "name": "ApprovalForAll",
      "type": "event"
    },
    {
      "anonymous": false,
      "inputs": [
        {
          "indexed": false,
          "internalType": "string",
          "name": "_value",
          "type": "string"
        },
        {
          "indexed": true,
          "internalType": "uint256",
          "name": "_id",
          "type": "uint256"
        }
      ],
      "name": "PermanentURI",
      "type": "event"
    },
    {
      "anonymous": false,
      "inputs": [
        {
          "indexed": true,
          "internalType": "address",
          "name": "from",
          "type": "address"
        },
        {
          "indexed": true,
          "internalType": "address",
          "name": "to",
          "type": "address"
        },
        {
          "indexed": true,
          "internalType": "uint256",
          "name": "tokenId",
          "type": "uint256"
        }
      ],
      "name": "Transfer",
      "type": "event"
    },
    {
      "inputs": [
        {
          "internalType": "address",
          "name": "to",
          "type": "address"
        },
        {
          "internalType": "uint256",
          "name": "tokenId",
          "type": "uint256"
        }
      ],
      "name": "approve",
      "outputs": [],
      "stateMutability": "nonpayable",
      "type": "function"
    },
    {
      "inputs": [
        {
          "internalType": "address",
          "name": "owner",
          "type": "address"
        }
      ],
      "name": "balanceOf",
      "outputs": [
        {
          "internalType": "uint256",
          "name": "",
          "type": "uint256"
        }
      ],
      "stateMutability": "view",
      "type": "function"
    },
    {
      "inputs": [
        {
          "internalType": "uint256",
          "name": "tokenId",
          "type": "uint256"
        }
      ],
      "name": "getApproved",
      "outputs": [
        {
          "internalType": "address",
          "name": "",
          "type": "address"
        }
      ],
      "stateMutability": "view",
      "type": "function"
    },
    {
      "inputs": [
        {
          "internalType": "address",
          "name": "owner",
          "type": "address"
        },
        {
          "internalType": "address",
          "name": "operator",
          "type": "address"
        }
      ],
      "name": "isApprovedForAll",
      "outputs": [
        {
          "internalType": "bool",
          "name": "",
          "type": "bool"
        }
      ],
      "stateMutability": "view",
      "type": "function"
    },
    {
      "inputs": [],
      "name": "name",
      "outputs": [
        {
          "internalType": "string",
          "name": "",
          "type": "string"
        }
      ],
      "stateMutability": "view",
      "type": "function"
    },
    {
      "inputs": [],
      "name": "nextTokenId",
      "outputs": [
        {
          "internalType": "uint256",
          "name": "",
          "type": "uint256"
        }
      ],
      "stateMutability": "view",
      "type": "function"
    },
    {
      "inputs": [],
      "name": "ownerAddress",
      "outputs": [
        {
          "internalType": "address",
          "name": "",
          "type": "address"
        }
      ],
      "stateMutability": "view",
      "type": "function"
    },
    {
      "inputs": [
        {
          "internalType": "uint256",
          "name": "tokenId",
          "type": "uint256"
        }
      ],
      "name": "ownerOf",
      "outputs": [
        {
          "internalType": "address",
          "name": "",
          "type": "address"
        }
      ],
      "stateMutability": "view",
      "type": "function"
    },
    {
      "inputs": [],
      "name": "payoutAddress",
      "outputs": [
        {
          "internalType": "address",
          "name": "",
          "type": "address"
        }
      ],
      "stateMutability": "view",
      "type": "function"
    },
    {
      "inputs": [],
      "name": "royaltyFeeBps",
      "outputs": [
        {
          "internalType": "uint16",
          "name": "",
          "type": "uint16"
        }
      ],
      "stateMutability": "view",
      "type": "function"
    },
    {
      "inputs": [
        {
          "internalType": "address",
          "name": "from",
          "type": "address"
        },
        {
          "internalType": "address",
          "name": "to",
          "type": "address"
        },
        {
          "internalType": "uint256",
          "name": "tokenId",
          "type": "uint256"
        }
      ],
      "name": "safeTransferFrom",
      "outputs": [],
      "stateMutability": "nonpayable",
      "type": "function"
    },
    {
      "inputs": [
        {
          "internalType": "address",
          "name": "from",
          "type": "address"
        },
        {
          "internalType": "address",
          "name": "to",
          "type": "address"
        },
        {
          "internalType": "uint256",
          "name": "tokenId",
          "type": "uint256"
        },
        {
          "internalType": "bytes",
          "name": "_data",
          "type": "bytes"
        }
      ],
      "name": "safeTransferFrom",
      "outputs": [],
      "stateMutability": "nonpayable",
      "type": "function"
    },
    {
      "inputs": [
        {
          "internalType": "address",
          "name": "operator",
          "type": "address"
        },
        {
          "internalType": "bool",
          "name": "approved",
          "type": "bool"
        }
      ],
      "name": "setApprovalForAll",
      "outputs": [],
      "stateMutability": "nonpayable",
      "type": "function"
    },
    {
      "inputs": [],
      "name": "symbol",
      "outputs": [
        {
          "internalType": "string",
          "name": "",
          "type": "string"
        }
      ],
      "stateMutability": "view",
      "type": "function"
    },
    {
      "inputs": [
        {
          "internalType": "uint256",
          "name": "index",
          "type": "uint256"
        }
      ],
      "name": "tokenByIndex",
      "outputs": [
        {
          "internalType": "uint256",
          "name": "",
          "type": "uint256"
        }
      ],
      "stateMutability": "view",
      "type": "function"
    },
    {
      "inputs": [
        {
          "internalType": "address",
          "name": "owner",
          "type": "address"
        },
        {
          "internalType": "uint256",
          "name": "index",
          "type": "uint256"
        }
      ],
      "name": "tokenOfOwnerByIndex",
      "outputs": [
        {
          "internalType": "uint256",
          "name": "",
          "type": "uint256"
        }
      ],
      "stateMutability": "view",
      "type": "function"
    },
    {
      "inputs": [],
      "name": "totalSupply",
      "outputs": [
        {
          "internalType": "uint256",
          "name": "",
          "type": "uint256"
        }
      ],
      "stateMutability": "view",
      "type": "function"
    },
    {
      "inputs": [
        {
          "internalType": "address",
          "name": "from",
          "type": "address"
        },
        {
          "internalType": "address",
          "name": "to",
          "type": "address"
        },
        {
          "internalType": "uint256",
          "name": "tokenId",
          "type": "uint256"
        }
      ],
      "name": "transferFrom",
      "outputs": [],
      "stateMutability": "nonpayable",
      "type": "function"
    },
    {
      "inputs": [
        {
          "internalType": "bytes4",
          "name": "interfaceId",
          "type": "bytes4"
        }
      ],
      "name": "supportsInterface",
      "outputs": [
        {
          "internalType": "bool",
          "name": "",
          "type": "bool"
        }
      ],
      "stateMutability": "view",
      "type": "function"
    },
    {
      "inputs": [
        {
          "internalType": "string",
          "name": "metadataUri",
          "type": "string"
        }
      ],
      "name": "mintToken",
      "outputs": [
        {
          "internalType": "uint256",
          "name": "tokenId",
          "type": "uint256"
        }
      ],
      "stateMutability": "nonpayable",
      "type": "function"
    },
    {
      "inputs": [
        {
          "internalType": "uint256",
          "name": "tokenId",
          "type": "uint256"
        }
      ],
      "name": "burn",
      "outputs": [],
      "stateMutability": "nonpayable",
      "type": "function"
    },
    {
      "inputs": [
        {
          "internalType": "address",
          "name": "addAddress",
          "type": "address"
        }
      ],
      "name": "addAdmin",
      "outputs": [],
      "stateMutability": "nonpayable",
      "type": "function"
    },
    {
      "inputs": [
        {
          "internalType": "address",
          "name": "removeAddress",
          "type": "address"
        }
      ],
      "name": "removeAdmin",
      "outputs": [],
      "stateMutability": "nonpayable",
      "type": "function"
    },
    {
      "inputs": [
        {
          "internalType": "string",
          "name": "updatedContractUri",
          "type": "string"
        }
      ],
      "name": "updateContractUri",
      "outputs": [],
      "stateMutability": "nonpayable",
      "type": "function"
    },
    {
      "inputs": [
        {
          "internalType": "address",
          "name": "newPayoutAddress",
          "type": "address"
        }
      ],
      "name": "updatePayoutAddress",
      "outputs": [],
      "stateMutability": "nonpayable",
      "type": "function"
    },
    {
      "inputs": [
        {
          "internalType": "uint256",
          "name": "tokenId",
          "type": "uint256"
        },
        {
          "internalType": "string",
          "name": "metadataUri",
          "type": "string"
        },
        {
          "internalType": "bool",
          "name": "permanent",
          "type": "bool"
        }
      ],
      "name": "updateTokenMetadata",
      "outputs": [],
      "stateMutability": "nonpayable",
      "type": "function"
    },
    {
      "inputs": [
        {
          "internalType": "uint256",
          "name": "tokenId",
          "type": "uint256"
        }
      ],
      "name": "tokenURI",
      "outputs": [
        {
          "internalType": "string",
          "name": "",
          "type": "string"
        }
      ],
      "stateMutability": "view",
      "type": "function"
    },
    {
      "inputs": [],
      "name": "contractURI",
      "outputs": [
        {
          "internalType": "string",
          "name": "",
          "type": "string"
        }
      ],
      "stateMutability": "view",
      "type": "function"
    },
    {
      "inputs": [
        {
          "internalType": "address",
          "name": "walletAddress",
          "type": "address"
        }
      ],
      "name": "getTokensOfOwner",
      "outputs": [
        {
          "internalType": "uint256[]",
          "name": "tokenIds",
          "type": "uint256[]"
        }
      ],
      "stateMutability": "view",
      "type": "function"
    },
    {
      "inputs": [],
      "name": "owner",
      "outputs": [
        {
          "internalType": "address",
          "name": "",
          "type": "address"
        }
      ],
      "stateMutability": "view",
      "type": "function"
    },
    {
      "inputs": [
        {
          "internalType": "uint256",
          "name": "tokenId",
          "type": "uint256"
        }
      ],
      "name": "getFeeRecipients",
      "outputs": [
        {
          "internalType": "address payable[]",
          "name": "",
          "type": "address[]"
        }
      ],
      "stateMutability": "view",
      "type": "function"
    },
    {
      "inputs": [
        {
          "internalType": "uint256",
          "name": "tokenId",
          "type": "uint256"
        }
      ],
      "name": "getFeeBps",
      "outputs": [
        {
          "internalType": "uint256[]",
          "name": "",
          "type": "uint256[]"
        }
      ],
      "stateMutability": "view",
      "type": "function"
    },
    {
      "inputs": [
        {
          "internalType": "uint256",
          "name": "_tokenId",
          "type": "uint256"
        },
        {
          "internalType": "uint256",
          "name": "_salePrice",
          "type": "uint256"
        }
      ],
      "name": "royaltyInfo",
      "outputs": [
        {
          "internalType": "address",
          "name": "receiver",
          "type": "address"
        },
        {
          "internalType": "uint256",
          "name": "amount",
          "type": "uint256"
        }
      ],
      "stateMutability": "view",
      "type": "function"
    }
  ],
  "bytecode": "0x60806040526001600b553480156200001657600080fd5b50604080518082018252600c81527f46757a7a79486174204e4654000000000000000000000000000000000000000060208083019182528351808501909452600b84527f46555a5a594841544e46540000000000000000000000000000000000000000009084015281519192916200009191600091620000eb565b508051620000a7906001906020840190620000eb565b5050600a805433600160a060020a031991821681179092556000828152600e60205260409020805460ff19166001179055600d8054909116909117905550620001e7565b828054620000f99062000191565b90600052602060002090601f0160209004810192826200011d576000855562000168565b82601f106200013857805160ff191683800117855562000168565b8280016001018555821562000168579182015b82811115620001685782518255916020019190600101906200014b565b50620001769291506200017a565b5090565b5b808211156200017657600081556001016200017b565b600281046001821680620001a657607f821691505b60208210811415620001e1577f4e487b7100000000000000000000000000000000000000000000000000000000600052602260045260246000fd5b50919050565b61241e80620001f76000396000f3fe608060405234801561001057600080fd5b5060043610610218576000357c0100000000000000000000000000000000000000000000000000000000900480635b8d02d7116101375780638f84aa09116100ca578063b88d4fde11610099578063b88d4fde14610440578063b9c4d9fb14610453578063c87b56dd14610473578063e8a3d48514610486578063e985e9c51461048e57610218565b80638f84aa0914610408578063911927651461041057806395d89b4114610425578063a22cb4651461042d57610218565b8063704802751161010657806370480275146103d257806370a08231146103e557806375794a3c146103f85780638da5cb5b1461040057610218565b80635b8d02d7146103915780635de6dc55146103995780636352211e146103ac5780636b7ad5c0146103bf57610218565b80632a55205a116101af57806342966c681161017e57806342966c681461034557806347c8ff5e146103585780634f6ccce71461036b578063562008191461037e57610218565b80632a55205a146102eb5780632f745c591461030c57806333eba49a1461031f57806342842e0e1461033257610218565b80630ebd4c7f116101eb5780630ebd4c7f146102905780631785f53c146102b057806318160ddd146102c357806323b872dd146102d857610218565b806301ffc9a71461021d57806306fdde0314610246578063081812fc1461025b578063095ea7b31461027b575b600080fd5b61023061022b366004611ad0565b6104a1565b60405161023d9190611d02565b60405180910390f35b61024e610520565b60405161023d9190611d0d565b61026e610269366004611b3b565b6105b2565b60405161023d9190611c14565b61028e610289366004611aa7565b610601565b005b6102a361029e366004611b3b565b61069f565b60405161023d9190611cca565b61028e6102be36600461197e565b61072b565b6102cb61077e565b60405161023d91906122d3565b61028e6102e63660046119ca565b610784565b6102fe6102f9366004611ba8565b6107bf565b60405161023d929190611c64565b6102cb61031a366004611aa7565b61081a565b6102cb61032d366004611b08565b61086f565b61028e6103403660046119ca565b6108dc565b61028e610353366004611b3b565b6108f7565b61028e610366366004611b08565b61095f565b6102cb610379366004611b3b565b6109a8565b61028e61038c36600461197e565b610a09565b61026e610a6a565b6102a36103a736600461197e565b610a79565b61026e6103ba366004611b3b565b610b55565b61028e6103cd366004611b53565b610b93565b61028e6103e036600461197e565b610c53565b6102cb6103f336600461197e565b610ca9565b6102cb610cf0565b61026e610cf6565b61026e610d05565b610418610d14565b60405161023d91906122c4565b61024e610d1a565b61028e61043b366004611a7e565b610d29565b61028e61044e366004611a05565b610dfa565b610466610461366004611b3b565b610e36565b60405161023d9190611c7d565b61024e610481366004611b3b565b610ed4565b61024e610f9e565b61023061049c366004611998565b610fad565b6000600160e060020a031982167f01ffc9a70000000000000000000000000000000000000000000000000000000014156104dd5750600161051b565b600160e060020a031982167f2a55205a0000000000000000000000000000000000000000000000000000000014156105175750600161051b565b5060005b919050565b60606000805461052f9061234d565b80601f016020809104026020016040519081016040528092919081815260200182805461055b9061234d565b80156105a85780601f1061057d576101008083540402835291602001916105a8565b820191906000526020600020905b81548152906001019060200180831161058b57829003601f168201915b5050505050905090565b60006105bd82610fdb565b6105e55760405160e560020a62461bcd0281526004016105dc90612085565b60405180910390fd5b50600090815260046020526040902054600160a060020a031690565b600061060c82610b55565b905080600160a060020a031683600160a060020a031614156106435760405160e560020a62461bcd0281526004016105dc90612176565b80600160a060020a0316610655610ff8565b600160a060020a0316148061067157506106718161049c610ff8565b6106905760405160e560020a62461bcd0281526004016105dc90611f39565b61069a8383610ffc565b505050565b6060816106ab81610fdb565b6106ca5760405160e560020a62461bcd0281526004016105dc9061228d565b604080516001808252818301909252600091602080830190803683370190505090506103e861ffff16816000815181106107175760e060020a634e487b7102600052603260045260246000fd5b602090810291909101015291505b50919050565b336000908152600e602052604090205460ff1661075d5760405160e560020a62461bcd0281526004016105dc9061213f565b600160a060020a03166000908152600e60205260409020805460ff19169055565b60085490565b61079561078f610ff8565b82611077565b6107b45760405160e560020a62461bcd0281526004016105dc906121d3565b61069a8383836110ff565b600080836107cc81610fdb565b6107eb5760405160e560020a62461bcd0281526004016105dc9061228d565b600d54600160a060020a031661080e6103e861080887606461123f565b90611252565b92509250509250929050565b600061082583610ca9565b82106108465760405160e560020a62461bcd0281526004016105dc90611d20565b50600160a060020a03919091166000908152600660209081526040808320938352929052205490565b336000908152600e602052604081205460ff166108a15760405160e560020a62461bcd0281526004016105dc9061213f565b50600b546108b081600161125e565b600b556108bd338261126a565b6000818152600f6020908152604090912083516107259285019061182f565b61069a83838360405180602001604052806000815250610dfa565b336000908152600e602052604090205460ff166109295760405160e560020a62461bcd0281526004016105dc9061213f565b61093461078f610ff8565b6109535760405160e560020a62461bcd0281526004016105dc90611ea5565b61095c8161135c565b50565b336000908152600e602052604090205460ff166109915760405160e560020a62461bcd0281526004016105dc9061213f565b80516109a490600c90602084019061182f565b5050565b60006109b261077e565b82106109d35760405160e560020a62461bcd0281526004016105dc90612230565b600882815481106109f75760e060020a634e487b7102600052603260045260246000fd5b90600052602060002001549050919050565b336000908152600e602052604090205460ff16610a3b5760405160e560020a62461bcd0281526004016105dc9061213f565b600d805473ffffffffffffffffffffffffffffffffffffffff1916600160a060020a0392909216919091179055565b600d54600160a060020a031681565b60606000610a8683610ca9565b905080610aa3576040805160008152602081019091529150610725565b8067ffffffffffffffff811115610acd5760e060020a634e487b7102600052604160045260246000fd5b604051908082528060200260200182016040528015610af6578160200160208202803683370190505b50915060005b81811015610b4e57610b0e848261081a565b838281518110610b315760e060020a634e487b7102600052603260045260246000fd5b602090810291909101015280610b4681612385565b915050610afc565b5050919050565b600081815260026020526040812054600160a060020a031680610b8d5760405160e560020a62461bcd0281526004016105dc90611ff3565b92915050565b336000908152600e602052604090205460ff16610bc55760405160e560020a62461bcd0281526004016105dc9061213f565b82610bcf81610fdb565b610bee5760405160e560020a62461bcd0281526004016105dc9061228d565b6000848152600f602090815260409091208451610c0d9286019061182f565b508115610c4d57837fa109ba539900bf1b633f956d63c96fc89b814c7287f7aa50a9216d0b5565720784604051610c449190611d0d565b60405180910390a25b50505050565b336000908152600e602052604090205460ff16610c855760405160e560020a62461bcd0281526004016105dc9061213f565b600160a060020a03166000908152600e60205260409020805460ff19166001179055565b6000600160a060020a038216610cd45760405160e560020a62461bcd0281526004016105dc90611f96565b50600160a060020a031660009081526003602052604090205490565b600b5481565b600a54600160a060020a031690565b600a54600160a060020a031681565b6103e881565b60606001805461052f9061234d565b610d31610ff8565b600160a060020a031682600160a060020a03161415610d655760405160e560020a62461bcd0281526004016105dc90611e6e565b8060056000610d72610ff8565b600160a060020a03908116825260208083019390935260409182016000908120918716808252919093529120805460ff191692151592909217909155610db6610ff8565b600160a060020a03167f17307eab39ab6107e8899845ad3d59bd9653f200f220920489ca2b5937696c3183604051610dee9190611d02565b60405180910390a35050565b610e0b610e05610ff8565b83611077565b610e2a5760405160e560020a62461bcd0281526004016105dc906121d3565b610c4d84848484611410565b606081610e4281610fdb565b610e615760405160e560020a62461bcd0281526004016105dc9061228d565b604080516001808252818301909252600091602080830190803683375050600d548251929350600160a060020a031691839150600090610eb45760e060020a634e487b7102600052603260045260246000fd5b600160a060020a0390921660209283029190910190910152915050919050565b606081610ee081610fdb565b610eff5760405160e560020a62461bcd0281526004016105dc9061228d565b6000838152600f602052604090208054610f189061234d565b80601f0160208091040260200160405190810160405280929190818152602001828054610f449061234d565b8015610f915780601f10610f6657610100808354040283529160200191610f91565b820191906000526020600020905b815481529060010190602001808311610f7457829003601f168201915b5050505050915050919050565b6060600c805461052f9061234d565b600160a060020a03918216600090815260056020908152604080832093909416825291909152205460ff1690565b600090815260026020526040902054600160a060020a0316151590565b3390565b6000818152600460205260409020805473ffffffffffffffffffffffffffffffffffffffff1916600160a060020a038416908117909155819061103e82610b55565b600160a060020a03167f8c5be1e5ebec7d5bd14f71427d1e84f3dd0314c0f7b2291e5b200ac8c7c3b92560405160405180910390a45050565b600061108282610fdb565b6110a15760405160e560020a62461bcd0281526004016105dc90611edc565b60006110ac83610b55565b905080600160a060020a031684600160a060020a031614806110e7575083600160a060020a03166110dc846105b2565b600160a060020a0316145b806110f757506110f78185610fad565b949350505050565b82600160a060020a031661111282610b55565b600160a060020a03161461113b5760405160e560020a62461bcd0281526004016105dc906120e2565b600160a060020a0382166111645760405160e560020a62461bcd0281526004016105dc90611e11565b61116f838383611446565b61117a600082610ffc565b600160a060020a03831660009081526003602052604081208054600192906111a3908490612336565b9091555050600160a060020a03821660009081526003602052604081208054600192906111d19084906122dc565b9091555050600081815260026020526040808220805473ffffffffffffffffffffffffffffffffffffffff1916600160a060020a0386811691821790925591518493918716917fddf252ad1be2c89b69c2b068fc378daa952ba7f163c4a11628f55a4df523b3ef91a4505050565b600061124b82846122f4565b9392505050565b600061124b8284612317565b600061124b82846122dc565b600160a060020a0382166112935760405160e560020a62461bcd0281526004016105dc90612050565b61129c81610fdb565b156112bc5760405160e560020a62461bcd0281526004016105dc90611dda565b6112c860008383611446565b600160a060020a03821660009081526003602052604081208054600192906112f19084906122dc565b9091555050600081815260026020526040808220805473ffffffffffffffffffffffffffffffffffffffff1916600160a060020a03861690811790915590518392907fddf252ad1be2c89b69c2b068fc378daa952ba7f163c4a11628f55a4df523b3ef908290a45050565b600061136782610b55565b905061137581600084611446565b611380600083610ffc565b600160a060020a03811660009081526003602052604081208054600192906113a9908490612336565b9091555050600082815260026020526040808220805473ffffffffffffffffffffffffffffffffffffffff1916905551839190600160a060020a038416907fddf252ad1be2c89b69c2b068fc378daa952ba7f163c4a11628f55a4df523b3ef908390a45050565b61141b8484846110ff565b611427848484846114cf565b610c4d5760405160e560020a62461bcd0281526004016105dc90611d7d565b61145183838361069a565b600160a060020a03831661146d5761146881611622565b611490565b81600160a060020a031683600160a060020a031614611490576114908382611666565b600160a060020a0382166114ac576114a781611703565b61069a565b82600160a060020a031682600160a060020a03161461069a5761069a82826117e5565b60006114e384600160a060020a0316611829565b156116175783600160a060020a031663150b7a026114ff610ff8565b8786866040518563ffffffff167c010000000000000000000000000000000000000000000000000000000002815260040161153d9493929190611c28565b602060405180830381600087803b15801561155757600080fd5b505af1925050508015611587575060408051601f3d908101601f1916820190925261158491810190611aec565b60015b6115e4573d8080156115b5576040519150601f19603f3d011682016040523d82523d6000602084013e6115ba565b606091505b5080516115dc5760405160e560020a62461bcd0281526004016105dc90611d7d565b805181602001fd5b600160e060020a0319167f150b7a02000000000000000000000000000000000000000000000000000000001490506110f7565b506001949350505050565b600880546000838152600960205260408120829055600182018355919091527ff3f7a9fe364faab93b216da50a3214154f22a0a2b415b23a84c8169e8b636ee30155565b6000600161167384610ca9565b61167d9190612336565b6000838152600760205260409020549091508082146116d057600160a060020a03841660009081526006602090815260408083208584528252808320548484528184208190558352600790915290208190555b506000918252600760209081526040808420849055600160a060020a039094168352600681528383209183525290812055565b60085460009061171590600190612336565b6000838152600960205260408120546008805493945090928490811061174e5760e060020a634e487b7102600052603260045260246000fd5b9060005260206000200154905080600883815481106117805760e060020a634e487b7102600052603260045260246000fd5b60009182526020808320909101929092558281526009909152604080822084905585825281205560088054806117c95760e060020a634e487b7102600052603160045260246000fd5b6001900381819060005260206000200160009055905550505050565b60006117f083610ca9565b600160a060020a039093166000908152600660209081526040808320868452825280832085905593825260079052919091209190915550565b3b151590565b82805461183b9061234d565b90600052602060002090601f01602090048101928261185d57600085556118a3565b82601f1061187657805160ff19168380011785556118a3565b828001600101855582156118a3579182015b828111156118a3578251825591602001919060010190611888565b506118af9291506118b3565b5090565b5b808211156118af57600081556001016118b4565b600067ffffffffffffffff808411156118e3576118e36123b9565b604051601f8501601f191681016020018281118282101715611907576119076123b9565b60405284815291508183850186101561191f57600080fd5b8484602083013760006020868301015250509392505050565b8035600160a060020a038116811461051b57600080fd5b8035801515811461051b57600080fd5b600082601f83011261196f578081fd5b61124b838335602085016118c8565b60006020828403121561198f578081fd5b61124b82611938565b600080604083850312156119aa578081fd5b6119b383611938565b91506119c160208401611938565b90509250929050565b6000806000606084860312156119de578081fd5b6119e784611938565b92506119f560208501611938565b9150604084013590509250925092565b60008060008060808587031215611a1a578081fd5b611a2385611938565b9350611a3160208601611938565b925060408501359150606085013567ffffffffffffffff811115611a53578182fd5b8501601f81018713611a63578182fd5b611a72878235602084016118c8565b91505092959194509250565b60008060408385031215611a90578182fd5b611a9983611938565b91506119c16020840161194f565b60008060408385031215611ab9578182fd5b611ac283611938565b946020939093013593505050565b600060208284031215611ae1578081fd5b813561124b816123d2565b600060208284031215611afd578081fd5b815161124b816123d2565b600060208284031215611b19578081fd5b813567ffffffffffffffff811115611b2f578182fd5b6110f78482850161195f565b600060208284031215611b4c578081fd5b5035919050565b600080600060608486031215611b67578283fd5b83359250602084013567ffffffffffffffff811115611b84578283fd5b611b908682870161195f565b925050611b9f6040850161194f565b90509250925092565b60008060408385031215611bba578182fd5b50508035926020909101359150565b60008151808452815b81811015611bee57602081850181015186830182015201611bd2565b81811115611bff5782602083870101525b50601f01601f19169290920160200192915050565b600160a060020a0391909116815260200190565b6000600160a060020a03808716835280861660208401525083604083015260806060830152611c5a6080830184611bc9565b9695505050505050565b600160a060020a03929092168252602082015260400190565b6020808252825182820181905260009190848201906040850190845b81811015611cbe578351600160a060020a031683529284019291840191600101611c99565b50909695505050505050565b6020808252825182820181905260009190848201906040850190845b81811015611cbe57835183529284019291840191600101611ce6565b901515815260200190565b60006020825261124b6020830184611bc9565b6020808252602b908201527f455243373231456e756d657261626c653a206f776e657220696e646578206f7560408201527f74206f6620626f756e6473000000000000000000000000000000000000000000606082015260800190565b60208082526032908201527f4552433732313a207472616e7366657220746f206e6f6e20455243373231526560408201527f63656976657220696d706c656d656e7465720000000000000000000000000000606082015260800190565b6020808252601c908201527f4552433732313a20746f6b656e20616c7265616479206d696e74656400000000604082015260600190565b60208082526024908201527f4552433732313a207472616e7366657220746f20746865207a65726f2061646460408201527f7265737300000000000000000000000000000000000000000000000000000000606082015260800190565b60208082526019908201527f4552433732313a20617070726f766520746f2063616c6c657200000000000000604082015260600190565b6020808252600c908201527f4f6e6c79206f776e6572732e0000000000000000000000000000000000000000604082015260600190565b6020808252602c908201527f4552433732313a206f70657261746f7220717565727920666f72206e6f6e657860408201527f697374656e7420746f6b656e0000000000000000000000000000000000000000606082015260800190565b60208082526038908201527f4552433732313a20617070726f76652063616c6c6572206973206e6f74206f7760408201527f6e6572206e6f7220617070726f76656420666f7220616c6c0000000000000000606082015260800190565b6020808252602a908201527f4552433732313a2062616c616e636520717565727920666f7220746865207a6560408201527f726f206164647265737300000000000000000000000000000000000000000000606082015260800190565b60208082526029908201527f4552433732313a206f776e657220717565727920666f72206e6f6e657869737460408201527f656e7420746f6b656e0000000000000000000000000000000000000000000000606082015260800190565b6020808252818101527f4552433732313a206d696e7420746f20746865207a65726f2061646472657373604082015260600190565b6020808252602c908201527f4552433732313a20617070726f76656420717565727920666f72206e6f6e657860408201527f697374656e7420746f6b656e0000000000000000000000000000000000000000606082015260800190565b60208082526029908201527f4552433732313a207472616e73666572206f6620746f6b656e2074686174206960408201527f73206e6f74206f776e0000000000000000000000000000000000000000000000606082015260800190565b6020808252600c908201527f4f6e6c792061646d696e732e0000000000000000000000000000000000000000604082015260600190565b60208082526021908201527f4552433732313a20617070726f76616c20746f2063757272656e74206f776e6560408201527f7200000000000000000000000000000000000000000000000000000000000000606082015260800190565b60208082526031908201527f4552433732313a207472616e736665722063616c6c6572206973206e6f74206f60408201527f776e6572206e6f7220617070726f766564000000000000000000000000000000606082015260800190565b6020808252602c908201527f455243373231456e756d657261626c653a20676c6f62616c20696e646578206f60408201527f7574206f6620626f756e64730000000000000000000000000000000000000000606082015260800190565b60208082526018908201527f546f6b656e20494420646f6573206e6f742065786973742e0000000000000000604082015260600190565b61ffff91909116815260200190565b90815260200190565b600082198211156122ef576122ef6123a0565b500190565b6000826123125760e060020a634e487b710281526012600452602481fd5b500490565b6000816000190483118215151615612331576123316123a0565b500290565b600082821015612348576123486123a0565b500390565b60028104600182168061236157607f821691505b602082108114156107255760e060020a634e487b7102600052602260045260246000fd5b6000600019821415612399576123996123a0565b5060010190565b60e060020a634e487b7102600052601160045260246000fd5b60e060020a634e487b7102600052604160045260246000fd5b600160e060020a03198116811461095c57600080fdfea26469706673582212205396a034c69bfcdd85dc6cdcac3a1c5d8b06e5a98017d824bddcfab7005cdbbc64736f6c63430008000033",
  "immutableReferences": {},
  "source": "// SPDX-License-Identifier: MIT\npragma solidity ^0.8.0;\n\nimport \"@openzeppelin/contracts/token/ERC721/extensions/ERC721Enumerable.sol\";\nimport \"@openzeppelin/contracts/utils/math/SafeMath.sol\";\n\ncontract FuzzyHat is ERC721Enumerable {\n    using SafeMath for uint256;\n\n    // ---\n    // Constants\n    // ---\n    uint16 constant public royaltyFeeBps = 1000; // 10%\n    bytes4 private constant _INTERFACE_ID_ERC2981 = 0x2a55205a;\n\n    // ---\n    // Properties\n    // ---\n    address public ownerAddress;\n    uint256 public nextTokenId = 1;\n    string private contractUri;\n    address public payoutAddress;\n\n    // ---\n    // Events\n    // ---\n    event PermanentURI(string _value, uint256 indexed _id); // OpenSea Freezing Metadata\n\n    // ---\n    // Mappings\n    // ---\n    mapping(address => bool) private isAdmin;\n    mapping(uint256 => string) private metadataByTokenId;\n\n    // ---\n    // Security\n    // ---\n    modifier onlyAdmin() {\n        require(isAdmin[msg.sender], \"Only admins.\");\n        _;\n    }\n\n    modifier onlyValidTokenId(uint256 tokenId) {\n        require(_exists(tokenId), \"Token ID does not exist.\");\n        _;\n    }\n\n    // ---\n    // Constructor\n    // ---\n    constructor() ERC721(\"FuzzyHat NFT\", \"FUZZYHATNFT\") {\n        ownerAddress = msg.sender;\n        isAdmin[msg.sender] = true;\n        payoutAddress = msg.sender;\n        // @TODO(iolson): Setup default contract URI data.\n    }\n\n    // ---\n    // Supported Interfaces\n    // ---\n    function supportsInterface(bytes4 interfaceId) public view virtual override returns (bool) {\n        if (interfaceId == type(IERC165).interfaceId) {\n            return true;\n        }\n\n        if (interfaceId == _INTERFACE_ID_ERC2981) {\n            return true;\n        }\n\n        return false;\n    }\n\n    // ---\n    // Minting\n    // ---\n    function mintToken(string memory metadataUri) public onlyAdmin returns (uint256 tokenId) {\n        tokenId = nextTokenId;\n        nextTokenId = nextTokenId.add(1);\n        _mint(msg.sender, tokenId);\n        metadataByTokenId[tokenId] = metadataUri;\n    }\n\n    // ---\n    // Burning\n    // ---\n    function burn(uint256 tokenId) public virtual onlyAdmin {\n        //solhint-disable-next-line max-line-length\n        require(_isApprovedOrOwner(_msgSender(), tokenId), \"Only owners.\");\n        _burn(tokenId);\n    }\n\n    // ---\n    // Update Functions\n    // ---\n    \n    function addAdmin(address addAddress) public onlyAdmin {\n        isAdmin[addAddress] = true;\n    }\n\n    function removeAdmin(address removeAddress) public onlyAdmin {\n        isAdmin[removeAddress] = false;\n    }\n\n    function updateContractUri(string memory updatedContractUri) public onlyAdmin {\n        contractUri = updatedContractUri;\n    }\n\n    function updatePayoutAddress(address newPayoutAddress) public onlyAdmin {\n        payoutAddress = newPayoutAddress;\n    }\n\n    function updateTokenMetadata(uint256 tokenId, string memory metadataUri, bool permanent) public onlyAdmin onlyValidTokenId(tokenId) {\n        metadataByTokenId[tokenId] = metadataUri;\n\n        if (permanent) {\n            emit PermanentURI(metadataUri, tokenId);\n        }\n    }\n\n    // ---\n    // Contract Retrieve Functions\n    // ---\n    \n    function tokenURI(uint256 tokenId) public view override virtual onlyValidTokenId(tokenId) returns (string memory) {\n        return metadataByTokenId[tokenId];\n    }\n\n    function contractURI() public view virtual returns (string memory) {\n        return contractUri;\n    }\n\n    function getTokensOfOwner(address walletAddress) public view returns (uint256[] memory tokenIds) {\n        uint256 tokenCount = balanceOf(walletAddress);\n\n        if (tokenCount == 0) {\n            tokenIds = new uint256[](0);\n        } else {\n            tokenIds = new uint256[](tokenCount);\n            uint256 index;\n            for (index = 0; index < tokenCount; index++) {\n                tokenIds[index] = tokenOfOwnerByIndex(walletAddress, index);\n            }\n        }\n\n        return tokenIds;\n    }\n\n    // ---\n    // Secondary Marketplace Functions\n    // ---\n\n    function owner() external view returns (address) {\n        return ownerAddress;\n    }\n\n    /* Rarible Royalties V1 */\n    function getFeeRecipients(uint256 tokenId) public view onlyValidTokenId(tokenId) returns (address payable[] memory) {\n        address payable[] memory recipients = new address payable[](1);\n        recipients[0] = payable(payoutAddress);\n        return recipients;\n    }\n\n    function getFeeBps(uint256 tokenId) public view onlyValidTokenId(tokenId) returns (uint[] memory) {\n        uint256[] memory feeBps = new uint[](1);\n        feeBps[0] = uint(royaltyFeeBps);\n        return feeBps;\n    }\n\n    /* EIP-2981 */\n    function royaltyInfo(uint256 _tokenId, uint256 _salePrice) external view onlyValidTokenId(_tokenId) returns (address receiver, uint256 amount) {\n        return (payoutAddress, _salePrice.div(100).mul(royaltyFeeBps));\n    }\n}",
  "sourcePath": "/Users/ianolson/code/fuzzyhat-contracts/contracts/FuzzyHat.sol",
  "compiler": {
    "name": "solc",
    "version": "0.8.0+commit.c7dfd78e.Emscripten.clang"
  },
  "schemaVersion": "3.3.4",
  "updatedAt": "2021-08-03T06:16:34.888Z",
  "devdoc": {
    "kind": "dev",
    "methods": {
      "approve(address,uint256)": {
        "details": "See {IERC721-approve}."
      },
      "balanceOf(address)": {
        "details": "See {IERC721-balanceOf}."
      },
      "getApproved(uint256)": {
        "details": "See {IERC721-getApproved}."
      },
      "isApprovedForAll(address,address)": {
        "details": "See {IERC721-isApprovedForAll}."
      },
      "name()": {
        "details": "See {IERC721Metadata-name}."
      },
      "ownerOf(uint256)": {
        "details": "See {IERC721-ownerOf}."
      },
      "safeTransferFrom(address,address,uint256)": {
        "details": "See {IERC721-safeTransferFrom}."
      },
      "safeTransferFrom(address,address,uint256,bytes)": {
        "details": "See {IERC721-safeTransferFrom}."
      },
      "setApprovalForAll(address,bool)": {
        "details": "See {IERC721-setApprovalForAll}."
      },
      "supportsInterface(bytes4)": {
        "details": "See {IERC165-supportsInterface}."
      },
      "symbol()": {
        "details": "See {IERC721Metadata-symbol}."
      },
      "tokenByIndex(uint256)": {
        "details": "See {IERC721Enumerable-tokenByIndex}."
      },
      "tokenOfOwnerByIndex(address,uint256)": {
        "details": "See {IERC721Enumerable-tokenOfOwnerByIndex}."
      },
      "tokenURI(uint256)": {
        "details": "See {IERC721Metadata-tokenURI}."
      },
      "totalSupply()": {
        "details": "See {IERC721Enumerable-totalSupply}."
      },
      "transferFrom(address,address,uint256)": {
        "details": "See {IERC721-transferFrom}."
      }
    },
    "version": 1
  },
  "userdoc": {
    "kind": "user",
    "methods": {},
    "version": 1
  }
}